{
  "address": "0xe7f1725E7734CE288F8367e1Bb143E90bb3F0512",
  "abi": [
    {
      "inputs": [],
      "stateMutability": "nonpayable",
      "type": "constructor"
    },
    {
      "anonymous": false,
      "inputs": [
        {
          "indexed": false,
          "internalType": "uint256",
          "name": "id",
          "type": "uint256"
        },
        {
          "indexed": false,
          "internalType": "address",
          "name": "user",
          "type": "address"
        },
        {
          "indexed": false,
          "internalType": "address",
          "name": "token",
          "type": "address"
        },
        {
          "indexed": false,
          "internalType": "uint256",
          "name": "amount",
          "type": "uint256"
        },
        {
          "indexed": false,
          "internalType": "uint256",
          "name": "price",
          "type": "uint256"
        }
      ],
      "name": "Cancel",
      "type": "event"
    },
    {
      "anonymous": false,
      "inputs": [
        {
          "indexed": false,
          "internalType": "address",
          "name": "token",
          "type": "address"
        },
        {
          "indexed": false,
          "internalType": "address",
          "name": "user",
          "type": "address"
        },
        {
          "indexed": false,
          "internalType": "uint256",
          "name": "amount",
          "type": "uint256"
        },
        {
          "indexed": false,
          "internalType": "uint256",
          "name": "balance",
          "type": "uint256"
        }
      ],
      "name": "Deposit",
      "type": "event"
    },
    {
      "anonymous": false,
      "inputs": [
        {
          "indexed": false,
          "internalType": "uint256",
          "name": "id",
          "type": "uint256"
        },
        {
          "indexed": false,
          "internalType": "address",
          "name": "user",
          "type": "address"
        },
        {
          "indexed": false,
          "internalType": "address",
          "name": "token",
          "type": "address"
        },
        {
          "indexed": false,
          "internalType": "uint256",
          "name": "amount",
          "type": "uint256"
        },
        {
          "indexed": false,
          "internalType": "uint256",
          "name": "price",
          "type": "uint256"
        }
      ],
      "name": "Fill",
      "type": "event"
    },
    {
      "anonymous": false,
      "inputs": [
        {
          "indexed": false,
          "internalType": "uint256",
          "name": "id",
          "type": "uint256"
        },
        {
          "indexed": false,
          "internalType": "address",
          "name": "user",
          "type": "address"
        },
        {
          "indexed": false,
          "internalType": "address",
          "name": "token",
          "type": "address"
        },
        {
          "indexed": false,
          "internalType": "uint256",
          "name": "amount",
          "type": "uint256"
        },
        {
          "indexed": false,
          "internalType": "uint256",
          "name": "price",
          "type": "uint256"
        },
        {
          "indexed": false,
          "internalType": "enum Exchange.Side",
          "name": "side",
          "type": "uint8"
        }
      ],
      "name": "Order",
      "type": "event"
    },
    {
      "anonymous": false,
      "inputs": [
        {
          "indexed": true,
          "internalType": "address",
          "name": "previousOwner",
          "type": "address"
        },
        {
          "indexed": true,
          "internalType": "address",
          "name": "newOwner",
          "type": "address"
        }
      ],
      "name": "OwnershipTransferred",
      "type": "event"
    },
    {
      "anonymous": false,
      "inputs": [
        {
          "indexed": false,
          "internalType": "address",
          "name": "token",
          "type": "address"
        },
        {
          "indexed": false,
          "internalType": "address",
          "name": "user",
          "type": "address"
        },
        {
          "indexed": false,
          "internalType": "uint256",
          "name": "amount",
          "type": "uint256"
        },
        {
          "indexed": false,
          "internalType": "uint256",
          "name": "balance",
          "type": "uint256"
        }
      ],
      "name": "Withdraw",
      "type": "event"
    },
    {
      "inputs": [],
      "name": "Owner",
      "outputs": [
        {
          "internalType": "address",
          "name": "",
          "type": "address"
        }
      ],
      "stateMutability": "view",
      "type": "function"
    },
    {
      "inputs": [
        {
          "internalType": "address",
          "name": "_token",
          "type": "address"
        },
        {
          "internalType": "address",
          "name": "_user",
          "type": "address"
        }
      ],
      "name": "balanceOf",
      "outputs": [
        {
          "internalType": "uint256",
          "name": "",
          "type": "uint256"
        }
      ],
      "stateMutability": "view",
      "type": "function"
    },
    {
      "inputs": [
        {
          "internalType": "enum Exchange.Side",
          "name": "side",
          "type": "uint8"
        },
        {
          "internalType": "uint256",
          "name": "_id",
          "type": "uint256"
        },
        {
          "internalType": "address",
          "name": "_token",
          "type": "address"
        }
      ],
      "name": "cancelOrder",
      "outputs": [],
      "stateMutability": "nonpayable",
      "type": "function"
    },
    {
      "inputs": [
        {
          "internalType": "address",
          "name": "_token",
          "type": "address"
        },
        {
          "internalType": "uint256",
          "name": "_amount",
          "type": "uint256"
        },
        {
          "internalType": "uint256",
          "name": "_price",
          "type": "uint256"
        }
      ],
      "name": "createLimitBuyOrder",
      "outputs": [
        {
          "components": [
            {
              "internalType": "uint256",
              "name": "id",
              "type": "uint256"
            },
            {
              "internalType": "address",
              "name": "user",
              "type": "address"
            },
            {
              "internalType": "address",
              "name": "token",
              "type": "address"
            },
            {
              "internalType": "uint256",
              "name": "amount",
              "type": "uint256"
            },
            {
              "internalType": "uint256",
              "name": "price",
              "type": "uint256"
            },
            {
              "internalType": "enum Exchange.Side",
              "name": "side",
              "type": "uint8"
            }
          ],
          "internalType": "struct Exchange._Order",
          "name": "",
          "type": "tuple"
        }
      ],
      "stateMutability": "nonpayable",
      "type": "function"
    },
    {
      "inputs": [
        {
          "internalType": "address",
          "name": "_token",
          "type": "address"
        },
        {
          "internalType": "uint256",
          "name": "_amount",
          "type": "uint256"
        },
        {
          "internalType": "uint256",
          "name": "_price",
          "type": "uint256"
        }
      ],
      "name": "createLimitSellOrder",
      "outputs": [
        {
          "components": [
            {
              "internalType": "uint256",
              "name": "id",
              "type": "uint256"
            },
            {
              "internalType": "address",
              "name": "user",
              "type": "address"
            },
            {
              "internalType": "address",
              "name": "token",
              "type": "address"
            },
            {
              "internalType": "uint256",
              "name": "amount",
              "type": "uint256"
            },
            {
              "internalType": "uint256",
              "name": "price",
              "type": "uint256"
            },
            {
              "internalType": "enum Exchange.Side",
              "name": "side",
              "type": "uint8"
            }
          ],
          "internalType": "struct Exchange._Order",
          "name": "",
          "type": "tuple"
        }
      ],
      "stateMutability": "nonpayable",
      "type": "function"
    },
    {
      "inputs": [],
      "name": "depositETH",
      "outputs": [],
      "stateMutability": "payable",
      "type": "function"
    },
    {
      "inputs": [
        {
          "internalType": "address",
          "name": "_token",
          "type": "address"
        },
        {
          "internalType": "uint256",
          "name": "_amount",
          "type": "uint256"
        }
      ],
      "name": "depositToken",
      "outputs": [],
      "stateMutability": "nonpayable",
      "type": "function"
    },
    {
      "inputs": [
        {
          "internalType": "uint256",
          "name": "_id",
          "type": "uint256"
        },
        {
          "internalType": "address",
          "name": "_token",
          "type": "address"
        },
        {
          "internalType": "uint256",
          "name": "_amount",
          "type": "uint256"
        },
        {
          "internalType": "uint256",
          "name": "_price",
          "type": "uint256"
        }
      ],
      "name": "fillBuyOrder",
      "outputs": [],
      "stateMutability": "nonpayable",
      "type": "function"
    },
    {
      "inputs": [
        {
          "internalType": "uint256",
          "name": "_id",
          "type": "uint256"
        },
        {
          "internalType": "address",
          "name": "_token",
          "type": "address"
        },
        {
          "internalType": "uint256",
          "name": "_amount",
          "type": "uint256"
        },
        {
          "internalType": "uint256",
          "name": "_price",
          "type": "uint256"
        }
      ],
      "name": "fillSellOrder",
      "outputs": [],
      "stateMutability": "nonpayable",
      "type": "function"
    },
    {
      "inputs": [
        {
          "components": [
            {
              "internalType": "uint256",
              "name": "id",
              "type": "uint256"
            },
            {
              "internalType": "address",
              "name": "user",
              "type": "address"
            },
            {
              "internalType": "address",
              "name": "token",
              "type": "address"
            },
            {
              "internalType": "uint256",
              "name": "amount",
              "type": "uint256"
            },
            {
              "internalType": "uint256",
              "name": "price",
              "type": "uint256"
            },
            {
              "internalType": "enum Exchange.Side",
              "name": "side",
              "type": "uint8"
            }
          ],
          "internalType": "struct Exchange._Order[]",
          "name": "_order",
          "type": "tuple[]"
        },
        {
          "internalType": "uint256",
          "name": "_id",
          "type": "uint256"
        }
      ],
      "name": "getOrderFromArray",
      "outputs": [
        {
          "components": [
            {
              "internalType": "uint256",
              "name": "id",
              "type": "uint256"
            },
            {
              "internalType": "address",
              "name": "user",
              "type": "address"
            },
            {
              "internalType": "address",
              "name": "token",
              "type": "address"
            },
            {
              "internalType": "uint256",
              "name": "amount",
              "type": "uint256"
            },
            {
              "internalType": "uint256",
              "name": "price",
              "type": "uint256"
            },
            {
              "internalType": "enum Exchange.Side",
              "name": "side",
              "type": "uint8"
            }
          ],
          "internalType": "struct Exchange._Order",
          "name": "",
          "type": "tuple"
        }
      ],
      "stateMutability": "pure",
      "type": "function"
    },
    {
      "inputs": [
        {
          "internalType": "address",
          "name": "",
          "type": "address"
        },
        {
          "internalType": "uint256",
          "name": "",
          "type": "uint256"
        },
        {
          "internalType": "uint256",
          "name": "",
          "type": "uint256"
        }
      ],
      "name": "orderBook",
      "outputs": [
        {
          "internalType": "uint256",
          "name": "id",
          "type": "uint256"
        },
        {
          "internalType": "address",
          "name": "user",
          "type": "address"
        },
        {
          "internalType": "address",
          "name": "token",
          "type": "address"
        },
        {
          "internalType": "uint256",
          "name": "amount",
          "type": "uint256"
        },
        {
          "internalType": "uint256",
          "name": "price",
          "type": "uint256"
        },
        {
          "internalType": "enum Exchange.Side",
          "name": "side",
          "type": "uint8"
        }
      ],
      "stateMutability": "view",
      "type": "function"
    },
    {
      "inputs": [],
      "name": "owner",
      "outputs": [
        {
          "internalType": "address",
          "name": "",
          "type": "address"
        }
      ],
      "stateMutability": "view",
      "type": "function"
    },
    {
      "inputs": [],
      "name": "renounceOwnership",
      "outputs": [],
      "stateMutability": "nonpayable",
      "type": "function"
    },
    {
      "inputs": [
        {
          "internalType": "uint256",
          "name": "",
          "type": "uint256"
        }
      ],
      "name": "tokenList",
      "outputs": [
        {
          "internalType": "address",
          "name": "",
          "type": "address"
        }
      ],
      "stateMutability": "view",
      "type": "function"
    },
    {
      "inputs": [
        {
          "internalType": "address",
          "name": "",
          "type": "address"
        },
        {
          "internalType": "address",
          "name": "",
          "type": "address"
        }
      ],
      "name": "tokens",
      "outputs": [
        {
          "internalType": "uint256",
          "name": "",
          "type": "uint256"
        }
      ],
      "stateMutability": "view",
      "type": "function"
    },
    {
      "inputs": [
        {
          "internalType": "address",
          "name": "newOwner",
          "type": "address"
        }
      ],
      "name": "transferOwnership",
      "outputs": [],
      "stateMutability": "nonpayable",
      "type": "function"
    },
    {
      "inputs": [
        {
          "internalType": "uint256",
          "name": "_amount",
          "type": "uint256"
        }
      ],
      "name": "withdrawETH",
      "outputs": [],
      "stateMutability": "nonpayable",
      "type": "function"
    },
    {
      "inputs": [
        {
          "internalType": "address",
          "name": "_token",
          "type": "address"
        },
        {
          "internalType": "uint256",
          "name": "_amount",
          "type": "uint256"
        }
      ],
      "name": "withdrawToken",
      "outputs": [],
      "stateMutability": "nonpayable",
      "type": "function"
    }
  ],
  "transactionHash": "0x72c8b1dabba9a4481a5998f073c6099bf3926d183798249fab4a01eff25afed9",
  "args": [],
  "numDeployments": 1,
  "solcInputHash": "8e252c7da5317cb72553274633d7e501",
  "bytecode": "0x6080604052670de0b6b3a76400006002556000600560006101000a81548173ffffffffffffffffffffffffffffffffffffffff021916908373ffffffffffffffffffffffffffffffffffffffff1602179055507307865c6e87b9f70255377e024ace6630c1eaa37f600660006101000a81548173ffffffffffffffffffffffffffffffffffffffff021916908373ffffffffffffffffffffffffffffffffffffffff1602179055506000600955348015620000b957600080fd5b50620000da620000ce6200012160201b60201c565b6200012960201b60201c565b33600160006101000a81548173ffffffffffffffffffffffffffffffffffffffff021916908373ffffffffffffffffffffffffffffffffffffffff160217905550620001ed565b600033905090565b60008060009054906101000a900473ffffffffffffffffffffffffffffffffffffffff169050816000806101000a81548173ffffffffffffffffffffffffffffffffffffffff021916908373ffffffffffffffffffffffffffffffffffffffff1602179055508173ffffffffffffffffffffffffffffffffffffffff168173ffffffffffffffffffffffffffffffffffffffff167f8be0079c531659141344cd1fd0a4f28419497f9722a3daafe3b4186f6b6457e060405160405180910390a35050565b613f4e80620001fd6000396000f3fe6080604052600436106101095760003560e01c80639e281a9811610095578063f14210a611610064578063f14210a614610379578063f253c711146103a2578063f2fde38b146103e4578063f6326fb31461040d578063f7888aec1461041757610109565b80639e281a98146102ab5780639ead7222146102d4578063a694ccf114610311578063b4a99a4e1461034e57610109565b806367ee84c1116100dc57806367ee84c1146101da578063715018a61461020357806375c1cea21461021a5780638da5cb5b146102575780638e9fbea41461028257610109565b80631347d60e1461010e5780632061da5814610137578063338b5dea14610174578063508493bc1461019d575b600080fd5b34801561011a57600080fd5b50610135600480360381019061013091906133e0565b610454565b005b34801561014357600080fd5b5061015e60048036038101906101599190613304565b610ab7565b60405161016b91906138b8565b60405180910390f35b34801561018057600080fd5b5061019b600480360381019061019691906132c4565b610f10565b005b3480156101a957600080fd5b506101c460048036038101906101bf9190613284565b611220565b6040516101d191906138d3565b60405180910390f35b3480156101e657600080fd5b5061020160048036038101906101fc9190613460565b611245565b005b34801561020f57600080fd5b50610218611676565b005b34801561022657600080fd5b50610241600480360381019061023c9190613304565b61168a565b60405161024e91906138b8565b60405180910390f35b34801561026357600080fd5b5061026c611b18565b604051610279919061370f565b60405180910390f35b34801561028e57600080fd5b506102a960048036038101906102a49190613460565b611b41565b005b3480156102b757600080fd5b506102d260048036038101906102cd91906132c4565b611f72565b005b3480156102e057600080fd5b506102fb60048036038101906102f69190613433565b612355565b604051610308919061370f565b60405180910390f35b34801561031d57600080fd5b5061033860048036038101906103339190613357565b612394565b60405161034591906138b8565b60405180910390f35b34801561035a57600080fd5b50610363612416565b604051610370919061370f565b60405180910390f35b34801561038557600080fd5b506103a0600480360381019061039b9190613433565b61243c565b005b3480156103ae57600080fd5b506103c960048036038101906103c49190613304565b6128a3565b6040516103db96959493929190613941565b60405180910390f35b3480156103f057600080fd5b5061040b60048036038101906104069190613257565b612956565b005b6104156129da565b005b34801561042357600080fd5b5061043e60048036038101906104399190613284565b612c2c565b60405161044b91906138d3565b60405180910390f35b6000821015801561046757506009548211155b6104a6576040517f08c379a000000000000000000000000000000000000000000000000000000000815260040161049d90613898565b60405180910390fd5b6000600760008373ffffffffffffffffffffffffffffffffffffffff1673ffffffffffffffffffffffffffffffffffffffff16815260200190815260200160002060008560018111156104fc576104fb613c09565b5b81526020019081526020016000209050610514612e3f565b600080600090505b83805490508110156106a2578584828154811061053c5761053b613c67565b5b906000526020600020906006020160000154141561068f5780915083818154811061056a57610569613c67565b5b90600052602060002090600602016040518060c0016040529081600082015481526020016001820160009054906101000a900473ffffffffffffffffffffffffffffffffffffffff1673ffffffffffffffffffffffffffffffffffffffff1673ffffffffffffffffffffffffffffffffffffffff1681526020016002820160009054906101000a900473ffffffffffffffffffffffffffffffffffffffff1673ffffffffffffffffffffffffffffffffffffffff1673ffffffffffffffffffffffffffffffffffffffff16815260200160038201548152602001600482015481526020016005820160009054906101000a900460ff16600181111561067257610671613c09565b5b600181111561068457610683613c09565b5b8152505092506106a2565b808061069a90613b91565b91505061051c565b5060008190505b600184805490506106ba9190613abf565b81101561084e57836001826106cf9190613a0f565b815481106106e0576106df613c67565b5b906000526020600020906006020184828154811061070157610700613c67565b5b9060005260206000209060060201600082015481600001556001820160009054906101000a900473ffffffffffffffffffffffffffffffffffffffff168160010160006101000a81548173ffffffffffffffffffffffffffffffffffffffff021916908373ffffffffffffffffffffffffffffffffffffffff1602179055506002820160009054906101000a900473ffffffffffffffffffffffffffffffffffffffff168160020160006101000a81548173ffffffffffffffffffffffffffffffffffffffff021916908373ffffffffffffffffffffffffffffffffffffffff16021790555060038201548160030155600482015481600401556005820160009054906101000a900460ff168160050160006101000a81548160ff0219169083600181111561083357610832613c09565b5b0217905550905050808061084690613b91565b9150506106a9565b5082600184805490506108619190613abf565b8154811061087257610871613c67565b5b90600052602060002090600602016000808201600090556001820160006101000a81549073ffffffffffffffffffffffffffffffffffffffff02191690556002820160006101000a81549073ffffffffffffffffffffffffffffffffffffffff0219169055600382016000905560048201600090556005820160006101000a81549060ff021916905550508280548061090e5761090d613c38565b5b60019003818190600052602060002090600602016000808201600090556001820160006101000a81549073ffffffffffffffffffffffffffffffffffffffff02191690556002820160006101000a81549073ffffffffffffffffffffffffffffffffffffffff0219169055600382016000905560048201600090556005820160006101000a81549060ff021916905550509055600060025483606001516109b59190613a65565b90506000836080015190503373ffffffffffffffffffffffffffffffffffffffff16846020015173ffffffffffffffffffffffffffffffffffffffff16146109fc57600080fd5b84600760008873ffffffffffffffffffffffffffffffffffffffff1673ffffffffffffffffffffffffffffffffffffffff16815260200190815260200160002060008a6001811115610a5157610a50613c09565b5b8152602001908152602001600020908054610a6d929190612eb3565b507fca5fbf354151ee18d2ff58712c9ed7be34397aa5983abfaf40e2d8485867d9668733888585604051610aa59594939291906138ee565b60405180910390a15050505050505050565b610abf612e3f565b60025483610acd9190613a65565b925082600360008673ffffffffffffffffffffffffffffffffffffffff1673ffffffffffffffffffffffffffffffffffffffff16815260200190815260200160002060003373ffffffffffffffffffffffffffffffffffffffff1673ffffffffffffffffffffffffffffffffffffffff168152602001908152602001600020541015610b8e576040517f08c379a0000000000000000000000000000000000000000000000000000000008152600401610b8590613798565b60405180910390fd5b6000600760008673ffffffffffffffffffffffffffffffffffffffff1673ffffffffffffffffffffffffffffffffffffffff1681526020019081526020016000206000600180811115610be457610be3613c09565b5b81526020019081526020016000209050806040518060c0016040528060095481526020013373ffffffffffffffffffffffffffffffffffffffff1681526020018773ffffffffffffffffffffffffffffffffffffffff168152602001868152602001858152602001600180811115610c5f57610c5e613c09565b5b81525090806001815401808255809150506001900390600052602060002090600602016000909190919091506000820151816000015560208201518160010160006101000a81548173ffffffffffffffffffffffffffffffffffffffff021916908373ffffffffffffffffffffffffffffffffffffffff16021790555060408201518160020160006101000a81548173ffffffffffffffffffffffffffffffffffffffff021916908373ffffffffffffffffffffffffffffffffffffffff160217905550606082015181600301556080820151816004015560a08201518160050160006101000a81548160ff02191690836001811115610d6257610d61613c09565b5b021790555050507f95f7e844715189eed0317d8f771c63ce13ec6364f48022f3db86baf8ce584b95600954338787876001604051610da596959493929190613941565b60405180910390a160096000815480929190610dc090613b91565b91905055508060018280549050610dd79190613abf565b81548110610de857610de7613c67565b5b90600052602060002090600602016040518060c0016040529081600082015481526020016001820160009054906101000a900473ffffffffffffffffffffffffffffffffffffffff1673ffffffffffffffffffffffffffffffffffffffff1673ffffffffffffffffffffffffffffffffffffffff1681526020016002820160009054906101000a900473ffffffffffffffffffffffffffffffffffffffff1673ffffffffffffffffffffffffffffffffffffffff1673ffffffffffffffffffffffffffffffffffffffff16815260200160038201548152602001600482015481526020016005820160009054906101000a900460ff166001811115610ef057610eef613c09565b5b6001811115610f0257610f01613c09565b5b815250509150509392505050565b610f2560025482612cb390919063ffffffff16565b9050600560009054906101000a900473ffffffffffffffffffffffffffffffffffffffff1673ffffffffffffffffffffffffffffffffffffffff168273ffffffffffffffffffffffffffffffffffffffff161415610f8257600080fd5b60008290508073ffffffffffffffffffffffffffffffffffffffff1663a9059cbb30846040518363ffffffff1660e01b8152600401610fc292919061376f565b602060405180830381600087803b158015610fdc57600080fd5b505af1158015610ff0573d6000803e3d6000fd5b505050506040513d601f19601f8201168201806040525081019061101491906133b3565b611053576040517f08c379a000000000000000000000000000000000000000000000000000000000815260040161104a906137f8565b60405180910390fd5b6110e282600360008673ffffffffffffffffffffffffffffffffffffffff1673ffffffffffffffffffffffffffffffffffffffff16815260200190815260200160002060003373ffffffffffffffffffffffffffffffffffffffff1673ffffffffffffffffffffffffffffffffffffffff16815260200190815260200160002054612cc990919063ffffffff16565b600360008573ffffffffffffffffffffffffffffffffffffffff1673ffffffffffffffffffffffffffffffffffffffff16815260200190815260200160002060003373ffffffffffffffffffffffffffffffffffffffff1673ffffffffffffffffffffffffffffffffffffffff168152602001908152602001600020819055507fdcbc1c05240f31ff3ad067ef1ee35ce4997762752e3a095284754544f4c709d7833384600360008873ffffffffffffffffffffffffffffffffffffffff1673ffffffffffffffffffffffffffffffffffffffff16815260200190815260200160002060003373ffffffffffffffffffffffffffffffffffffffff1673ffffffffffffffffffffffffffffffffffffffff16815260200190815260200160002054604051611213949392919061372a565b60405180910390a1505050565b6003602052816000526040600020602052806000526040600020600091509150505481565b6000841015801561125857506009548411155b61126157600080fd5b6002548261126f9190613a65565b91506000600760008573ffffffffffffffffffffffffffffffffffffffff1673ffffffffffffffffffffffffffffffffffffffff1681526020019081526020016000206000808152602001908152602001600020805480602002602001604051908101604052809291908181526020016000905b8282101561141a57838290600052602060002090600602016040518060c0016040529081600082015481526020016001820160009054906101000a900473ffffffffffffffffffffffffffffffffffffffff1673ffffffffffffffffffffffffffffffffffffffff1673ffffffffffffffffffffffffffffffffffffffff1681526020016002820160009054906101000a900473ffffffffffffffffffffffffffffffffffffffff1673ffffffffffffffffffffffffffffffffffffffff1673ffffffffffffffffffffffffffffffffffffffff16815260200160038201548152602001600482015481526020016005820160009054906101000a900460ff1660018111156113f5576113f4613c09565b5b600181111561140757611406613c09565b5b81525050815260200190600101906112e3565b505050509050611428612e3f565b6114328287612394565b90503373ffffffffffffffffffffffffffffffffffffffff16816020015173ffffffffffffffffffffffffffffffffffffffff161461147057600080fd5b838160600151101561148157600080fd5b611498848260600151612cdf90919063ffffffff16565b8160600181815250507f6b2a78965102b6dcf63436e21fb398d05a11120cdd8b64e83291405e3387cdf286338787876040516114d89594939291906138ee565b60405180910390a160008160600151141561166e57600860405180604001604052806000600181111561150e5761150d613c09565b5b815260200183815250908060018154018082558091505060019003906000526020600020906007020160009091909190915060008201518160000160006101000a81548160ff0219169083600181111561156b5761156a613c09565b5b02179055506020820151816001016000820151816000015560208201518160010160006101000a81548173ffffffffffffffffffffffffffffffffffffffff021916908373ffffffffffffffffffffffffffffffffffffffff16021790555060408201518160020160006101000a81548173ffffffffffffffffffffffffffffffffffffffff021916908373ffffffffffffffffffffffffffffffffffffffff160217905550606082015181600301556080820151816004015560a08201518160050160006101000a81548160ff021916908360018111156116505761164f613c09565b5b02179055505050505061166d600082600001518360400151610454565b5b505050505050565b61167e612cf5565b6116886000612d73565b565b611692612e3f565b600254836116a09190613a65565b92506116b58284612cb390919063ffffffff16565b60036000600660009054906101000a900473ffffffffffffffffffffffffffffffffffffffff1673ffffffffffffffffffffffffffffffffffffffff1673ffffffffffffffffffffffffffffffffffffffff16815260200190815260200160002060003373ffffffffffffffffffffffffffffffffffffffff1673ffffffffffffffffffffffffffffffffffffffff168152602001908152602001600020541015611795576040517f08c379a000000000000000000000000000000000000000000000000000000000815260040161178c90613858565b60405180910390fd5b6000600760008673ffffffffffffffffffffffffffffffffffffffff1673ffffffffffffffffffffffffffffffffffffffff16815260200190815260200160002060008060018111156117eb576117ea613c09565b5b81526020019081526020016000209050806040518060c0016040528060095481526020013373ffffffffffffffffffffffffffffffffffffffff1681526020018773ffffffffffffffffffffffffffffffffffffffff1681526020018681526020018581526020016000600181111561186757611866613c09565b5b81525090806001815401808255809150506001900390600052602060002090600602016000909190919091506000820151816000015560208201518160010160006101000a81548173ffffffffffffffffffffffffffffffffffffffff021916908373ffffffffffffffffffffffffffffffffffffffff16021790555060408201518160020160006101000a81548173ffffffffffffffffffffffffffffffffffffffff021916908373ffffffffffffffffffffffffffffffffffffffff160217905550606082015181600301556080820151816004015560a08201518160050160006101000a81548160ff0219169083600181111561196a57611969613c09565b5b021790555050507f95f7e844715189eed0317d8f771c63ce13ec6364f48022f3db86baf8ce584b956009543387878760006040516119ad96959493929190613941565b60405180910390a1600960008154809291906119c890613b91565b919050555080600182805490506119df9190613abf565b815481106119f0576119ef613c67565b5b90600052602060002090600602016040518060c0016040529081600082015481526020016001820160009054906101000a900473ffffffffffffffffffffffffffffffffffffffff1673ffffffffffffffffffffffffffffffffffffffff1673ffffffffffffffffffffffffffffffffffffffff1681526020016002820160009054906101000a900473ffffffffffffffffffffffffffffffffffffffff1673ffffffffffffffffffffffffffffffffffffffff1673ffffffffffffffffffffffffffffffffffffffff16815260200160038201548152602001600482015481526020016005820160009054906101000a900460ff166001811115611af857611af7613c09565b5b6001811115611b0a57611b09613c09565b5b815250509150509392505050565b60008060009054906101000a900473ffffffffffffffffffffffffffffffffffffffff16905090565b60008410158015611b5457506009548411155b611b5d57600080fd5b60025482611b6b9190613a65565b91506000600760008573ffffffffffffffffffffffffffffffffffffffff1673ffffffffffffffffffffffffffffffffffffffff168152602001908152602001600020600060018152602001908152602001600020805480602002602001604051908101604052809291908181526020016000905b82821015611d1757838290600052602060002090600602016040518060c0016040529081600082015481526020016001820160009054906101000a900473ffffffffffffffffffffffffffffffffffffffff1673ffffffffffffffffffffffffffffffffffffffff1673ffffffffffffffffffffffffffffffffffffffff1681526020016002820160009054906101000a900473ffffffffffffffffffffffffffffffffffffffff1673ffffffffffffffffffffffffffffffffffffffff1673ffffffffffffffffffffffffffffffffffffffff16815260200160038201548152602001600482015481526020016005820160009054906101000a900460ff166001811115611cf257611cf1613c09565b5b6001811115611d0457611d03613c09565b5b8152505081526020019060010190611be0565b505050509050611d25612e3f565b611d2f8287612394565b90503373ffffffffffffffffffffffffffffffffffffffff16816020015173ffffffffffffffffffffffffffffffffffffffff1614611d6d57600080fd5b8381606001511015611d7e57600080fd5b611d95848260600151612cdf90919063ffffffff16565b8160600181815250507f6b2a78965102b6dcf63436e21fb398d05a11120cdd8b64e83291405e3387cdf28633878787604051611dd59594939291906138ee565b60405180910390a1600081606001511415611f6a5760086040518060400160405280600180811115611e0a57611e09613c09565b5b815260200183815250908060018154018082558091505060019003906000526020600020906007020160009091909190915060008201518160000160006101000a81548160ff02191690836001811115611e6757611e66613c09565b5b02179055506020820151816001016000820151816000015560208201518160010160006101000a81548173ffffffffffffffffffffffffffffffffffffffff021916908373ffffffffffffffffffffffffffffffffffffffff16021790555060408201518160020160006101000a81548173ffffffffffffffffffffffffffffffffffffffff021916908373ffffffffffffffffffffffffffffffffffffffff160217905550606082015181600301556080820151816004015560a08201518160050160006101000a81548160ff02191690836001811115611f4c57611f4b613c09565b5b021790555050505050611f69600182600001518360400151610454565b5b505050505050565b611f8760025482612cb390919063ffffffff16565b9050600560009054906101000a900473ffffffffffffffffffffffffffffffffffffffff1673ffffffffffffffffffffffffffffffffffffffff168273ffffffffffffffffffffffffffffffffffffffff161415611fe457600080fd5b80600360008473ffffffffffffffffffffffffffffffffffffffff1673ffffffffffffffffffffffffffffffffffffffff16815260200190815260200160002060003373ffffffffffffffffffffffffffffffffffffffff1673ffffffffffffffffffffffffffffffffffffffff16815260200190815260200160002054101561206d57600080fd5b600a60009054906101000a900460ff16156120bd576040517f08c379a00000000000000000000000000000000000000000000000000000000081526004016120b4906137b8565b60405180910390fd5b6001600a60006101000a81548160ff02191690831515021790555061216781600360008573ffffffffffffffffffffffffffffffffffffffff1673ffffffffffffffffffffffffffffffffffffffff16815260200190815260200160002060003373ffffffffffffffffffffffffffffffffffffffff1673ffffffffffffffffffffffffffffffffffffffff16815260200190815260200160002054612cdf90919063ffffffff16565b600360008473ffffffffffffffffffffffffffffffffffffffff1673ffffffffffffffffffffffffffffffffffffffff16815260200190815260200160002060003373ffffffffffffffffffffffffffffffffffffffff1673ffffffffffffffffffffffffffffffffffffffff168152602001908152602001600020819055508173ffffffffffffffffffffffffffffffffffffffff1663a9059cbb33836040518363ffffffff1660e01b815260040161222292919061376f565b602060405180830381600087803b15801561223c57600080fd5b505af1158015612250573d6000803e3d6000fd5b505050506040513d601f19601f8201168201806040525081019061227491906133b3565b61227d57600080fd5b6000600a60006101000a81548160ff0219169083151502179055507ff341246adaac6f497bc2a656f546ab9e182111d630394f0c57c710a59a2cb567823383600360008773ffffffffffffffffffffffffffffffffffffffff1673ffffffffffffffffffffffffffffffffffffffff16815260200190815260200160002060003373ffffffffffffffffffffffffffffffffffffffff1673ffffffffffffffffffffffffffffffffffffffff16815260200190815260200160002054604051612349949392919061372a565b60405180910390a15050565b6004818154811061236557600080fd5b906000526020600020016000915054906101000a900473ffffffffffffffffffffffffffffffffffffffff1681565b61239c612e3f565b6123a4612e3f565b60005b845181101561240b57838582815181106123c4576123c3613c67565b5b60200260200101516000015114156123f8578481815181106123e9576123e8613c67565b5b6020026020010151915061240b565b808061240390613b91565b9150506123a7565b508091505092915050565b600160009054906101000a900473ffffffffffffffffffffffffffffffffffffffff1681565b8060036000600560009054906101000a900473ffffffffffffffffffffffffffffffffffffffff1673ffffffffffffffffffffffffffffffffffffffff1673ffffffffffffffffffffffffffffffffffffffff16815260200190815260200160002060003373ffffffffffffffffffffffffffffffffffffffff1673ffffffffffffffffffffffffffffffffffffffff16815260200190815260200160002054101561251d576040517f08c379a000000000000000000000000000000000000000000000000000000000815260040161251490613838565b60405180910390fd5b600a60009054906101000a900460ff161561256d576040517f08c379a0000000000000000000000000000000000000000000000000000000008152600401612564906137b8565b60405180910390fd5b6001600a60006101000a81548160ff0219169083151502179055506126398160036000600560009054906101000a900473ffffffffffffffffffffffffffffffffffffffff1673ffffffffffffffffffffffffffffffffffffffff1673ffffffffffffffffffffffffffffffffffffffff16815260200190815260200160002060003373ffffffffffffffffffffffffffffffffffffffff1673ffffffffffffffffffffffffffffffffffffffff16815260200190815260200160002054612cdf90919063ffffffff16565b60036000600560009054906101000a900473ffffffffffffffffffffffffffffffffffffffff1673ffffffffffffffffffffffffffffffffffffffff1673ffffffffffffffffffffffffffffffffffffffff16815260200190815260200160002060003373ffffffffffffffffffffffffffffffffffffffff1673ffffffffffffffffffffffffffffffffffffffff168152602001908152602001600020819055506000600a60006101000a81548160ff02191690831515021790555060003373ffffffffffffffffffffffffffffffffffffffff168260405161271c906136fa565b60006040518083038185875af1925050503d8060008114612759576040519150601f19603f3d011682016040523d82523d6000602084013e61275e565b606091505b50509050806127a2576040517f08c379a000000000000000000000000000000000000000000000000000000000815260040161279990613818565b60405180910390fd5b7ff341246adaac6f497bc2a656f546ab9e182111d630394f0c57c710a59a2cb567600560009054906101000a900473ffffffffffffffffffffffffffffffffffffffff16338460036000600560009054906101000a900473ffffffffffffffffffffffffffffffffffffffff1673ffffffffffffffffffffffffffffffffffffffff1673ffffffffffffffffffffffffffffffffffffffff16815260200190815260200160002060003373ffffffffffffffffffffffffffffffffffffffff1673ffffffffffffffffffffffffffffffffffffffff16815260200190815260200160002054604051612897949392919061372a565b60405180910390a15050565b600760205282600052604060002060205281600052604060002081815481106128cb57600080fd5b906000526020600020906006020160009250925050508060000154908060010160009054906101000a900473ffffffffffffffffffffffffffffffffffffffff16908060020160009054906101000a900473ffffffffffffffffffffffffffffffffffffffff16908060030154908060040154908060050160009054906101000a900460ff16905086565b61295e612cf5565b600073ffffffffffffffffffffffffffffffffffffffff168173ffffffffffffffffffffffffffffffffffffffff1614156129ce576040517f08c379a00000000000000000000000000000000000000000000000000000000081526004016129c5906137d8565b60405180910390fd5b6129d781612d73565b50565b612a8b3460036000600560009054906101000a900473ffffffffffffffffffffffffffffffffffffffff1673ffffffffffffffffffffffffffffffffffffffff1673ffffffffffffffffffffffffffffffffffffffff16815260200190815260200160002060003373ffffffffffffffffffffffffffffffffffffffff1673ffffffffffffffffffffffffffffffffffffffff16815260200190815260200160002054612cc990919063ffffffff16565b60036000600560009054906101000a900473ffffffffffffffffffffffffffffffffffffffff1673ffffffffffffffffffffffffffffffffffffffff1673ffffffffffffffffffffffffffffffffffffffff16815260200190815260200160002060003373ffffffffffffffffffffffffffffffffffffffff1673ffffffffffffffffffffffffffffffffffffffff168152602001908152602001600020819055507fdcbc1c05240f31ff3ad067ef1ee35ce4997762752e3a095284754544f4c709d7600560009054906101000a900473ffffffffffffffffffffffffffffffffffffffff16333460036000600560009054906101000a900473ffffffffffffffffffffffffffffffffffffffff1673ffffffffffffffffffffffffffffffffffffffff1673ffffffffffffffffffffffffffffffffffffffff16815260200190815260200160002060003373ffffffffffffffffffffffffffffffffffffffff1673ffffffffffffffffffffffffffffffffffffffff16815260200190815260200160002054604051612c22949392919061372a565b60405180910390a1565b6000600360008473ffffffffffffffffffffffffffffffffffffffff1673ffffffffffffffffffffffffffffffffffffffff16815260200190815260200160002060008373ffffffffffffffffffffffffffffffffffffffff1673ffffffffffffffffffffffffffffffffffffffff16815260200190815260200160002054905092915050565b60008183612cc19190613a65565b905092915050565b60008183612cd79190613a0f565b905092915050565b60008183612ced9190613abf565b905092915050565b612cfd612e37565b73ffffffffffffffffffffffffffffffffffffffff16612d1b611b18565b73ffffffffffffffffffffffffffffffffffffffff1614612d71576040517f08c379a0000000000000000000000000000000000000000000000000000000008152600401612d6890613878565b60405180910390fd5b565b60008060009054906101000a900473ffffffffffffffffffffffffffffffffffffffff169050816000806101000a81548173ffffffffffffffffffffffffffffffffffffffff021916908373ffffffffffffffffffffffffffffffffffffffff1602179055508173ffffffffffffffffffffffffffffffffffffffff168173ffffffffffffffffffffffffffffffffffffffff167f8be0079c531659141344cd1fd0a4f28419497f9722a3daafe3b4186f6b6457e060405160405180910390a35050565b600033905090565b6040518060c0016040528060008152602001600073ffffffffffffffffffffffffffffffffffffffff168152602001600073ffffffffffffffffffffffffffffffffffffffff168152602001600081526020016000815260200160006001811115612ead57612eac613c09565b5b81525090565b8280548282559060005260206000209060060281019282156130235760005260206000209160060282015b82811115613022578282600082015481600001556001820160009054906101000a900473ffffffffffffffffffffffffffffffffffffffff168160010160006101000a81548173ffffffffffffffffffffffffffffffffffffffff021916908373ffffffffffffffffffffffffffffffffffffffff1602179055506002820160009054906101000a900473ffffffffffffffffffffffffffffffffffffffff168160020160006101000a81548173ffffffffffffffffffffffffffffffffffffffff021916908373ffffffffffffffffffffffffffffffffffffffff16021790555060038201548160030155600482015481600401556005820160009054906101000a900460ff168160050160006101000a81548160ff0219169083600181111561300c5761300b613c09565b5b0217905550505091600601919060060190612ede565b5b5090506130309190613034565b5090565b5b808211156130c1576000808201600090556001820160006101000a81549073ffffffffffffffffffffffffffffffffffffffff02191690556002820160006101000a81549073ffffffffffffffffffffffffffffffffffffffff0219169055600382016000905560048201600090556005820160006101000a81549060ff021916905550600601613035565b5090565b60006130d86130d3846139c7565b6139a2565b905080838252602082019050828560c08602820111156130fb576130fa613ccf565b5b60005b8581101561312b578161311188826131a2565b845260208401935060c083019250506001810190506130fe565b5050509392505050565b60008135905061314481613ec3565b92915050565b600082601f83011261315f5761315e613cc5565b5b813561316f8482602086016130c5565b91505092915050565b60008151905061318781613eda565b92915050565b60008135905061319c81613ef1565b92915050565b600060c082840312156131b8576131b7613cca565b5b6131c260c06139a2565b905060006131d284828501613242565b60008301525060206131e684828501613135565b60208301525060406131fa84828501613135565b604083015250606061320e84828501613242565b606083015250608061322284828501613242565b60808301525060a06132368482850161318d565b60a08301525092915050565b60008135905061325181613f01565b92915050565b60006020828403121561326d5761326c613cd9565b5b600061327b84828501613135565b91505092915050565b6000806040838503121561329b5761329a613cd9565b5b60006132a985828601613135565b92505060206132ba85828601613135565b9150509250929050565b600080604083850312156132db576132da613cd9565b5b60006132e985828601613135565b92505060206132fa85828601613242565b9150509250929050565b60008060006060848603121561331d5761331c613cd9565b5b600061332b86828701613135565b935050602061333c86828701613242565b925050604061334d86828701613242565b9150509250925092565b6000806040838503121561336e5761336d613cd9565b5b600083013567ffffffffffffffff81111561338c5761338b613cd4565b5b6133988582860161314a565b92505060206133a985828601613242565b9150509250929050565b6000602082840312156133c9576133c8613cd9565b5b60006133d784828501613178565b91505092915050565b6000806000606084860312156133f9576133f8613cd9565b5b60006134078682870161318d565b935050602061341886828701613242565b925050604061342986828701613135565b9150509250925092565b60006020828403121561344957613448613cd9565b5b600061345784828501613242565b91505092915050565b6000806000806080858703121561347a57613479613cd9565b5b600061348887828801613242565b945050602061349987828801613135565b93505060406134aa87828801613242565b92505060606134bb87828801613242565b91505092959194509250565b6134d081613af3565b82525050565b6134df81613af3565b82525050565b6134ee81613b4e565b82525050565b6134fd81613b4e565b82525050565b6000613510601f836139fe565b915061351b82613cef565b602082019050919050565b60006135336018836139fe565b915061353e82613d18565b602082019050919050565b60006135566026836139fe565b915061356182613d41565b604082019050919050565b6000613579600a836139fe565b915061358482613d90565b602082019050919050565b600061359c6015836139fe565b91506135a782613db9565b602082019050919050565b60006135bf6024836139fe565b91506135ca82613de2565b604082019050919050565b60006135e2601d836139fe565b91506135ed82613e31565b602082019050919050565b60006136056020836139fe565b915061361082613e5a565b602082019050919050565b6000613628601a836139fe565b915061363382613e83565b602082019050919050565b600061364b6000836139f3565b915061365682613eac565b600082019050919050565b60c08201600082015161367760008501826136dc565b50602082015161368a60208501826134c7565b50604082015161369d60408501826134c7565b5060608201516136b060608501826136dc565b5060808201516136c360808501826136dc565b5060a08201516136d660a08501826134e5565b50505050565b6136e581613b44565b82525050565b6136f481613b44565b82525050565b60006137058261363e565b9150819050919050565b600060208201905061372460008301846134d6565b92915050565b600060808201905061373f60008301876134d6565b61374c60208301866134d6565b61375960408301856136eb565b61376660608301846136eb565b95945050505050565b600060408201905061378460008301856134d6565b61379160208301846136eb565b9392505050565b600060208201905081810360008301526137b181613503565b9050919050565b600060208201905081810360008301526137d181613526565b9050919050565b600060208201905081810360008301526137f181613549565b9050919050565b600060208201905081810360008301526138118161356c565b9050919050565b600060208201905081810360008301526138318161358f565b9050919050565b60006020820190508181036000830152613851816135b2565b9050919050565b60006020820190508181036000830152613871816135d5565b9050919050565b60006020820190508181036000830152613891816135f8565b9050919050565b600060208201905081810360008301526138b18161361b565b9050919050565b600060c0820190506138cd6000830184613661565b92915050565b60006020820190506138e860008301846136eb565b92915050565b600060a08201905061390360008301886136eb565b61391060208301876134d6565b61391d60408301866134d6565b61392a60608301856136eb565b61393760808301846136eb565b9695505050505050565b600060c08201905061395660008301896136eb565b61396360208301886134d6565b61397060408301876134d6565b61397d60608301866136eb565b61398a60808301856136eb565b61399760a08301846134f4565b979650505050505050565b60006139ac6139bd565b90506139b88282613b60565b919050565b6000604051905090565b600067ffffffffffffffff8211156139e2576139e1613c96565b5b602082029050602081019050919050565b600081905092915050565b600082825260208201905092915050565b6000613a1a82613b44565b9150613a2583613b44565b9250827fffffffffffffffffffffffffffffffffffffffffffffffffffffffffffffffff03821115613a5a57613a59613bda565b5b828201905092915050565b6000613a7082613b44565b9150613a7b83613b44565b9250817fffffffffffffffffffffffffffffffffffffffffffffffffffffffffffffffff0483118215151615613ab457613ab3613bda565b5b828202905092915050565b6000613aca82613b44565b9150613ad583613b44565b925082821015613ae857613ae7613bda565b5b828203905092915050565b6000613afe82613b24565b9050919050565b60008115159050919050565b6000819050613b1f82613eaf565b919050565b600073ffffffffffffffffffffffffffffffffffffffff82169050919050565b6000819050919050565b6000613b5982613b11565b9050919050565b613b6982613cde565b810181811067ffffffffffffffff82111715613b8857613b87613c96565b5b80604052505050565b6000613b9c82613b44565b91507fffffffffffffffffffffffffffffffffffffffffffffffffffffffffffffffff821415613bcf57613bce613bda565b5b600182019050919050565b7f4e487b7100000000000000000000000000000000000000000000000000000000600052601160045260246000fd5b7f4e487b7100000000000000000000000000000000000000000000000000000000600052602160045260246000fd5b7f4e487b7100000000000000000000000000000000000000000000000000000000600052603160045260246000fd5b7f4e487b7100000000000000000000000000000000000000000000000000000000600052603260045260246000fd5b7f4e487b7100000000000000000000000000000000000000000000000000000000600052604160045260246000fd5b600080fd5b600080fd5b600080fd5b600080fd5b600080fd5b6000601f19601f8301169050919050565b7f496e73756666696369656e7420746f6b656e7320696e2065786368616e676500600082015250565b7f5265656e7472616e742063616c6c206465746563746564210000000000000000600082015250565b7f4f776e61626c653a206e6577206f776e657220697320746865207a65726f206160008201527f6464726573730000000000000000000000000000000000000000000000000000602082015250565b7f4572726f72206865726500000000000000000000000000000000000000000000600082015250565b7f6661696c656420746f2073656e6420616d6f756e740000000000000000000000600082015250565b7f496e73756666696369656e742062616c616e63652045544820746f207769746860008201527f6472617700000000000000000000000000000000000000000000000000000000602082015250565b7f496e73756666696369656e74205553444320696e2065786368616e6765000000600082015250565b7f4f776e61626c653a2063616c6c6572206973206e6f7420746865206f776e6572600082015250565b7f496e76616c6964204f7264657220494420746f2063616e63656c000000000000600082015250565b50565b60028110613ec057613ebf613c09565b5b50565b613ecc81613af3565b8114613ed757600080fd5b50565b613ee381613b05565b8114613eee57600080fd5b50565b60028110613efe57600080fd5b50565b613f0a81613b44565b8114613f1557600080fd5b5056fea2646970667358221220d69b9f21f55f3e324a23fd462a18e8f79df05a9a1a48e261403f39c5f68d961464736f6c63430008070033",
  "devdoc": {
    "kind": "dev",
    "methods": {
      "owner()": {
        "details": "Returns the address of the current owner."
      },
      "renounceOwnership()": {
        "details": "Leaves the contract without owner. It will not be possible to call `onlyOwner` functions anymore. Can only be called by the current owner. NOTE: Renouncing ownership will leave the contract without an owner, thereby removing any functionality that is only available to the owner."
      },
      "transferOwnership(address)": {
        "details": "Transfers ownership of the contract to a new account (`newOwner`). Can only be called by the current owner."
      }
    },
    "version": 1
  },
  "userdoc": {
    "events": {
      "Cancel(uint256,address,address,uint256,uint256)": {
        "notice": "Event when an order is cancelled"
      },
      "Order(uint256,address,address,uint256,uint256,uint8)": {
        "notice": "Event when an order is placed on an exchange"
      },
      "Withdraw(address,address,uint256,uint256)": {
        "notice": "Event when amount withdrawn exchange"
      }
    },
    "kind": "user",
    "methods": {},
    "version": 1
  },
  "storageLayout": {
    "storage": [
      {
        "astId": 53,
        "contract": "contracts/Exchange.sol:Exchange",
        "label": "_owner",
        "offset": 0,
        "slot": "0",
        "type": "t_address"
      },
      {
        "astId": 1196,
        "contract": "contracts/Exchange.sol:Exchange",
        "label": "Owner",
        "offset": 0,
        "slot": "1",
        "type": "t_address"
      },
      {
        "astId": 1201,
        "contract": "contracts/Exchange.sol:Exchange",
        "label": "decimals",
        "offset": 0,
        "slot": "2",
        "type": "t_uint256"
      },
      {
        "astId": 1207,
        "contract": "contracts/Exchange.sol:Exchange",
        "label": "tokens",
        "offset": 0,
        "slot": "3",
        "type": "t_mapping(t_address,t_mapping(t_address,t_uint256))"
      },
      {
        "astId": 1210,
        "contract": "contracts/Exchange.sol:Exchange",
        "label": "tokenList",
        "offset": 0,
        "slot": "4",
        "type": "t_array(t_address)dyn_storage"
      },
      {
        "astId": 1216,
        "contract": "contracts/Exchange.sol:Exchange",
        "label": "ethToken",
        "offset": 0,
        "slot": "5",
        "type": "t_address"
      },
      {
        "astId": 1219,
        "contract": "contracts/Exchange.sol:Exchange",
        "label": "usdc",
        "offset": 0,
        "slot": "6",
        "type": "t_address"
      },
      {
        "astId": 1227,
        "contract": "contracts/Exchange.sol:Exchange",
        "label": "orderBook",
        "offset": 0,
        "slot": "7",
        "type": "t_mapping(t_address,t_mapping(t_uint256,t_array(t_struct(_Order)1250_storage)dyn_storage))"
      },
      {
        "astId": 1231,
        "contract": "contracts/Exchange.sol:Exchange",
        "label": "filledOrders",
        "offset": 0,
        "slot": "8",
        "type": "t_array(t_struct(_filledOrder)1257_storage)dyn_storage"
      },
      {
        "astId": 1234,
        "contract": "contracts/Exchange.sol:Exchange",
        "label": "orderId",
        "offset": 0,
        "slot": "9",
        "type": "t_uint256"
      },
      {
        "astId": 1236,
        "contract": "contracts/Exchange.sol:Exchange",
        "label": "locked",
        "offset": 0,
        "slot": "10",
        "type": "t_bool"
      }
    ],
    "types": {
      "t_address": {
        "encoding": "inplace",
        "label": "address",
        "numberOfBytes": "20"
      },
      "t_array(t_address)dyn_storage": {
        "base": "t_address",
        "encoding": "dynamic_array",
        "label": "address[]",
        "numberOfBytes": "32"
      },
      "t_array(t_struct(_Order)1250_storage)dyn_storage": {
        "base": "t_struct(_Order)1250_storage",
        "encoding": "dynamic_array",
        "label": "struct Exchange._Order[]",
        "numberOfBytes": "32"
      },
      "t_array(t_struct(_filledOrder)1257_storage)dyn_storage": {
        "base": "t_struct(_filledOrder)1257_storage",
        "encoding": "dynamic_array",
        "label": "struct Exchange._filledOrder[]",
        "numberOfBytes": "32"
      },
      "t_bool": {
        "encoding": "inplace",
        "label": "bool",
        "numberOfBytes": "1"
      },
      "t_enum(Side)1260": {
        "encoding": "inplace",
        "label": "enum Exchange.Side",
        "numberOfBytes": "1"
      },
      "t_mapping(t_address,t_mapping(t_address,t_uint256))": {
        "encoding": "mapping",
        "key": "t_address",
        "label": "mapping(address => mapping(address => uint256))",
        "numberOfBytes": "32",
        "value": "t_mapping(t_address,t_uint256)"
      },
      "t_mapping(t_address,t_mapping(t_uint256,t_array(t_struct(_Order)1250_storage)dyn_storage))": {
        "encoding": "mapping",
        "key": "t_address",
        "label": "mapping(address => mapping(uint256 => struct Exchange._Order[]))",
        "numberOfBytes": "32",
        "value": "t_mapping(t_uint256,t_array(t_struct(_Order)1250_storage)dyn_storage)"
      },
      "t_mapping(t_address,t_uint256)": {
        "encoding": "mapping",
        "key": "t_address",
        "label": "mapping(address => uint256)",
        "numberOfBytes": "32",
        "value": "t_uint256"
      },
      "t_mapping(t_uint256,t_array(t_struct(_Order)1250_storage)dyn_storage)": {
        "encoding": "mapping",
        "key": "t_uint256",
        "label": "mapping(uint256 => struct Exchange._Order[])",
        "numberOfBytes": "32",
        "value": "t_array(t_struct(_Order)1250_storage)dyn_storage"
      },
      "t_struct(_Order)1250_storage": {
        "encoding": "inplace",
        "label": "struct Exchange._Order",
        "members": [
          {
            "astId": 1238,
            "contract": "contracts/Exchange.sol:Exchange",
            "label": "id",
            "offset": 0,
            "slot": "0",
            "type": "t_uint256"
          },
          {
            "astId": 1240,
            "contract": "contracts/Exchange.sol:Exchange",
            "label": "user",
            "offset": 0,
            "slot": "1",
            "type": "t_address"
          },
          {
            "astId": 1242,
            "contract": "contracts/Exchange.sol:Exchange",
            "label": "token",
            "offset": 0,
            "slot": "2",
            "type": "t_address"
          },
          {
            "astId": 1244,
            "contract": "contracts/Exchange.sol:Exchange",
            "label": "amount",
            "offset": 0,
            "slot": "3",
            "type": "t_uint256"
          },
          {
            "astId": 1246,
            "contract": "contracts/Exchange.sol:Exchange",
            "label": "price",
            "offset": 0,
            "slot": "4",
            "type": "t_uint256"
          },
          {
            "astId": 1249,
            "contract": "contracts/Exchange.sol:Exchange",
            "label": "side",
            "offset": 0,
            "slot": "5",
            "type": "t_enum(Side)1260"
          }
        ],
        "numberOfBytes": "192"
      },
      "t_struct(_filledOrder)1257_storage": {
        "encoding": "inplace",
        "label": "struct Exchange._filledOrder",
        "members": [
          {
            "astId": 1253,
            "contract": "contracts/Exchange.sol:Exchange",
            "label": "side",
            "offset": 0,
            "slot": "0",
            "type": "t_enum(Side)1260"
          },
          {
            "astId": 1256,
            "contract": "contracts/Exchange.sol:Exchange",
            "label": "order",
            "offset": 0,
            "slot": "1",
            "type": "t_struct(_Order)1250_storage"
          }
        ],
        "numberOfBytes": "224"
      },
      "t_uint256": {
        "encoding": "inplace",
        "label": "uint256",
        "numberOfBytes": "32"
      }
    }
  }
}