{
  "address": "0xB0f05d25e41FbC2b52013099ED9616f1206Ae21B",
  "abi": [
    {
      "inputs": [
        {
          "internalType": "address",
          "name": "_usdc",
          "type": "address"
        }
      ],
      "stateMutability": "nonpayable",
      "type": "constructor"
    },
    {
      "anonymous": false,
      "inputs": [
        {
          "indexed": false,
          "internalType": "uint256",
          "name": "id",
          "type": "uint256"
        },
        {
          "indexed": false,
          "internalType": "address",
          "name": "user",
          "type": "address"
        },
        {
          "indexed": false,
          "internalType": "address",
          "name": "token",
          "type": "address"
        },
        {
          "indexed": false,
          "internalType": "uint256",
          "name": "amount",
          "type": "uint256"
        },
        {
          "indexed": false,
          "internalType": "uint256",
          "name": "price",
          "type": "uint256"
        }
      ],
      "name": "Cancel",
      "type": "event"
    },
    {
      "anonymous": false,
      "inputs": [
        {
          "indexed": false,
          "internalType": "uint256",
          "name": "id",
          "type": "uint256"
        },
        {
          "indexed": false,
          "internalType": "address",
          "name": "user",
          "type": "address"
        },
        {
          "indexed": false,
          "internalType": "address",
          "name": "token",
          "type": "address"
        },
        {
          "indexed": false,
          "internalType": "uint256",
          "name": "amount",
          "type": "uint256"
        },
        {
          "indexed": false,
          "internalType": "uint256",
          "name": "price",
          "type": "uint256"
        }
      ],
      "name": "Fill",
      "type": "event"
    },
    {
      "anonymous": false,
      "inputs": [
        {
          "indexed": false,
          "internalType": "uint256",
          "name": "id",
          "type": "uint256"
        },
        {
          "indexed": false,
          "internalType": "address",
          "name": "user",
          "type": "address"
        },
        {
          "indexed": false,
          "internalType": "address",
          "name": "token",
          "type": "address"
        },
        {
          "indexed": false,
          "internalType": "uint256",
          "name": "amount",
          "type": "uint256"
        },
        {
          "indexed": false,
          "internalType": "uint256",
          "name": "price",
          "type": "uint256"
        },
        {
          "indexed": false,
          "internalType": "enum Exchange.Side",
          "name": "side",
          "type": "uint8"
        }
      ],
      "name": "Order",
      "type": "event"
    },
    {
      "anonymous": false,
      "inputs": [
        {
          "indexed": true,
          "internalType": "address",
          "name": "previousOwner",
          "type": "address"
        },
        {
          "indexed": true,
          "internalType": "address",
          "name": "newOwner",
          "type": "address"
        }
      ],
      "name": "OwnershipTransferred",
      "type": "event"
    },
    {
      "inputs": [],
      "name": "Owner",
      "outputs": [
        {
          "internalType": "address",
          "name": "",
          "type": "address"
        }
      ],
      "stateMutability": "view",
      "type": "function"
    },
    {
      "inputs": [
        {
          "internalType": "address",
          "name": "_token",
          "type": "address"
        }
      ],
      "name": "addToken",
      "outputs": [],
      "stateMutability": "nonpayable",
      "type": "function"
    },
    {
      "inputs": [
        {
          "internalType": "address",
          "name": "_token",
          "type": "address"
        },
        {
          "internalType": "address",
          "name": "_user",
          "type": "address"
        }
      ],
      "name": "balanceOf",
      "outputs": [
        {
          "internalType": "uint256",
          "name": "",
          "type": "uint256"
        }
      ],
      "stateMutability": "view",
      "type": "function"
    },
    {
      "inputs": [
        {
          "internalType": "enum Exchange.Side",
          "name": "side",
          "type": "uint8"
        },
        {
          "internalType": "uint256",
          "name": "_id",
          "type": "uint256"
        },
        {
          "internalType": "address",
          "name": "_token",
          "type": "address"
        }
      ],
      "name": "cancelOrder",
      "outputs": [],
      "stateMutability": "nonpayable",
      "type": "function"
    },
    {
      "inputs": [
        {
          "internalType": "address",
          "name": "_token",
          "type": "address"
        },
        {
          "internalType": "uint256",
          "name": "_amount",
          "type": "uint256"
        },
        {
          "internalType": "uint256",
          "name": "_price",
          "type": "uint256"
        }
      ],
      "name": "createLimitBuyOrder",
      "outputs": [],
      "stateMutability": "nonpayable",
      "type": "function"
    },
    {
      "inputs": [
        {
          "internalType": "address",
          "name": "_token",
          "type": "address"
        },
        {
          "internalType": "uint256",
          "name": "_amount",
          "type": "uint256"
        },
        {
          "internalType": "uint256",
          "name": "_price",
          "type": "uint256"
        }
      ],
      "name": "createLimitSellOrder",
      "outputs": [],
      "stateMutability": "nonpayable",
      "type": "function"
    },
    {
      "inputs": [],
      "name": "ethToken",
      "outputs": [
        {
          "internalType": "address",
          "name": "",
          "type": "address"
        }
      ],
      "stateMutability": "view",
      "type": "function"
    },
    {
      "inputs": [
        {
          "internalType": "enum Exchange.Side",
          "name": "side",
          "type": "uint8"
        },
        {
          "internalType": "uint256",
          "name": "_id",
          "type": "uint256"
        },
        {
          "internalType": "address",
          "name": "_token",
          "type": "address"
        },
        {
          "internalType": "uint256",
          "name": "_amount",
          "type": "uint256"
        },
        {
          "internalType": "uint256",
          "name": "_price",
          "type": "uint256"
        }
      ],
      "name": "fillOrder",
      "outputs": [],
      "stateMutability": "nonpayable",
      "type": "function"
    },
    {
      "inputs": [
        {
          "internalType": "address",
          "name": "_user",
          "type": "address"
        },
        {
          "internalType": "uint256",
          "name": "index",
          "type": "uint256"
        }
      ],
      "name": "getFilledOrder",
      "outputs": [
        {
          "internalType": "uint256",
          "name": "",
          "type": "uint256"
        },
        {
          "internalType": "uint256",
          "name": "",
          "type": "uint256"
        },
        {
          "internalType": "address",
          "name": "",
          "type": "address"
        },
        {
          "internalType": "uint256",
          "name": "",
          "type": "uint256"
        },
        {
          "internalType": "uint256",
          "name": "",
          "type": "uint256"
        }
      ],
      "stateMutability": "view",
      "type": "function"
    },
    {
      "inputs": [
        {
          "internalType": "address",
          "name": "_user",
          "type": "address"
        }
      ],
      "name": "getFilledOrderLength",
      "outputs": [
        {
          "internalType": "uint256",
          "name": "",
          "type": "uint256"
        }
      ],
      "stateMutability": "view",
      "type": "function"
    },
    {
      "inputs": [
        {
          "internalType": "address",
          "name": "_token",
          "type": "address"
        },
        {
          "internalType": "uint256",
          "name": "index",
          "type": "uint256"
        },
        {
          "internalType": "enum Exchange.Side",
          "name": "side",
          "type": "uint8"
        }
      ],
      "name": "getOrder",
      "outputs": [
        {
          "internalType": "uint256",
          "name": "",
          "type": "uint256"
        },
        {
          "internalType": "uint256",
          "name": "",
          "type": "uint256"
        },
        {
          "internalType": "address",
          "name": "",
          "type": "address"
        },
        {
          "internalType": "uint256",
          "name": "",
          "type": "uint256"
        },
        {
          "internalType": "uint256",
          "name": "",
          "type": "uint256"
        }
      ],
      "stateMutability": "view",
      "type": "function"
    },
    {
      "inputs": [
        {
          "components": [
            {
              "internalType": "uint256",
              "name": "id",
              "type": "uint256"
            },
            {
              "internalType": "address",
              "name": "user",
              "type": "address"
            },
            {
              "internalType": "address",
              "name": "token",
              "type": "address"
            },
            {
              "internalType": "uint256",
              "name": "amount",
              "type": "uint256"
            },
            {
              "internalType": "uint256",
              "name": "price",
              "type": "uint256"
            },
            {
              "internalType": "enum Exchange.Side",
              "name": "side",
              "type": "uint8"
            }
          ],
          "internalType": "struct Exchange._Order[]",
          "name": "_order",
          "type": "tuple[]"
        },
        {
          "internalType": "uint256",
          "name": "_id",
          "type": "uint256"
        }
      ],
      "name": "getOrderFromArray",
      "outputs": [
        {
          "components": [
            {
              "internalType": "uint256",
              "name": "id",
              "type": "uint256"
            },
            {
              "internalType": "address",
              "name": "user",
              "type": "address"
            },
            {
              "internalType": "address",
              "name": "token",
              "type": "address"
            },
            {
              "internalType": "uint256",
              "name": "amount",
              "type": "uint256"
            },
            {
              "internalType": "uint256",
              "name": "price",
              "type": "uint256"
            },
            {
              "internalType": "enum Exchange.Side",
              "name": "side",
              "type": "uint8"
            }
          ],
          "internalType": "struct Exchange._Order",
          "name": "",
          "type": "tuple"
        }
      ],
      "stateMutability": "pure",
      "type": "function"
    },
    {
      "inputs": [
        {
          "internalType": "enum Exchange.Side",
          "name": "side",
          "type": "uint8"
        },
        {
          "internalType": "address",
          "name": "_token",
          "type": "address"
        }
      ],
      "name": "getOrderLength",
      "outputs": [
        {
          "internalType": "uint256",
          "name": "",
          "type": "uint256"
        }
      ],
      "stateMutability": "view",
      "type": "function"
    },
    {
      "inputs": [
        {
          "internalType": "address",
          "name": "_user",
          "type": "address"
        },
        {
          "internalType": "address",
          "name": "_token",
          "type": "address"
        }
      ],
      "name": "getlockedFunds",
      "outputs": [
        {
          "internalType": "uint256",
          "name": "",
          "type": "uint256"
        }
      ],
      "stateMutability": "view",
      "type": "function"
    },
    {
      "inputs": [
        {
          "internalType": "address",
          "name": "_token",
          "type": "address"
        }
      ],
      "name": "isVerifiedToken",
      "outputs": [
        {
          "internalType": "bool",
          "name": "",
          "type": "bool"
        }
      ],
      "stateMutability": "view",
      "type": "function"
    },
    {
      "inputs": [
        {
          "internalType": "address",
          "name": "",
          "type": "address"
        },
        {
          "internalType": "address",
          "name": "",
          "type": "address"
        }
      ],
      "name": "lockedFunds",
      "outputs": [
        {
          "internalType": "uint256",
          "name": "",
          "type": "uint256"
        }
      ],
      "stateMutability": "view",
      "type": "function"
    },
    {
      "inputs": [
        {
          "internalType": "address",
          "name": "_token",
          "type": "address"
        },
        {
          "internalType": "uint256",
          "name": "_id",
          "type": "uint256"
        },
        {
          "internalType": "enum Exchange.Side",
          "name": "side",
          "type": "uint8"
        }
      ],
      "name": "matchOrders",
      "outputs": [],
      "stateMutability": "nonpayable",
      "type": "function"
    },
    {
      "inputs": [
        {
          "internalType": "uint256",
          "name": "_id",
          "type": "uint256"
        },
        {
          "internalType": "enum Exchange.Side",
          "name": "side",
          "type": "uint8"
        },
        {
          "internalType": "address",
          "name": "_token",
          "type": "address"
        }
      ],
      "name": "orderExists",
      "outputs": [
        {
          "internalType": "bool",
          "name": "",
          "type": "bool"
        }
      ],
      "stateMutability": "view",
      "type": "function"
    },
    {
      "inputs": [],
      "name": "owner",
      "outputs": [
        {
          "internalType": "address",
          "name": "",
          "type": "address"
        }
      ],
      "stateMutability": "view",
      "type": "function"
    },
    {
      "inputs": [],
      "name": "renounceOwnership",
      "outputs": [],
      "stateMutability": "nonpayable",
      "type": "function"
    },
    {
      "inputs": [
        {
          "internalType": "address",
          "name": "",
          "type": "address"
        },
        {
          "internalType": "uint256",
          "name": "",
          "type": "uint256"
        }
      ],
      "name": "s_filledOrders",
      "outputs": [
        {
          "internalType": "uint256",
          "name": "id",
          "type": "uint256"
        },
        {
          "internalType": "address",
          "name": "user",
          "type": "address"
        },
        {
          "internalType": "address",
          "name": "token",
          "type": "address"
        },
        {
          "internalType": "uint256",
          "name": "amount",
          "type": "uint256"
        },
        {
          "internalType": "uint256",
          "name": "price",
          "type": "uint256"
        },
        {
          "internalType": "enum Exchange.Side",
          "name": "side",
          "type": "uint8"
        }
      ],
      "stateMutability": "view",
      "type": "function"
    },
    {
      "inputs": [
        {
          "internalType": "address",
          "name": "",
          "type": "address"
        },
        {
          "internalType": "uint256",
          "name": "",
          "type": "uint256"
        },
        {
          "internalType": "uint256",
          "name": "",
          "type": "uint256"
        }
      ],
      "name": "s_orderBook",
      "outputs": [
        {
          "internalType": "uint256",
          "name": "id",
          "type": "uint256"
        },
        {
          "internalType": "address",
          "name": "user",
          "type": "address"
        },
        {
          "internalType": "address",
          "name": "token",
          "type": "address"
        },
        {
          "internalType": "uint256",
          "name": "amount",
          "type": "uint256"
        },
        {
          "internalType": "uint256",
          "name": "price",
          "type": "uint256"
        },
        {
          "internalType": "enum Exchange.Side",
          "name": "side",
          "type": "uint8"
        }
      ],
      "stateMutability": "view",
      "type": "function"
    },
    {
      "inputs": [],
      "name": "s_orderId",
      "outputs": [
        {
          "internalType": "uint256",
          "name": "",
          "type": "uint256"
        }
      ],
      "stateMutability": "view",
      "type": "function"
    },
    {
      "inputs": [
        {
          "internalType": "address",
          "name": "",
          "type": "address"
        },
        {
          "internalType": "address",
          "name": "",
          "type": "address"
        }
      ],
      "name": "s_tokens",
      "outputs": [
        {
          "internalType": "uint256",
          "name": "",
          "type": "uint256"
        }
      ],
      "stateMutability": "view",
      "type": "function"
    },
    {
      "inputs": [
        {
          "internalType": "uint256",
          "name": "",
          "type": "uint256"
        }
      ],
      "name": "tokenList",
      "outputs": [
        {
          "internalType": "address",
          "name": "",
          "type": "address"
        }
      ],
      "stateMutability": "view",
      "type": "function"
    },
    {
      "inputs": [
        {
          "internalType": "address",
          "name": "newOwner",
          "type": "address"
        }
      ],
      "name": "transferOwnership",
      "outputs": [],
      "stateMutability": "nonpayable",
      "type": "function"
    },
    {
      "inputs": [
        {
          "internalType": "address",
          "name": "_token",
          "type": "address"
        },
        {
          "internalType": "address",
          "name": "_user",
          "type": "address"
        },
        {
          "internalType": "uint256",
          "name": "_amount",
          "type": "uint256"
        },
        {
          "internalType": "bool",
          "name": "isAdd",
          "type": "bool"
        }
      ],
      "name": "updateBalance",
      "outputs": [],
      "stateMutability": "nonpayable",
      "type": "function"
    },
    {
      "inputs": [
        {
          "internalType": "address",
          "name": "_user",
          "type": "address"
        },
        {
          "internalType": "address",
          "name": "_token",
          "type": "address"
        },
        {
          "internalType": "uint256",
          "name": "_amount",
          "type": "uint256"
        },
        {
          "internalType": "bool",
          "name": "isAdd",
          "type": "bool"
        }
      ],
      "name": "updateLockedFunds",
      "outputs": [],
      "stateMutability": "nonpayable",
      "type": "function"
    }
  ],
  "transactionHash": "0xcea1e87870565648142d57e3bd68e9370c01f25a2c4cc2f7ef8dca78b6e2f4bd",
  "args": [
    "0xCA8c8688914e0F7096c920146cd0Ad85cD7Ae8b9"
  ],
  "numDeployments": 1,
  "solcInputHash": "30535f268c630507efd0d6ad3941b7af",
  "bytecode": "0x60a06040526000600260006101000a81548173ffffffffffffffffffffffffffffffffffffffff021916908373ffffffffffffffffffffffffffffffffffffffff160217905550670de0b6b3a764000060035560006009556001600a60006101000a81548160ff0219169083151502179055503480156200007f57600080fd5b5060405162005594380380620055948339818101604052810190620000a5919062000517565b620000c5620000b9620001aa60201b60201c565b620001b260201b60201c565b80600160006101000a81548173ffffffffffffffffffffffffffffffffffffffff021916908373ffffffffffffffffffffffffffffffffffffffff16021790555062000139600160009054906101000a900473ffffffffffffffffffffffffffffffffffffffff166200027660201b60201c565b6200016c600260009054906101000a900473ffffffffffffffffffffffffffffffffffffffff166200027660201b60201c565b3373ffffffffffffffffffffffffffffffffffffffff1660808173ffffffffffffffffffffffffffffffffffffffff1660601b815250505062000747565b600033905090565b60008060009054906101000a900473ffffffffffffffffffffffffffffffffffffffff169050816000806101000a81548173ffffffffffffffffffffffffffffffffffffffff021916908373ffffffffffffffffffffffffffffffffffffffff1602179055508173ffffffffffffffffffffffffffffffffffffffff168173ffffffffffffffffffffffffffffffffffffffff167f8be0079c531659141344cd1fd0a4f28419497f9722a3daafe3b4186f6b6457e060405160405180910390a35050565b620002866200044660201b60201c565b600060048054806020026020016040519081016040528092919081815260200182805480156200030c57602002820191906000526020600020905b8160009054906101000a900473ffffffffffffffffffffffffffffffffffffffff1673ffffffffffffffffffffffffffffffffffffffff1681526020019060010190808311620002c1575b505050505090506000805b825181101562000393578373ffffffffffffffffffffffffffffffffffffffff168382815181106200034e576200034d620006a7565b5b602002602001015173ffffffffffffffffffffffffffffffffffffffff1614156200037d576001915062000393565b80806200038a906200062a565b91505062000317565b506000151581151514620003de576040517f08c379a0000000000000000000000000000000000000000000000000000000008152600401620003d59062000597565b60405180910390fd5b6004839080600181540180825580915050600190039060005260206000200160009091909190916101000a81548173ffffffffffffffffffffffffffffffffffffffff021916908373ffffffffffffffffffffffffffffffffffffffff160217905550505050565b62000456620001aa60201b60201c565b73ffffffffffffffffffffffffffffffffffffffff166200047c620004d760201b60201c565b73ffffffffffffffffffffffffffffffffffffffff1614620004d5576040517f08c379a0000000000000000000000000000000000000000000000000000000008152600401620004cc90620005b9565b60405180910390fd5b565b60008060009054906101000a900473ffffffffffffffffffffffffffffffffffffffff16905090565b60008151905062000511816200072d565b92915050565b60006020828403121562000530576200052f620006d6565b5b6000620005408482850162000500565b91505092915050565b600062000558601e83620005db565b91506200056582620006db565b602082019050919050565b60006200057f602083620005db565b91506200058c8262000704565b602082019050919050565b60006020820190508181036000830152620005b28162000549565b9050919050565b60006020820190508181036000830152620005d48162000570565b9050919050565b600082825260208201905092915050565b6000620005f98262000600565b9050919050565b600073ffffffffffffffffffffffffffffffffffffffff82169050919050565b6000819050919050565b6000620006378262000620565b91507fffffffffffffffffffffffffffffffffffffffffffffffffffffffffffffffff8214156200066d576200066c62000678565b5b600182019050919050565b7f4e487b7100000000000000000000000000000000000000000000000000000000600052601160045260246000fd5b7f4e487b7100000000000000000000000000000000000000000000000000000000600052603260045260246000fd5b600080fd5b7f546f6b656e20616c7265616479207665726966696564206f6e20444558210000600082015250565b7f4f776e61626c653a2063616c6c6572206973206e6f7420746865206f776e6572600082015250565b6200073881620005ec565b81146200074457600080fd5b50565b60805160601c614e2e6200076660003960006130bd0152614e2e6000f3fe608060405234801561001057600080fd5b50600436106101c45760003560e01c80638da5cb5b116100f9578063cd5d767c11610097578063e947a69511610071578063e947a69514610548578063f2fde38b14610578578063f7888aec14610594578063f9242d9a146105c4576101c4565b8063cd5d767c146104c8578063d48bfca7146104f8578063da55ac2114610514576101c4565b80639ead7222116100d35780639ead72221461042e578063a694ccf11461045e578063b4a99a4e1461048e578063c5ab4602146104ac576101c4565b80638da5cb5b146103d65780639bb08f7c146103f45780639c07ce2614610410576101c4565b80634fc121db1161016657806375c1cea21161014057806375c1cea2146103385780637bf1a6271461035457806382954685146103725780638879a9d3146103a2576101c4565b80634fc121db146102e257806350b08f5e14610312578063715018a61461032e576101c4565b80632061da58116101a25780632061da581461024557806325faf3391461026157806346a8f820146102965780634bdde1cf146102b2576101c4565b80631027b219146101c95780631347d60e146101f9578063182cffeb14610215575b600080fd5b6101e360048036038101906101de9190613e96565b6105f9565b6040516101f091906144dd565b60405180910390f35b610213600480360381019061020e91906140ec565b6106ab565b005b61022f600480360381019061022a91906141e7565b610e59565b60405161023c91906144dd565b60405180910390f35b61025f600480360381019061025a9190613ffd565b611079565b005b61027b60048036038101906102769190613f6a565b6113fa565b60405161028d96959493929190614701565b60405180910390f35b6102b060048036038101906102ab9190613f03565b6114a0565b005b6102cc60048036038101906102c79190613ec3565b6116d6565b6040516102d99190614693565b60405180910390f35b6102fc60048036038101906102f79190613ec3565b6116fb565b6040516103099190614693565b60405180910390f35b61032c60048036038101906103279190613faa565b611782565b005b61033661246e565b005b610352600480360381019061034d9190613ffd565b612482565b005b61035c61289d565b60405161036991906144c2565b60405180910390f35b61038c60048036038101906103879190613e96565b6128c3565b6040516103999190614693565b60405180910390f35b6103bc60048036038101906103b79190613faa565b61290f565b6040516103cd959493929190614762565b60405180910390f35b6103de612aed565b6040516103eb91906144c2565b60405180910390f35b61040e6004803603810190610409919061413f565b612b16565b005b610418612ff4565b6040516104259190614693565b60405180910390f35b610448600480360381019061044391906141ba565b612ffa565b60405161045591906144c2565b60405180910390f35b61047860048036038101906104739190614050565b613039565b6040516104859190614678565b60405180910390f35b6104966130bb565b6040516104a391906144c2565b60405180910390f35b6104c660048036038101906104c19190613f03565b6130df565b005b6104e260048036038101906104dd9190613ec3565b613315565b6040516104ef9190614693565b60405180910390f35b610512600480360381019061050d9190613e96565b61333a565b005b61052e60048036038101906105299190613f6a565b6134f4565b60405161053f959493929190614762565b60405180910390f35b610562600480360381019061055d91906140ac565b6136ae565b60405161056f9190614693565b60405180910390f35b610592600480360381019061058d9190613e96565b61371e565b005b6105ae60048036038101906105a99190613ec3565b6137a2565b6040516105bb9190614693565b60405180910390f35b6105de60048036038101906105d99190613ffd565b613829565b6040516105f096959493929190614701565b60405180910390f35b600080600480549050905060005b8181101561069f578373ffffffffffffffffffffffffffffffffffffffff166004828154811061063a57610639614acf565b5b9060005260206000200160009054906101000a900473ffffffffffffffffffffffffffffffffffffffff1673ffffffffffffffffffffffffffffffffffffffff16141561068c576001925050506106a6565b8080610697906149ca565b915050610607565b5060009150505b919050565b600082101580156106be57506009548211155b6106fd576040517f08c379a00000000000000000000000000000000000000000000000000000000081526004016106f490614518565b60405180910390fd5b610706816105f9565b610745576040517f08c379a000000000000000000000000000000000000000000000000000000000815260040161073c90614558565b60405180910390fd5b6000600560008373ffffffffffffffffffffffffffffffffffffffff1673ffffffffffffffffffffffffffffffffffffffff168152602001908152602001600020600085600181111561079b5761079a614a71565b5b815260200190815260200160002090506000818054905090506107bc613a7e565b600080600090505b8381101561094657868582815481106107e0576107df614acf565b5b90600052602060002090600602016000015414156109335780915084818154811061080e5761080d614acf565b5b90600052602060002090600602016040518060c0016040529081600082015481526020016001820160009054906101000a900473ffffffffffffffffffffffffffffffffffffffff1673ffffffffffffffffffffffffffffffffffffffff1673ffffffffffffffffffffffffffffffffffffffff1681526020016002820160009054906101000a900473ffffffffffffffffffffffffffffffffffffffff1673ffffffffffffffffffffffffffffffffffffffff1673ffffffffffffffffffffffffffffffffffffffff16815260200160038201548152602001600482015481526020016005820160009054906101000a900460ff16600181111561091657610915614a71565b5b600181111561092857610927614a71565b5b815250509250610946565b808061093e906149ca565b9150506107c4565b50600a60009054906101000a900460ff1615610a9d57816020015173ffffffffffffffffffffffffffffffffffffffff163373ffffffffffffffffffffffffffffffffffffffff16146109ce576040517f08c379a00000000000000000000000000000000000000000000000000000000081526004016109c5906145b8565b60405180910390fd5b600060018111156109e2576109e1614a71565b5b8760018111156109f5576109f4614a71565b5b1415610a5d57610a5833600160009054906101000a900473ffffffffffffffffffffffffffffffffffffffff16610a51600354610a43876060015188608001516138dc90919063ffffffff16565b6138f290919063ffffffff16565b60006114a0565b610a9c565b600180811115610a7057610a6f614a71565b5b876001811115610a8357610a82614a71565b5b1415610a9b57610a9a3386846060015160006114a0565b5b5b5b60008190505b600184610ab091906148f8565b811015610c445784600182610ac59190614817565b81548110610ad657610ad5614acf565b5b9060005260206000209060060201858281548110610af757610af6614acf565b5b9060005260206000209060060201600082015481600001556001820160009054906101000a900473ffffffffffffffffffffffffffffffffffffffff168160010160006101000a81548173ffffffffffffffffffffffffffffffffffffffff021916908373ffffffffffffffffffffffffffffffffffffffff1602179055506002820160009054906101000a900473ffffffffffffffffffffffffffffffffffffffff168160020160006101000a81548173ffffffffffffffffffffffffffffffffffffffff021916908373ffffffffffffffffffffffffffffffffffffffff16021790555060038201548160030155600482015481600401556005820160009054906101000a900460ff168160050160006101000a81548160ff02191690836001811115610c2957610c28614a71565b5b02179055509050508080610c3c906149ca565b915050610aa3565b5083600184610c5391906148f8565b81548110610c6457610c63614acf565b5b90600052602060002090600602016000808201600090556001820160006101000a81549073ffffffffffffffffffffffffffffffffffffffff02191690556002820160006101000a81549073ffffffffffffffffffffffffffffffffffffffff0219169055600382016000905560048201600090556005820160006101000a81549060ff0219169055505083805480610d0057610cff614aa0565b5b60019003818190600052602060002090600602016000808201600090556001820160006101000a81549073ffffffffffffffffffffffffffffffffffffffff02191690556002820160006101000a81549073ffffffffffffffffffffffffffffffffffffffff0219169055600382016000905560048201600090556005820160006101000a81549060ff02191690555050905583600560008773ffffffffffffffffffffffffffffffffffffffff1673ffffffffffffffffffffffffffffffffffffffff1681526020019081526020016000206000896001811115610de857610de7614a71565b5b8152602001908152602001600020908054610e04929190613af2565b507fca5fbf354151ee18d2ff58712c9ed7be34397aa5983abfaf40e2d8485867d9668260000151338785606001518660800151604051610e489594939291906146ae565b60405180910390a150505050505050565b600080600560008473ffffffffffffffffffffffffffffffffffffffff1673ffffffffffffffffffffffffffffffffffffffff1681526020019081526020016000206000856001811115610eb057610eaf614a71565b5b8152602001908152602001600020805480602002602001604051908101604052809291908181526020016000905b8282101561101557838290600052602060002090600602016040518060c0016040529081600082015481526020016001820160009054906101000a900473ffffffffffffffffffffffffffffffffffffffff1673ffffffffffffffffffffffffffffffffffffffff1673ffffffffffffffffffffffffffffffffffffffff1681526020016002820160009054906101000a900473ffffffffffffffffffffffffffffffffffffffff1673ffffffffffffffffffffffffffffffffffffffff1673ffffffffffffffffffffffffffffffffffffffff16815260200160038201548152602001600482015481526020016005820160009054906101000a900460ff166001811115610ff057610fef614a71565b5b600181111561100257611001614a71565b5b8152505081526020019060010190610ede565b50505050905060005b815181101561106b578582828151811061103b5761103a614acf565b5b602002602001015160000151141561105857600192505050611072565b8080611063906149ca565b91505061101e565b5060009150505b9392505050565b611082836105f9565b6110c1576040517f08c379a00000000000000000000000000000000000000000000000000000000081526004016110b890614558565b60405180910390fd5b600160009054906101000a900473ffffffffffffffffffffffffffffffffffffffff1673ffffffffffffffffffffffffffffffffffffffff168373ffffffffffffffffffffffffffffffffffffffff161415611152576040517f08c379a000000000000000000000000000000000000000000000000000000000815260040161114990614638565b60405180910390fd5b8161115d33856116fb565b61116785336137a2565b61117191906148f8565b10156111b2576040517f08c379a00000000000000000000000000000000000000000000000000000000081526004016111a990614658565b60405180910390fd5b6111bf33848460016114a0565b600560008473ffffffffffffffffffffffffffffffffffffffff1673ffffffffffffffffffffffffffffffffffffffff168152602001908152602001600020600060018081111561121357611212614a71565b5b81526020019081526020016000206040518060c0016040528060095481526020013373ffffffffffffffffffffffffffffffffffffffff1681526020018573ffffffffffffffffffffffffffffffffffffffff16815260200184815260200183815260200160018081111561128b5761128a614a71565b5b81525090806001815401808255809150506001900390600052602060002090600602016000909190919091506000820151816000015560208201518160010160006101000a81548173ffffffffffffffffffffffffffffffffffffffff021916908373ffffffffffffffffffffffffffffffffffffffff16021790555060408201518160020160006101000a81548173ffffffffffffffffffffffffffffffffffffffff021916908373ffffffffffffffffffffffffffffffffffffffff160217905550606082015181600301556080820151816004015560a08201518160050160006101000a81548160ff0219169083600181111561138e5761138d614a71565b5b021790555050507f95f7e844715189eed0317d8f771c63ce13ec6364f48022f3db86baf8ce584b956009543385858560016040516113d196959493929190614701565b60405180910390a16113ef600160095461390890919063ffffffff16565b600981905550505050565b6008602052816000526040600020818154811061141657600080fd5b9060005260206000209060060201600091509150508060000154908060010160009054906101000a900473ffffffffffffffffffffffffffffffffffffffff16908060020160009054906101000a900473ffffffffffffffffffffffffffffffffffffffff16908060030154908060040154908060050160009054906101000a900460ff16905086565b80156115ba5761153582600760008773ffffffffffffffffffffffffffffffffffffffff1673ffffffffffffffffffffffffffffffffffffffff16815260200190815260200160002060008673ffffffffffffffffffffffffffffffffffffffff1673ffffffffffffffffffffffffffffffffffffffff1681526020019081526020016000205461390890919063ffffffff16565b600760008673ffffffffffffffffffffffffffffffffffffffff1673ffffffffffffffffffffffffffffffffffffffff16815260200190815260200160002060008573ffffffffffffffffffffffffffffffffffffffff1673ffffffffffffffffffffffffffffffffffffffff168152602001908152602001600020819055506116d0565b806116cf5761164e82600760008773ffffffffffffffffffffffffffffffffffffffff1673ffffffffffffffffffffffffffffffffffffffff16815260200190815260200160002060008673ffffffffffffffffffffffffffffffffffffffff1673ffffffffffffffffffffffffffffffffffffffff1681526020019081526020016000205461391e90919063ffffffff16565b600760008673ffffffffffffffffffffffffffffffffffffffff1673ffffffffffffffffffffffffffffffffffffffff16815260200190815260200160002060008573ffffffffffffffffffffffffffffffffffffffff1673ffffffffffffffffffffffffffffffffffffffff168152602001908152602001600020819055505b5b50505050565b6007602052816000526040600020602052806000526040600020600091509150505481565b6000600760008473ffffffffffffffffffffffffffffffffffffffff1673ffffffffffffffffffffffffffffffffffffffff16815260200190815260200160002060008373ffffffffffffffffffffffffffffffffffffffff1673ffffffffffffffffffffffffffffffffffffffff16815260200190815260200160002054905092915050565b600061178d846105f9565b6117cc576040517f08c379a00000000000000000000000000000000000000000000000000000000081526004016117c390614558565b60405180910390fd5b600083101580156117df57506009548311155b6117e857600080fd5b600060018111156117fc576117fb614a71565b5b82600181111561180f5761180e614a71565b5b1415611e2a576000600560008673ffffffffffffffffffffffffffffffffffffffff1673ffffffffffffffffffffffffffffffffffffffff1681526020019081526020016000206000808152602001908152602001600020805480602002602001604051908101604052809291908181526020016000905b828210156119be57838290600052602060002090600602016040518060c0016040529081600082015481526020016001820160009054906101000a900473ffffffffffffffffffffffffffffffffffffffff1673ffffffffffffffffffffffffffffffffffffffff1673ffffffffffffffffffffffffffffffffffffffff1681526020016002820160009054906101000a900473ffffffffffffffffffffffffffffffffffffffff1673ffffffffffffffffffffffffffffffffffffffff1673ffffffffffffffffffffffffffffffffffffffff16815260200160038201548152602001600482015481526020016005820160009054906101000a900460ff16600181111561199957611998614a71565b5b60018111156119ab576119aa614a71565b5b8152505081526020019060010190611887565b50505050905060006119d08286613039565b90506000600560008873ffffffffffffffffffffffffffffffffffffffff1673ffffffffffffffffffffffffffffffffffffffff168152602001908152602001600020600060018152602001908152602001600020805480602002602001604051908101604052809291908181526020016000905b82821015611b7c57838290600052602060002090600602016040518060c0016040529081600082015481526020016001820160009054906101000a900473ffffffffffffffffffffffffffffffffffffffff1673ffffffffffffffffffffffffffffffffffffffff1673ffffffffffffffffffffffffffffffffffffffff1681526020016002820160009054906101000a900473ffffffffffffffffffffffffffffffffffffffff1673ffffffffffffffffffffffffffffffffffffffff1673ffffffffffffffffffffffffffffffffffffffff16815260200160038201548152602001600482015481526020016005820160009054906101000a900460ff166001811115611b5757611b56614a71565b5b6001811115611b6957611b68614a71565b5b8152505081526020019060010190611a45565b50505050905060005b8151811015611e21578260800151828281518110611ba657611ba5614acf565b5b60200260200101516080015111611dfc576000828281518110611bcc57611bcb614acf565b5b60200260200101519050806060015184606001511115611bf25780606001519550611c0a565b8060600151846060015111611c0957836060015195505b5b611c35600354611c278360800151896138dc90919063ffffffff16565b6138f290919063ffffffff16565b611c65600160009054906101000a900473ffffffffffffffffffffffffffffffffffffffff1686602001516137a2565b1015611ca6576040517f08c379a0000000000000000000000000000000000000000000000000000000008152600401611c9d906144f8565b60405180910390fd5b85611cb58a83602001516137a2565b1015611cf6576040517f08c379a0000000000000000000000000000000000000000000000000000000008152600401611ced906145d8565b60405180910390fd5b611d086000898b898560800151612b16565b611d1e600182600001518b898560800151612b16565b611d2f8985602001518860016130df565b611d8c600160009054906101000a900473ffffffffffffffffffffffffffffffffffffffff168560200151611d85600354611d778b87608001516138dc90919063ffffffff16565b6138f290919063ffffffff16565b60006130df565b611d9d8982602001518860006130df565b611dfa600160009054906101000a900473ffffffffffffffffffffffffffffffffffffffff168260200151611df3600354611de58b87608001516138dc90919063ffffffff16565b6138f290919063ffffffff16565b60016130df565b505b600083606001511415611e0e57611e21565b8080611e19906149ca565b915050611b85565b50505050612468565b600180811115611e3d57611e3c614a71565b5b826001811115611e5057611e4f614a71565b5b1415612467576000600560008673ffffffffffffffffffffffffffffffffffffffff1673ffffffffffffffffffffffffffffffffffffffff168152602001908152602001600020600060018152602001908152602001600020805480602002602001604051908101604052809291908181526020016000905b8282101561200057838290600052602060002090600602016040518060c0016040529081600082015481526020016001820160009054906101000a900473ffffffffffffffffffffffffffffffffffffffff1673ffffffffffffffffffffffffffffffffffffffff1673ffffffffffffffffffffffffffffffffffffffff1681526020016002820160009054906101000a900473ffffffffffffffffffffffffffffffffffffffff1673ffffffffffffffffffffffffffffffffffffffff1673ffffffffffffffffffffffffffffffffffffffff16815260200160038201548152602001600482015481526020016005820160009054906101000a900460ff166001811115611fdb57611fda614a71565b5b6001811115611fed57611fec614a71565b5b8152505081526020019060010190611ec9565b50505050905060006120128286613039565b90506000600560008873ffffffffffffffffffffffffffffffffffffffff1673ffffffffffffffffffffffffffffffffffffffff1681526020019081526020016000206000808152602001908152602001600020805480602002602001604051908101604052809291908181526020016000905b828210156121bd57838290600052602060002090600602016040518060c0016040529081600082015481526020016001820160009054906101000a900473ffffffffffffffffffffffffffffffffffffffff1673ffffffffffffffffffffffffffffffffffffffff1673ffffffffffffffffffffffffffffffffffffffff1681526020016002820160009054906101000a900473ffffffffffffffffffffffffffffffffffffffff1673ffffffffffffffffffffffffffffffffffffffff1673ffffffffffffffffffffffffffffffffffffffff16815260200160038201548152602001600482015481526020016005820160009054906101000a900460ff16600181111561219857612197614a71565b5b60018111156121aa576121a9614a71565b5b8152505081526020019060010190612086565b50505050905060005b81518110156124625782608001518282815181106121e7576121e6614acf565b5b6020026020010151608001511061243d57600082828151811061220d5761220c614acf565b5b60200260200101519050806060015184606001511115612233578060600151955061224b565b806060015184606001511161224a57836060015195505b5b8561225a8a86602001516137a2565b101561229b576040517f08c379a0000000000000000000000000000000000000000000000000000000008152600401612292906145d8565b60405180910390fd5b6122c66003546122b88360800151896138dc90919063ffffffff16565b6138f290919063ffffffff16565b6122f6600160009054906101000a900473ffffffffffffffffffffffffffffffffffffffff1683602001516137a2565b1015612337576040517f08c379a000000000000000000000000000000000000000000000000000000000815260040161232e906144f8565b60405180910390fd5b6123496001898b898560800151612b16565b61235f600082600001518b898560800151612b16565b6123708985602001518860006130df565b6123cd600160009054906101000a900473ffffffffffffffffffffffffffffffffffffffff1685602001516123c66003546123b88b87608001516138dc90919063ffffffff16565b6138f290919063ffffffff16565b60016130df565b6123de8982602001518860016130df565b61243b600160009054906101000a900473ffffffffffffffffffffffffffffffffffffffff1682602001516124346003546124268b87608001516138dc90919063ffffffff16565b6138f290919063ffffffff16565b60006130df565b505b60008360600151141561244f57612462565b808061245a906149ca565b9150506121c6565b505050505b5b50505050565b612476613934565b61248060006139b2565b565b61248b836105f9565b6124ca576040517f08c379a00000000000000000000000000000000000000000000000000000000081526004016124c190614558565b60405180910390fd5b600160009054906101000a900473ffffffffffffffffffffffffffffffffffffffff1673ffffffffffffffffffffffffffffffffffffffff168373ffffffffffffffffffffffffffffffffffffffff16141561255b576040517f08c379a000000000000000000000000000000000000000000000000000000000815260040161255290614598565b60405180910390fd5b600061258460035461257684866138dc90919063ffffffff16565b6138f290919063ffffffff16565b9050806125f06125b633600160009054906101000a900473ffffffffffffffffffffffffffffffffffffffff166116fb565b6125e2600160009054906101000a900473ffffffffffffffffffffffffffffffffffffffff16336137a2565b61391e90919063ffffffff16565b1015612631576040517f08c379a0000000000000000000000000000000000000000000000000000000008152600401612628906145f8565b60405180910390fd5b61266033600160009054906101000a900473ffffffffffffffffffffffffffffffffffffffff168360016114a0565b600560008573ffffffffffffffffffffffffffffffffffffffff1673ffffffffffffffffffffffffffffffffffffffff16815260200190815260200160002060008060018111156126b4576126b3614a71565b5b81526020019081526020016000206040518060c0016040528060095481526020013373ffffffffffffffffffffffffffffffffffffffff1681526020018673ffffffffffffffffffffffffffffffffffffffff1681526020018581526020018481526020016000600181111561272d5761272c614a71565b5b81525090806001815401808255809150506001900390600052602060002090600602016000909190919091506000820151816000015560208201518160010160006101000a81548173ffffffffffffffffffffffffffffffffffffffff021916908373ffffffffffffffffffffffffffffffffffffffff16021790555060408201518160020160006101000a81548173ffffffffffffffffffffffffffffffffffffffff021916908373ffffffffffffffffffffffffffffffffffffffff160217905550606082015181600301556080820151816004015560a08201518160050160006101000a81548160ff021916908360018111156128305761282f614a71565b5b021790555050507f95f7e844715189eed0317d8f771c63ce13ec6364f48022f3db86baf8ce584b9560095433868686600060405161287396959493929190614701565b60405180910390a1612891600160095461390890919063ffffffff16565b60098190555050505050565b600260009054906101000a900473ffffffffffffffffffffffffffffffffffffffff1681565b6000600860008373ffffffffffffffffffffffffffffffffffffffff1673ffffffffffffffffffffffffffffffffffffffff168152602001908152602001600020805490509050919050565b600080600080600080600560008a73ffffffffffffffffffffffffffffffffffffffff1673ffffffffffffffffffffffffffffffffffffffff168152602001908152602001600020600088600181111561296c5761296b614a71565b5b8152602001908152602001600020888154811061298c5761298b614acf565b5b90600052602060002090600602016040518060c0016040529081600082015481526020016001820160009054906101000a900473ffffffffffffffffffffffffffffffffffffffff1673ffffffffffffffffffffffffffffffffffffffff1673ffffffffffffffffffffffffffffffffffffffff1681526020016002820160009054906101000a900473ffffffffffffffffffffffffffffffffffffffff1673ffffffffffffffffffffffffffffffffffffffff1673ffffffffffffffffffffffffffffffffffffffff16815260200160038201548152602001600482015481526020016005820160009054906101000a900460ff166001811115612a9457612a93614a71565b5b6001811115612aa657612aa5614a71565b5b81525050905080600001518160600151826020015183608001518460a001516001811115612ad757612ad6614a71565b5b9550955095509550955050939792965093509350565b60008060009054906101000a900473ffffffffffffffffffffffffffffffffffffffff16905090565b60008410158015612b2957506009548411155b612b3257600080fd5b6000600560008573ffffffffffffffffffffffffffffffffffffffff1673ffffffffffffffffffffffffffffffffffffffff1681526020019081526020016000206000876001811115612b8857612b87614a71565b5b8152602001908152602001600020805480602002602001604051908101604052809291908181526020016000905b82821015612ced57838290600052602060002090600602016040518060c0016040529081600082015481526020016001820160009054906101000a900473ffffffffffffffffffffffffffffffffffffffff1673ffffffffffffffffffffffffffffffffffffffff1673ffffffffffffffffffffffffffffffffffffffff1681526020016002820160009054906101000a900473ffffffffffffffffffffffffffffffffffffffff1673ffffffffffffffffffffffffffffffffffffffff1673ffffffffffffffffffffffffffffffffffffffff16815260200160038201548152602001600482015481526020016005820160009054906101000a900460ff166001811115612cc857612cc7614a71565b5b6001811115612cda57612cd9614a71565b5b8152505081526020019060010190612bb6565b505050509050612cfb613a7e565b612d058287613039565b90508381606001511015612d1857600080fd5b612d2f84826060015161391e90919063ffffffff16565b81606001818152505060006001811115612d4c57612d4b614a71565b5b876001811115612d5f57612d5e614a71565b5b1415612dc757612dc28160200151600160009054906101000a900473ffffffffffffffffffffffffffffffffffffffff16612dbb600354612dad8987608001516138dc90919063ffffffff16565b6138f290919063ffffffff16565b60006114a0565b612e06565b600180811115612dda57612dd9614a71565b5b876001811115612ded57612dec614a71565b5b1415612e0557612e048160200151868660006114a0565b5b5b7f6b2a78965102b6dcf63436e21fb398d05a11120cdd8b64e83291405e3387cdf2868260200151878787604051612e419594939291906146ae565b60405180910390a1600081606001511415612feb5760086000826020015173ffffffffffffffffffffffffffffffffffffffff1673ffffffffffffffffffffffffffffffffffffffff1681526020019081526020016000208190806001815401808255809150506001900390600052602060002090600602016000909190919091506000820151816000015560208201518160010160006101000a81548173ffffffffffffffffffffffffffffffffffffffff021916908373ffffffffffffffffffffffffffffffffffffffff16021790555060408201518160020160006101000a81548173ffffffffffffffffffffffffffffffffffffffff021916908373ffffffffffffffffffffffffffffffffffffffff160217905550606082015181600301556080820151816004015560a08201518160050160006101000a81548160ff02191690836001811115612f9a57612f99614a71565b5b021790555050506000600a60006101000a81548160ff021916908315150217905550612fcf87826000015183604001516106ab565b6001600a60006101000a81548160ff0219169083151502179055505b50505050505050565b60095481565b6004818154811061300a57600080fd5b906000526020600020016000915054906101000a900473ffffffffffffffffffffffffffffffffffffffff1681565b613041613a7e565b613049613a7e565b60005b84518110156130b0578385828151811061306957613068614acf565b5b602002602001015160000151141561309d5784818151811061308e5761308d614acf565b5b602002602001015191506130b0565b80806130a8906149ca565b91505061304c565b508091505092915050565b7f000000000000000000000000000000000000000000000000000000000000000081565b80156131f95761317482600660008773ffffffffffffffffffffffffffffffffffffffff1673ffffffffffffffffffffffffffffffffffffffff16815260200190815260200160002060008673ffffffffffffffffffffffffffffffffffffffff1673ffffffffffffffffffffffffffffffffffffffff1681526020019081526020016000205461390890919063ffffffff16565b600660008673ffffffffffffffffffffffffffffffffffffffff1673ffffffffffffffffffffffffffffffffffffffff16815260200190815260200160002060008573ffffffffffffffffffffffffffffffffffffffff1673ffffffffffffffffffffffffffffffffffffffff1681526020019081526020016000208190555061330f565b8061330e5761328d82600660008773ffffffffffffffffffffffffffffffffffffffff1673ffffffffffffffffffffffffffffffffffffffff16815260200190815260200160002060008673ffffffffffffffffffffffffffffffffffffffff1673ffffffffffffffffffffffffffffffffffffffff1681526020019081526020016000205461391e90919063ffffffff16565b600660008673ffffffffffffffffffffffffffffffffffffffff1673ffffffffffffffffffffffffffffffffffffffff16815260200190815260200160002060008573ffffffffffffffffffffffffffffffffffffffff1673ffffffffffffffffffffffffffffffffffffffff168152602001908152602001600020819055505b5b50505050565b6006602052816000526040600020602052806000526040600020600091509150505481565b613342613934565b600060048054806020026020016040519081016040528092919081815260200182805480156133c657602002820191906000526020600020905b8160009054906101000a900473ffffffffffffffffffffffffffffffffffffffff1673ffffffffffffffffffffffffffffffffffffffff168152602001906001019080831161337c575b505050505090506000805b8251811015613444578373ffffffffffffffffffffffffffffffffffffffff1683828151811061340457613403614acf565b5b602002602001015173ffffffffffffffffffffffffffffffffffffffff1614156134315760019150613444565b808061343c906149ca565b9150506133d1565b50600015158115151461348c576040517f08c379a000000000000000000000000000000000000000000000000000000000815260040161348390614578565b60405180910390fd5b6004839080600181540180825580915050600190039060005260206000200160009091909190916101000a81548173ffffffffffffffffffffffffffffffffffffffff021916908373ffffffffffffffffffffffffffffffffffffffff160217905550505050565b600080600080600080600860008973ffffffffffffffffffffffffffffffffffffffff1673ffffffffffffffffffffffffffffffffffffffff168152602001908152602001600020878154811061354e5761354d614acf565b5b90600052602060002090600602016040518060c0016040529081600082015481526020016001820160009054906101000a900473ffffffffffffffffffffffffffffffffffffffff1673ffffffffffffffffffffffffffffffffffffffff1673ffffffffffffffffffffffffffffffffffffffff1681526020016002820160009054906101000a900473ffffffffffffffffffffffffffffffffffffffff1673ffffffffffffffffffffffffffffffffffffffff1673ffffffffffffffffffffffffffffffffffffffff16815260200160038201548152602001600482015481526020016005820160009054906101000a900460ff16600181111561365657613655614a71565b5b600181111561366857613667614a71565b5b81525050905080600001518160600151826020015183608001518460a00151600181111561369957613698614a71565b5b95509550955095509550509295509295909350565b6000600560008373ffffffffffffffffffffffffffffffffffffffff1673ffffffffffffffffffffffffffffffffffffffff168152602001908152602001600020600084600181111561370457613703614a71565b5b815260200190815260200160002080549050905092915050565b613726613934565b600073ffffffffffffffffffffffffffffffffffffffff168173ffffffffffffffffffffffffffffffffffffffff161415613796576040517f08c379a000000000000000000000000000000000000000000000000000000000815260040161378d90614538565b60405180910390fd5b61379f816139b2565b50565b6000600660008473ffffffffffffffffffffffffffffffffffffffff1673ffffffffffffffffffffffffffffffffffffffff16815260200190815260200160002060008373ffffffffffffffffffffffffffffffffffffffff1673ffffffffffffffffffffffffffffffffffffffff16815260200190815260200160002054905092915050565b6005602052826000526040600020602052816000526040600020818154811061385157600080fd5b906000526020600020906006020160009250925050508060000154908060010160009054906101000a900473ffffffffffffffffffffffffffffffffffffffff16908060020160009054906101000a900473ffffffffffffffffffffffffffffffffffffffff16908060030154908060040154908060050160009054906101000a900460ff16905086565b600081836138ea919061489e565b905092915050565b60008183613900919061486d565b905092915050565b600081836139169190614817565b905092915050565b6000818361392c91906148f8565b905092915050565b61393c613a76565b73ffffffffffffffffffffffffffffffffffffffff1661395a612aed565b73ffffffffffffffffffffffffffffffffffffffff16146139b0576040517f08c379a00000000000000000000000000000000000000000000000000000000081526004016139a790614618565b60405180910390fd5b565b60008060009054906101000a900473ffffffffffffffffffffffffffffffffffffffff169050816000806101000a81548173ffffffffffffffffffffffffffffffffffffffff021916908373ffffffffffffffffffffffffffffffffffffffff1602179055508173ffffffffffffffffffffffffffffffffffffffff168173ffffffffffffffffffffffffffffffffffffffff167f8be0079c531659141344cd1fd0a4f28419497f9722a3daafe3b4186f6b6457e060405160405180910390a35050565b600033905090565b6040518060c0016040528060008152602001600073ffffffffffffffffffffffffffffffffffffffff168152602001600073ffffffffffffffffffffffffffffffffffffffff168152602001600081526020016000815260200160006001811115613aec57613aeb614a71565b5b81525090565b828054828255906000526020600020906006028101928215613c625760005260206000209160060282015b82811115613c61578282600082015481600001556001820160009054906101000a900473ffffffffffffffffffffffffffffffffffffffff168160010160006101000a81548173ffffffffffffffffffffffffffffffffffffffff021916908373ffffffffffffffffffffffffffffffffffffffff1602179055506002820160009054906101000a900473ffffffffffffffffffffffffffffffffffffffff168160020160006101000a81548173ffffffffffffffffffffffffffffffffffffffff021916908373ffffffffffffffffffffffffffffffffffffffff16021790555060038201548160030155600482015481600401556005820160009054906101000a900460ff168160050160006101000a81548160ff02191690836001811115613c4b57613c4a614a71565b5b0217905550505091600601919060060190613b1d565b5b509050613c6f9190613c73565b5090565b5b80821115613d00576000808201600090556001820160006101000a81549073ffffffffffffffffffffffffffffffffffffffff02191690556002820160006101000a81549073ffffffffffffffffffffffffffffffffffffffff0219169055600382016000905560048201600090556005820160006101000a81549060ff021916905550600601613c74565b5090565b6000613d17613d12846147da565b6147b5565b905080838252602082019050828560c0860282011115613d3a57613d39614b37565b5b60005b85811015613d6a5781613d508882613de1565b845260208401935060c08301925050600181019050613d3d565b5050509392505050565b600081359050613d8381614da3565b92915050565b600082601f830112613d9e57613d9d614b2d565b5b8135613dae848260208601613d04565b91505092915050565b600081359050613dc681614dba565b92915050565b600081359050613ddb81614dd1565b92915050565b600060c08284031215613df757613df6614b32565b5b613e0160c06147b5565b90506000613e1184828501613e81565b6000830152506020613e2584828501613d74565b6020830152506040613e3984828501613d74565b6040830152506060613e4d84828501613e81565b6060830152506080613e6184828501613e81565b60808301525060a0613e7584828501613dcc565b60a08301525092915050565b600081359050613e9081614de1565b92915050565b600060208284031215613eac57613eab614b41565b5b6000613eba84828501613d74565b91505092915050565b60008060408385031215613eda57613ed9614b41565b5b6000613ee885828601613d74565b9250506020613ef985828601613d74565b9150509250929050565b60008060008060808587031215613f1d57613f1c614b41565b5b6000613f2b87828801613d74565b9450506020613f3c87828801613d74565b9350506040613f4d87828801613e81565b9250506060613f5e87828801613db7565b91505092959194509250565b60008060408385031215613f8157613f80614b41565b5b6000613f8f85828601613d74565b9250506020613fa085828601613e81565b9150509250929050565b600080600060608486031215613fc357613fc2614b41565b5b6000613fd186828701613d74565b9350506020613fe286828701613e81565b9250506040613ff386828701613dcc565b9150509250925092565b60008060006060848603121561401657614015614b41565b5b600061402486828701613d74565b935050602061403586828701613e81565b925050604061404686828701613e81565b9150509250925092565b6000806040838503121561406757614066614b41565b5b600083013567ffffffffffffffff81111561408557614084614b3c565b5b61409185828601613d89565b92505060206140a285828601613e81565b9150509250929050565b600080604083850312156140c3576140c2614b41565b5b60006140d185828601613dcc565b92505060206140e285828601613d74565b9150509250929050565b60008060006060848603121561410557614104614b41565b5b600061411386828701613dcc565b935050602061412486828701613e81565b925050604061413586828701613d74565b9150509250925092565b600080600080600060a0868803121561415b5761415a614b41565b5b600061416988828901613dcc565b955050602061417a88828901613e81565b945050604061418b88828901613d74565b935050606061419c88828901613e81565b92505060806141ad88828901613e81565b9150509295509295909350565b6000602082840312156141d0576141cf614b41565b5b60006141de84828501613e81565b91505092915050565b600080600060608486031215614200576141ff614b41565b5b600061420e86828701613e81565b935050602061421f86828701613dcc565b925050604061423086828701613d74565b9150509250925092565b6142438161492c565b82525050565b6142528161492c565b82525050565b6142618161493e565b82525050565b61427081614987565b82525050565b61427f81614987565b82525050565b6000614292601f83614806565b915061429d82614b57565b602082019050919050565b60006142b5601083614806565b91506142c082614b80565b602082019050919050565b60006142d8602683614806565b91506142e382614ba9565b604082019050919050565b60006142fb601883614806565b915061430682614bf8565b602082019050919050565b600061431e601e83614806565b915061432982614c21565b602082019050919050565b6000614341601783614806565b915061434c82614c4a565b602082019050919050565b6000614364600f83614806565b915061436f82614c73565b602082019050919050565b6000614387602183614806565b915061439282614c9c565b604082019050919050565b60006143aa601183614806565b91506143b582614ceb565b602082019050919050565b60006143cd602083614806565b91506143d882614d14565b602082019050919050565b60006143f0601383614806565b91506143fb82614d3d565b602082019050919050565b6000614413601383614806565b915061441e82614d66565b602082019050919050565b60c08201600082015161443f60008501826144a4565b506020820151614452602085018261423a565b506040820151614465604085018261423a565b50606082015161447860608501826144a4565b50608082015161448b60808501826144a4565b5060a082015161449e60a0850182614267565b50505050565b6144ad8161497d565b82525050565b6144bc8161497d565b82525050565b60006020820190506144d76000830184614249565b92915050565b60006020820190506144f26000830184614258565b92915050565b6000602082019050818103600083015261451181614285565b9050919050565b60006020820190508181036000830152614531816142a8565b9050919050565b60006020820190508181036000830152614551816142cb565b9050919050565b60006020820190508181036000830152614571816142ee565b9050919050565b6000602082019050818103600083015261459181614311565b9050919050565b600060208201905081810360008301526145b181614334565b9050919050565b600060208201905081810360008301526145d181614357565b9050919050565b600060208201905081810360008301526145f18161437a565b9050919050565b600060208201905081810360008301526146118161439d565b9050919050565b60006020820190508181036000830152614631816143c0565b9050919050565b60006020820190508181036000830152614651816143e3565b9050919050565b6000602082019050818103600083015261467181614406565b9050919050565b600060c08201905061468d6000830184614429565b92915050565b60006020820190506146a860008301846144b3565b92915050565b600060a0820190506146c360008301886144b3565b6146d06020830187614249565b6146dd6040830186614249565b6146ea60608301856144b3565b6146f760808301846144b3565b9695505050505050565b600060c08201905061471660008301896144b3565b6147236020830188614249565b6147306040830187614249565b61473d60608301866144b3565b61474a60808301856144b3565b61475760a0830184614276565b979650505050505050565b600060a08201905061477760008301886144b3565b61478460208301876144b3565b6147916040830186614249565b61479e60608301856144b3565b6147ab60808301846144b3565b9695505050505050565b60006147bf6147d0565b90506147cb8282614999565b919050565b6000604051905090565b600067ffffffffffffffff8211156147f5576147f4614afe565b5b602082029050602081019050919050565b600082825260208201905092915050565b60006148228261497d565b915061482d8361497d565b9250827fffffffffffffffffffffffffffffffffffffffffffffffffffffffffffffffff0382111561486257614861614a13565b5b828201905092915050565b60006148788261497d565b91506148838361497d565b92508261489357614892614a42565b5b828204905092915050565b60006148a98261497d565b91506148b48361497d565b9250817fffffffffffffffffffffffffffffffffffffffffffffffffffffffffffffffff04831182151516156148ed576148ec614a13565b5b828202905092915050565b60006149038261497d565b915061490e8361497d565b92508282101561492157614920614a13565b5b828203905092915050565b60006149378261495d565b9050919050565b60008115159050919050565b600081905061495882614d8f565b919050565b600073ffffffffffffffffffffffffffffffffffffffff82169050919050565b6000819050919050565b60006149928261494a565b9050919050565b6149a282614b46565b810181811067ffffffffffffffff821117156149c1576149c0614afe565b5b80604052505050565b60006149d58261497d565b91507fffffffffffffffffffffffffffffffffffffffffffffffffffffffffffffffff821415614a0857614a07614a13565b5b600182019050919050565b7f4e487b7100000000000000000000000000000000000000000000000000000000600052601160045260246000fd5b7f4e487b7100000000000000000000000000000000000000000000000000000000600052601260045260246000fd5b7f4e487b7100000000000000000000000000000000000000000000000000000000600052602160045260246000fd5b7f4e487b7100000000000000000000000000000000000000000000000000000000600052603160045260246000fd5b7f4e487b7100000000000000000000000000000000000000000000000000000000600052603260045260246000fd5b7f4e487b7100000000000000000000000000000000000000000000000000000000600052604160045260246000fd5b600080fd5b600080fd5b600080fd5b600080fd5b600080fd5b6000601f19601f8301169050919050565b7f496e73756666696369656e7420627579657220555344432042616c616e636500600082015250565b7f496e76616c6964204f7264657220494400000000000000000000000000000000600082015250565b7f4f776e61626c653a206e6577206f776e657220697320746865207a65726f206160008201527f6464726573730000000000000000000000000000000000000000000000000000602082015250565b7f546f6b656e20756e617661696c61626c6520696e204445580000000000000000600082015250565b7f546f6b656e20616c7265616479207665726966696564206f6e20444558210000600082015250565b7f556e61626c6520746f2070757263686173652055534443000000000000000000600082015250565b7f4e6f74204f72646572204f776e65720000000000000000000000000000000000600082015250565b7f496e73756666696369656e742073656c6c657220546f6b656e2042616c616e6360008201527f6500000000000000000000000000000000000000000000000000000000000000602082015250565b7f496e73756666696369656e742055534443000000000000000000000000000000600082015250565b7f4f776e61626c653a2063616c6c6572206973206e6f7420746865206f776e6572600082015250565b7f556e61626c6520746f2073656c6c205553444300000000000000000000000000600082015250565b7f496e73756666696369656e7420746f6b656e7300000000000000000000000000600082015250565b60028110614da057614d9f614a71565b5b50565b614dac8161492c565b8114614db757600080fd5b50565b614dc38161493e565b8114614dce57600080fd5b50565b60028110614dde57600080fd5b50565b614dea8161497d565b8114614df557600080fd5b5056fea264697066735822122093f9b6af0148b675bec7dd8bf16b5fa4b2c92f542c12b2c4ddf1865ae5afeb0664736f6c63430008070033",
  "devdoc": {
    "kind": "dev",
    "methods": {
      "owner()": {
        "details": "Returns the address of the current owner."
      },
      "renounceOwnership()": {
        "details": "Leaves the contract without owner. It will not be possible to call `onlyOwner` functions anymore. Can only be called by the current owner. NOTE: Renouncing ownership will leave the contract without an owner, thereby removing any functionality that is only available to the owner."
      },
      "transferOwnership(address)": {
        "details": "Transfers ownership of the contract to a new account (`newOwner`). Can only be called by the current owner."
      }
    },
    "version": 1
  },
  "userdoc": {
    "events": {
      "Cancel(uint256,address,address,uint256,uint256)": {
        "notice": "Event when an order is cancelled"
      },
      "Order(uint256,address,address,uint256,uint256,uint8)": {
        "notice": "Event when an order is placed on an exchange"
      }
    },
    "kind": "user",
    "methods": {},
    "version": 1
  },
  "storageLayout": {
    "storage": [
      {
        "astId": 53,
        "contract": "contracts/Exchange.sol:Exchange",
        "label": "_owner",
        "offset": 0,
        "slot": "0",
        "type": "t_address"
      },
      {
        "astId": 1199,
        "contract": "contracts/Exchange.sol:Exchange",
        "label": "usdc",
        "offset": 0,
        "slot": "1",
        "type": "t_address"
      },
      {
        "astId": 1205,
        "contract": "contracts/Exchange.sol:Exchange",
        "label": "ethToken",
        "offset": 0,
        "slot": "2",
        "type": "t_address"
      },
      {
        "astId": 1210,
        "contract": "contracts/Exchange.sol:Exchange",
        "label": "decimals",
        "offset": 0,
        "slot": "3",
        "type": "t_uint256"
      },
      {
        "astId": 1213,
        "contract": "contracts/Exchange.sol:Exchange",
        "label": "tokenList",
        "offset": 0,
        "slot": "4",
        "type": "t_array(t_address)dyn_storage"
      },
      {
        "astId": 1221,
        "contract": "contracts/Exchange.sol:Exchange",
        "label": "s_orderBook",
        "offset": 0,
        "slot": "5",
        "type": "t_mapping(t_address,t_mapping(t_uint256,t_array(t_struct(_Order)1259_storage)dyn_storage))"
      },
      {
        "astId": 1227,
        "contract": "contracts/Exchange.sol:Exchange",
        "label": "s_tokens",
        "offset": 0,
        "slot": "6",
        "type": "t_mapping(t_address,t_mapping(t_address,t_uint256))"
      },
      {
        "astId": 1233,
        "contract": "contracts/Exchange.sol:Exchange",
        "label": "lockedFunds",
        "offset": 0,
        "slot": "7",
        "type": "t_mapping(t_address,t_mapping(t_address,t_uint256))"
      },
      {
        "astId": 1239,
        "contract": "contracts/Exchange.sol:Exchange",
        "label": "s_filledOrders",
        "offset": 0,
        "slot": "8",
        "type": "t_mapping(t_address,t_array(t_struct(_Order)1259_storage)dyn_storage)"
      },
      {
        "astId": 1242,
        "contract": "contracts/Exchange.sol:Exchange",
        "label": "s_orderId",
        "offset": 0,
        "slot": "9",
        "type": "t_uint256"
      },
      {
        "astId": 1245,
        "contract": "contracts/Exchange.sol:Exchange",
        "label": "s_isManual",
        "offset": 0,
        "slot": "10",
        "type": "t_bool"
      }
    ],
    "types": {
      "t_address": {
        "encoding": "inplace",
        "label": "address",
        "numberOfBytes": "20"
      },
      "t_array(t_address)dyn_storage": {
        "base": "t_address",
        "encoding": "dynamic_array",
        "label": "address[]",
        "numberOfBytes": "32"
      },
      "t_array(t_struct(_Order)1259_storage)dyn_storage": {
        "base": "t_struct(_Order)1259_storage",
        "encoding": "dynamic_array",
        "label": "struct Exchange._Order[]",
        "numberOfBytes": "32"
      },
      "t_bool": {
        "encoding": "inplace",
        "label": "bool",
        "numberOfBytes": "1"
      },
      "t_enum(Side)1262": {
        "encoding": "inplace",
        "label": "enum Exchange.Side",
        "numberOfBytes": "1"
      },
      "t_mapping(t_address,t_array(t_struct(_Order)1259_storage)dyn_storage)": {
        "encoding": "mapping",
        "key": "t_address",
        "label": "mapping(address => struct Exchange._Order[])",
        "numberOfBytes": "32",
        "value": "t_array(t_struct(_Order)1259_storage)dyn_storage"
      },
      "t_mapping(t_address,t_mapping(t_address,t_uint256))": {
        "encoding": "mapping",
        "key": "t_address",
        "label": "mapping(address => mapping(address => uint256))",
        "numberOfBytes": "32",
        "value": "t_mapping(t_address,t_uint256)"
      },
      "t_mapping(t_address,t_mapping(t_uint256,t_array(t_struct(_Order)1259_storage)dyn_storage))": {
        "encoding": "mapping",
        "key": "t_address",
        "label": "mapping(address => mapping(uint256 => struct Exchange._Order[]))",
        "numberOfBytes": "32",
        "value": "t_mapping(t_uint256,t_array(t_struct(_Order)1259_storage)dyn_storage)"
      },
      "t_mapping(t_address,t_uint256)": {
        "encoding": "mapping",
        "key": "t_address",
        "label": "mapping(address => uint256)",
        "numberOfBytes": "32",
        "value": "t_uint256"
      },
      "t_mapping(t_uint256,t_array(t_struct(_Order)1259_storage)dyn_storage)": {
        "encoding": "mapping",
        "key": "t_uint256",
        "label": "mapping(uint256 => struct Exchange._Order[])",
        "numberOfBytes": "32",
        "value": "t_array(t_struct(_Order)1259_storage)dyn_storage"
      },
      "t_struct(_Order)1259_storage": {
        "encoding": "inplace",
        "label": "struct Exchange._Order",
        "members": [
          {
            "astId": 1247,
            "contract": "contracts/Exchange.sol:Exchange",
            "label": "id",
            "offset": 0,
            "slot": "0",
            "type": "t_uint256"
          },
          {
            "astId": 1249,
            "contract": "contracts/Exchange.sol:Exchange",
            "label": "user",
            "offset": 0,
            "slot": "1",
            "type": "t_address"
          },
          {
            "astId": 1251,
            "contract": "contracts/Exchange.sol:Exchange",
            "label": "token",
            "offset": 0,
            "slot": "2",
            "type": "t_address"
          },
          {
            "astId": 1253,
            "contract": "contracts/Exchange.sol:Exchange",
            "label": "amount",
            "offset": 0,
            "slot": "3",
            "type": "t_uint256"
          },
          {
            "astId": 1255,
            "contract": "contracts/Exchange.sol:Exchange",
            "label": "price",
            "offset": 0,
            "slot": "4",
            "type": "t_uint256"
          },
          {
            "astId": 1258,
            "contract": "contracts/Exchange.sol:Exchange",
            "label": "side",
            "offset": 0,
            "slot": "5",
            "type": "t_enum(Side)1262"
          }
        ],
        "numberOfBytes": "192"
      },
      "t_uint256": {
        "encoding": "inplace",
        "label": "uint256",
        "numberOfBytes": "32"
      }
    }
  }
}