{
  "address": "0xDc64a140Aa3E981100a9becA4E685f962f0cF6C9",
  "abi": [
    {
      "inputs": [
        {
          "internalType": "address",
          "name": "_usdc",
          "type": "address"
        }
      ],
      "stateMutability": "nonpayable",
      "type": "constructor"
    },
    {
      "anonymous": false,
      "inputs": [
        {
          "indexed": false,
          "internalType": "uint256",
          "name": "id",
          "type": "uint256"
        },
        {
          "indexed": false,
          "internalType": "address",
          "name": "user",
          "type": "address"
        },
        {
          "indexed": false,
          "internalType": "address",
          "name": "token",
          "type": "address"
        },
        {
          "indexed": false,
          "internalType": "uint256",
          "name": "amount",
          "type": "uint256"
        },
        {
          "indexed": false,
          "internalType": "uint256",
          "name": "price",
          "type": "uint256"
        }
      ],
      "name": "Cancel",
      "type": "event"
    },
    {
      "anonymous": false,
      "inputs": [
        {
          "indexed": false,
          "internalType": "uint256",
          "name": "id",
          "type": "uint256"
        },
        {
          "indexed": false,
          "internalType": "address",
          "name": "user",
          "type": "address"
        },
        {
          "indexed": false,
          "internalType": "address",
          "name": "token",
          "type": "address"
        },
        {
          "indexed": false,
          "internalType": "uint256",
          "name": "amount",
          "type": "uint256"
        },
        {
          "indexed": false,
          "internalType": "uint256",
          "name": "price",
          "type": "uint256"
        }
      ],
      "name": "Fill",
      "type": "event"
    },
    {
      "anonymous": false,
      "inputs": [
        {
          "indexed": false,
          "internalType": "uint256",
          "name": "id",
          "type": "uint256"
        },
        {
          "indexed": false,
          "internalType": "address",
          "name": "user",
          "type": "address"
        },
        {
          "indexed": false,
          "internalType": "address",
          "name": "token",
          "type": "address"
        },
        {
          "indexed": false,
          "internalType": "uint256",
          "name": "amount",
          "type": "uint256"
        },
        {
          "indexed": false,
          "internalType": "uint256",
          "name": "price",
          "type": "uint256"
        },
        {
          "indexed": false,
          "internalType": "enum Exchange.Side",
          "name": "side",
          "type": "uint8"
        }
      ],
      "name": "Order",
      "type": "event"
    },
    {
      "anonymous": false,
      "inputs": [
        {
          "indexed": true,
          "internalType": "address",
          "name": "previousOwner",
          "type": "address"
        },
        {
          "indexed": true,
          "internalType": "address",
          "name": "newOwner",
          "type": "address"
        }
      ],
      "name": "OwnershipTransferred",
      "type": "event"
    },
    {
      "inputs": [],
      "name": "Owner",
      "outputs": [
        {
          "internalType": "address",
          "name": "",
          "type": "address"
        }
      ],
      "stateMutability": "view",
      "type": "function"
    },
    {
      "inputs": [
        {
          "internalType": "address",
          "name": "_token",
          "type": "address"
        }
      ],
      "name": "addToken",
      "outputs": [],
      "stateMutability": "nonpayable",
      "type": "function"
    },
    {
      "inputs": [
        {
          "internalType": "address",
          "name": "_token",
          "type": "address"
        },
        {
          "internalType": "address",
          "name": "_user",
          "type": "address"
        }
      ],
      "name": "balanceOf",
      "outputs": [
        {
          "internalType": "uint256",
          "name": "",
          "type": "uint256"
        }
      ],
      "stateMutability": "view",
      "type": "function"
    },
    {
      "inputs": [
        {
          "internalType": "enum Exchange.Side",
          "name": "side",
          "type": "uint8"
        },
        {
          "internalType": "uint256",
          "name": "_id",
          "type": "uint256"
        },
        {
          "internalType": "address",
          "name": "_token",
          "type": "address"
        }
      ],
      "name": "cancelOrder",
      "outputs": [],
      "stateMutability": "nonpayable",
      "type": "function"
    },
    {
      "inputs": [
        {
          "internalType": "address",
          "name": "_token",
          "type": "address"
        },
        {
          "internalType": "uint256",
          "name": "_amount",
          "type": "uint256"
        },
        {
          "internalType": "uint256",
          "name": "_price",
          "type": "uint256"
        }
      ],
      "name": "createLimitBuyOrder",
      "outputs": [],
      "stateMutability": "nonpayable",
      "type": "function"
    },
    {
      "inputs": [
        {
          "internalType": "address",
          "name": "_token",
          "type": "address"
        },
        {
          "internalType": "uint256",
          "name": "_amount",
          "type": "uint256"
        },
        {
          "internalType": "uint256",
          "name": "_price",
          "type": "uint256"
        }
      ],
      "name": "createLimitSellOrder",
      "outputs": [],
      "stateMutability": "nonpayable",
      "type": "function"
    },
    {
      "inputs": [],
      "name": "ethToken",
      "outputs": [
        {
          "internalType": "address",
          "name": "",
          "type": "address"
        }
      ],
      "stateMutability": "view",
      "type": "function"
    },
    {
      "inputs": [
        {
          "internalType": "enum Exchange.Side",
          "name": "side",
          "type": "uint8"
        },
        {
          "internalType": "uint256",
          "name": "_id",
          "type": "uint256"
        },
        {
          "internalType": "address",
          "name": "_token",
          "type": "address"
        },
        {
          "internalType": "uint256",
          "name": "_amount",
          "type": "uint256"
        },
        {
          "internalType": "uint256",
          "name": "_price",
          "type": "uint256"
        }
      ],
      "name": "fillOrder",
      "outputs": [],
      "stateMutability": "nonpayable",
      "type": "function"
    },
    {
      "inputs": [
        {
          "internalType": "address",
          "name": "_user",
          "type": "address"
        },
        {
          "internalType": "uint256",
          "name": "index",
          "type": "uint256"
        }
      ],
      "name": "getFilledOrder",
      "outputs": [
        {
          "internalType": "uint256",
          "name": "",
          "type": "uint256"
        },
        {
          "internalType": "uint256",
          "name": "",
          "type": "uint256"
        },
        {
          "internalType": "address",
          "name": "",
          "type": "address"
        },
        {
          "internalType": "uint256",
          "name": "",
          "type": "uint256"
        },
        {
          "internalType": "uint256",
          "name": "",
          "type": "uint256"
        }
      ],
      "stateMutability": "view",
      "type": "function"
    },
    {
      "inputs": [
        {
          "internalType": "address",
          "name": "_user",
          "type": "address"
        }
      ],
      "name": "getFilledOrderLength",
      "outputs": [
        {
          "internalType": "uint256",
          "name": "",
          "type": "uint256"
        }
      ],
      "stateMutability": "view",
      "type": "function"
    },
    {
      "inputs": [
        {
          "internalType": "address",
          "name": "_token",
          "type": "address"
        },
        {
          "internalType": "uint256",
          "name": "index",
          "type": "uint256"
        },
        {
          "internalType": "enum Exchange.Side",
          "name": "side",
          "type": "uint8"
        }
      ],
      "name": "getOrder",
      "outputs": [
        {
          "internalType": "uint256",
          "name": "",
          "type": "uint256"
        },
        {
          "internalType": "uint256",
          "name": "",
          "type": "uint256"
        },
        {
          "internalType": "address",
          "name": "",
          "type": "address"
        },
        {
          "internalType": "uint256",
          "name": "",
          "type": "uint256"
        },
        {
          "internalType": "uint256",
          "name": "",
          "type": "uint256"
        }
      ],
      "stateMutability": "view",
      "type": "function"
    },
    {
      "inputs": [
        {
          "components": [
            {
              "internalType": "uint256",
              "name": "id",
              "type": "uint256"
            },
            {
              "internalType": "address",
              "name": "user",
              "type": "address"
            },
            {
              "internalType": "address",
              "name": "token",
              "type": "address"
            },
            {
              "internalType": "uint256",
              "name": "amount",
              "type": "uint256"
            },
            {
              "internalType": "uint256",
              "name": "price",
              "type": "uint256"
            },
            {
              "internalType": "enum Exchange.Side",
              "name": "side",
              "type": "uint8"
            }
          ],
          "internalType": "struct Exchange._Order[]",
          "name": "_order",
          "type": "tuple[]"
        },
        {
          "internalType": "uint256",
          "name": "_id",
          "type": "uint256"
        }
      ],
      "name": "getOrderFromArray",
      "outputs": [
        {
          "components": [
            {
              "internalType": "uint256",
              "name": "id",
              "type": "uint256"
            },
            {
              "internalType": "address",
              "name": "user",
              "type": "address"
            },
            {
              "internalType": "address",
              "name": "token",
              "type": "address"
            },
            {
              "internalType": "uint256",
              "name": "amount",
              "type": "uint256"
            },
            {
              "internalType": "uint256",
              "name": "price",
              "type": "uint256"
            },
            {
              "internalType": "enum Exchange.Side",
              "name": "side",
              "type": "uint8"
            }
          ],
          "internalType": "struct Exchange._Order",
          "name": "",
          "type": "tuple"
        }
      ],
      "stateMutability": "pure",
      "type": "function"
    },
    {
      "inputs": [
        {
          "internalType": "enum Exchange.Side",
          "name": "side",
          "type": "uint8"
        },
        {
          "internalType": "address",
          "name": "_token",
          "type": "address"
        }
      ],
      "name": "getOrderLength",
      "outputs": [
        {
          "internalType": "uint256",
          "name": "",
          "type": "uint256"
        }
      ],
      "stateMutability": "view",
      "type": "function"
    },
    {
      "inputs": [
        {
          "internalType": "address",
          "name": "_user",
          "type": "address"
        },
        {
          "internalType": "address",
          "name": "_token",
          "type": "address"
        }
      ],
      "name": "getlockedFunds",
      "outputs": [
        {
          "internalType": "uint256",
          "name": "",
          "type": "uint256"
        }
      ],
      "stateMutability": "view",
      "type": "function"
    },
    {
      "inputs": [
        {
          "internalType": "address",
          "name": "_token",
          "type": "address"
        }
      ],
      "name": "isVerifiedToken",
      "outputs": [
        {
          "internalType": "bool",
          "name": "",
          "type": "bool"
        }
      ],
      "stateMutability": "view",
      "type": "function"
    },
    {
      "inputs": [
        {
          "internalType": "address",
          "name": "",
          "type": "address"
        },
        {
          "internalType": "address",
          "name": "",
          "type": "address"
        }
      ],
      "name": "lockedFunds",
      "outputs": [
        {
          "internalType": "uint256",
          "name": "",
          "type": "uint256"
        }
      ],
      "stateMutability": "view",
      "type": "function"
    },
    {
      "inputs": [
        {
          "internalType": "address",
          "name": "_token",
          "type": "address"
        },
        {
          "internalType": "uint256",
          "name": "_id",
          "type": "uint256"
        },
        {
          "internalType": "enum Exchange.Side",
          "name": "side",
          "type": "uint8"
        }
      ],
      "name": "matchOrders",
      "outputs": [],
      "stateMutability": "nonpayable",
      "type": "function"
    },
    {
      "inputs": [],
      "name": "owner",
      "outputs": [
        {
          "internalType": "address",
          "name": "",
          "type": "address"
        }
      ],
      "stateMutability": "view",
      "type": "function"
    },
    {
      "inputs": [],
      "name": "renounceOwnership",
      "outputs": [],
      "stateMutability": "nonpayable",
      "type": "function"
    },
    {
      "inputs": [
        {
          "internalType": "address",
          "name": "",
          "type": "address"
        },
        {
          "internalType": "uint256",
          "name": "",
          "type": "uint256"
        }
      ],
      "name": "s_filledOrders",
      "outputs": [
        {
          "internalType": "uint256",
          "name": "id",
          "type": "uint256"
        },
        {
          "internalType": "address",
          "name": "user",
          "type": "address"
        },
        {
          "internalType": "address",
          "name": "token",
          "type": "address"
        },
        {
          "internalType": "uint256",
          "name": "amount",
          "type": "uint256"
        },
        {
          "internalType": "uint256",
          "name": "price",
          "type": "uint256"
        },
        {
          "internalType": "enum Exchange.Side",
          "name": "side",
          "type": "uint8"
        }
      ],
      "stateMutability": "view",
      "type": "function"
    },
    {
      "inputs": [
        {
          "internalType": "address",
          "name": "",
          "type": "address"
        },
        {
          "internalType": "uint256",
          "name": "",
          "type": "uint256"
        },
        {
          "internalType": "uint256",
          "name": "",
          "type": "uint256"
        }
      ],
      "name": "s_orderBook",
      "outputs": [
        {
          "internalType": "uint256",
          "name": "id",
          "type": "uint256"
        },
        {
          "internalType": "address",
          "name": "user",
          "type": "address"
        },
        {
          "internalType": "address",
          "name": "token",
          "type": "address"
        },
        {
          "internalType": "uint256",
          "name": "amount",
          "type": "uint256"
        },
        {
          "internalType": "uint256",
          "name": "price",
          "type": "uint256"
        },
        {
          "internalType": "enum Exchange.Side",
          "name": "side",
          "type": "uint8"
        }
      ],
      "stateMutability": "view",
      "type": "function"
    },
    {
      "inputs": [],
      "name": "s_orderId",
      "outputs": [
        {
          "internalType": "uint256",
          "name": "",
          "type": "uint256"
        }
      ],
      "stateMutability": "view",
      "type": "function"
    },
    {
      "inputs": [
        {
          "internalType": "address",
          "name": "",
          "type": "address"
        },
        {
          "internalType": "address",
          "name": "",
          "type": "address"
        }
      ],
      "name": "s_tokens",
      "outputs": [
        {
          "internalType": "uint256",
          "name": "",
          "type": "uint256"
        }
      ],
      "stateMutability": "view",
      "type": "function"
    },
    {
      "inputs": [
        {
          "internalType": "uint256",
          "name": "",
          "type": "uint256"
        }
      ],
      "name": "tokenList",
      "outputs": [
        {
          "internalType": "address",
          "name": "",
          "type": "address"
        }
      ],
      "stateMutability": "view",
      "type": "function"
    },
    {
      "inputs": [
        {
          "internalType": "address",
          "name": "newOwner",
          "type": "address"
        }
      ],
      "name": "transferOwnership",
      "outputs": [],
      "stateMutability": "nonpayable",
      "type": "function"
    },
    {
      "inputs": [
        {
          "internalType": "address",
          "name": "_token",
          "type": "address"
        },
        {
          "internalType": "address",
          "name": "_user",
          "type": "address"
        },
        {
          "internalType": "uint256",
          "name": "_amount",
          "type": "uint256"
        },
        {
          "internalType": "bool",
          "name": "isAdd",
          "type": "bool"
        }
      ],
      "name": "updateBalance",
      "outputs": [],
      "stateMutability": "nonpayable",
      "type": "function"
    },
    {
      "inputs": [
        {
          "internalType": "address",
          "name": "_user",
          "type": "address"
        },
        {
          "internalType": "address",
          "name": "_token",
          "type": "address"
        },
        {
          "internalType": "uint256",
          "name": "_amount",
          "type": "uint256"
        },
        {
          "internalType": "bool",
          "name": "isAdd",
          "type": "bool"
        }
      ],
      "name": "updateLockedFunds",
      "outputs": [],
      "stateMutability": "nonpayable",
      "type": "function"
    }
  ],
  "transactionHash": "0x7030e0c6e882ee0e356beaff14e3313407f5c0f01135cf562150591be6a4a112",
  "args": [
    "0xCf7Ed3AccA5a467e9e704C703E8D87F634fB0Fc9"
  ],
  "numDeployments": 1,
  "solcInputHash": "4fd0718f90c713497cfe67ac44e8446a",
  "bytecode": "0x60a06040526000600260006101000a81548173ffffffffffffffffffffffffffffffffffffffff021916908373ffffffffffffffffffffffffffffffffffffffff160217905550670de0b6b3a764000060035560006009556001600a60006101000a81548160ff0219169083151502179055503480156200007f57600080fd5b50604051620052cf380380620052cf8339818101604052810190620000a5919062000517565b620000c5620000b9620001aa60201b60201c565b620001b260201b60201c565b80600160006101000a81548173ffffffffffffffffffffffffffffffffffffffff021916908373ffffffffffffffffffffffffffffffffffffffff16021790555062000139600160009054906101000a900473ffffffffffffffffffffffffffffffffffffffff166200027660201b60201c565b6200016c600260009054906101000a900473ffffffffffffffffffffffffffffffffffffffff166200027660201b60201c565b3373ffffffffffffffffffffffffffffffffffffffff1660808173ffffffffffffffffffffffffffffffffffffffff1660601b815250505062000747565b600033905090565b60008060009054906101000a900473ffffffffffffffffffffffffffffffffffffffff169050816000806101000a81548173ffffffffffffffffffffffffffffffffffffffff021916908373ffffffffffffffffffffffffffffffffffffffff1602179055508173ffffffffffffffffffffffffffffffffffffffff168173ffffffffffffffffffffffffffffffffffffffff167f8be0079c531659141344cd1fd0a4f28419497f9722a3daafe3b4186f6b6457e060405160405180910390a35050565b620002866200044660201b60201c565b600060048054806020026020016040519081016040528092919081815260200182805480156200030c57602002820191906000526020600020905b8160009054906101000a900473ffffffffffffffffffffffffffffffffffffffff1673ffffffffffffffffffffffffffffffffffffffff1681526020019060010190808311620002c1575b505050505090506000805b825181101562000393578373ffffffffffffffffffffffffffffffffffffffff168382815181106200034e576200034d620006a7565b5b602002602001015173ffffffffffffffffffffffffffffffffffffffff1614156200037d576001915062000393565b80806200038a906200062a565b91505062000317565b506000151581151514620003de576040517f08c379a0000000000000000000000000000000000000000000000000000000008152600401620003d59062000597565b60405180910390fd5b6004839080600181540180825580915050600190039060005260206000200160009091909190916101000a81548173ffffffffffffffffffffffffffffffffffffffff021916908373ffffffffffffffffffffffffffffffffffffffff160217905550505050565b62000456620001aa60201b60201c565b73ffffffffffffffffffffffffffffffffffffffff166200047c620004d760201b60201c565b73ffffffffffffffffffffffffffffffffffffffff1614620004d5576040517f08c379a0000000000000000000000000000000000000000000000000000000008152600401620004cc90620005b9565b60405180910390fd5b565b60008060009054906101000a900473ffffffffffffffffffffffffffffffffffffffff16905090565b60008151905062000511816200072d565b92915050565b60006020828403121562000530576200052f620006d6565b5b6000620005408482850162000500565b91505092915050565b600062000558601e83620005db565b91506200056582620006db565b602082019050919050565b60006200057f602083620005db565b91506200058c8262000704565b602082019050919050565b60006020820190508181036000830152620005b28162000549565b9050919050565b60006020820190508181036000830152620005d48162000570565b9050919050565b600082825260208201905092915050565b6000620005f98262000600565b9050919050565b600073ffffffffffffffffffffffffffffffffffffffff82169050919050565b6000819050919050565b6000620006378262000620565b91507fffffffffffffffffffffffffffffffffffffffffffffffffffffffffffffffff8214156200066d576200066c62000678565b5b600182019050919050565b7f4e487b7100000000000000000000000000000000000000000000000000000000600052601160045260246000fd5b7f4e487b7100000000000000000000000000000000000000000000000000000000600052603260045260246000fd5b600080fd5b7f546f6b656e20616c7265616479207665726966696564206f6e20444558210000600082015250565b7f4f776e61626c653a2063616c6c6572206973206e6f7420746865206f776e6572600082015250565b6200073881620005ec565b81146200074457600080fd5b50565b60805160601c614b69620007666000396000612e4b0152614b696000f3fe608060405234801561001057600080fd5b50600436106101a95760003560e01c80638da5cb5b116100f9578063cd5d767c11610097578063e947a69511610071578063e947a695146104fd578063f2fde38b1461052d578063f7888aec14610549578063f9242d9a14610579576101a9565b8063cd5d767c1461047d578063d48bfca7146104ad578063da55ac21146104c9576101a9565b80639ead7222116100d35780639ead7222146103e3578063a694ccf114610413578063b4a99a4e14610443578063c5ab460214610461576101a9565b80638da5cb5b1461038b5780639bb08f7c146103a95780639c07ce26146103c5576101a9565b80634fc121db1161016657806375c1cea21161014057806375c1cea2146102ed5780637bf1a6271461030957806382954685146103275780638879a9d314610357576101a9565b80634fc121db1461029757806350b08f5e146102c7578063715018a6146102e3576101a9565b80631027b219146101ae5780631347d60e146101de5780632061da58146101fa57806325faf3391461021657806346a8f8201461024b5780634bdde1cf14610267575b600080fd5b6101c860048036038101906101c39190613c24565b6105ae565b6040516101d59190614218565b60405180910390f35b6101f860048036038101906101f39190613e7a565b610660565b005b610214600480360381019061020f9190613d8b565b610e0e565b005b610230600480360381019061022b9190613cf8565b61118f565b6040516102429695949392919061443c565b60405180910390f35b61026560048036038101906102609190613c91565b611235565b005b610281600480360381019061027c9190613c51565b61146b565b60405161028e91906143ce565b60405180910390f35b6102b160048036038101906102ac9190613c51565b611490565b6040516102be91906143ce565b60405180910390f35b6102e160048036038101906102dc9190613d38565b611517565b005b6102eb612203565b005b61030760048036038101906103029190613d8b565b612217565b005b61031161262b565b60405161031e91906141fd565b60405180910390f35b610341600480360381019061033c9190613c24565b612651565b60405161034e91906143ce565b60405180910390f35b610371600480360381019061036c9190613d38565b61269d565b60405161038295949392919061449d565b60405180910390f35b61039361287b565b6040516103a091906141fd565b60405180910390f35b6103c360048036038101906103be9190613ecd565b6128a4565b005b6103cd612d82565b6040516103da91906143ce565b60405180910390f35b6103fd60048036038101906103f89190613f48565b612d88565b60405161040a91906141fd565b60405180910390f35b61042d60048036038101906104289190613dde565b612dc7565b60405161043a91906143b3565b60405180910390f35b61044b612e49565b60405161045891906141fd565b60405180910390f35b61047b60048036038101906104769190613c91565b612e6d565b005b61049760048036038101906104929190613c51565b6130a3565b6040516104a491906143ce565b60405180910390f35b6104c760048036038101906104c29190613c24565b6130c8565b005b6104e360048036038101906104de9190613cf8565b613282565b6040516104f495949392919061449d565b60405180910390f35b61051760048036038101906105129190613e3a565b61343c565b60405161052491906143ce565b60405180910390f35b61054760048036038101906105429190613c24565b6134ac565b005b610563600480360381019061055e9190613c51565b613530565b60405161057091906143ce565b60405180910390f35b610593600480360381019061058e9190613d8b565b6135b7565b6040516105a59695949392919061443c565b60405180910390f35b600080600480549050905060005b81811015610654578373ffffffffffffffffffffffffffffffffffffffff16600482815481106105ef576105ee61480a565b5b9060005260206000200160009054906101000a900473ffffffffffffffffffffffffffffffffffffffff1673ffffffffffffffffffffffffffffffffffffffff1614156106415760019250505061065b565b808061064c90614705565b9150506105bc565b5060009150505b919050565b6000821015801561067357506009548211155b6106b2576040517f08c379a00000000000000000000000000000000000000000000000000000000081526004016106a990614253565b60405180910390fd5b6106bb816105ae565b6106fa576040517f08c379a00000000000000000000000000000000000000000000000000000000081526004016106f190614293565b60405180910390fd5b6000600560008373ffffffffffffffffffffffffffffffffffffffff1673ffffffffffffffffffffffffffffffffffffffff16815260200190815260200160002060008560018111156107505761074f6147ac565b5b8152602001908152602001600020905060008180549050905061077161380c565b600080600090505b838110156108fb57868582815481106107955761079461480a565b5b90600052602060002090600602016000015414156108e8578091508481815481106107c3576107c261480a565b5b90600052602060002090600602016040518060c0016040529081600082015481526020016001820160009054906101000a900473ffffffffffffffffffffffffffffffffffffffff1673ffffffffffffffffffffffffffffffffffffffff1673ffffffffffffffffffffffffffffffffffffffff1681526020016002820160009054906101000a900473ffffffffffffffffffffffffffffffffffffffff1673ffffffffffffffffffffffffffffffffffffffff1673ffffffffffffffffffffffffffffffffffffffff16815260200160038201548152602001600482015481526020016005820160009054906101000a900460ff1660018111156108cb576108ca6147ac565b5b60018111156108dd576108dc6147ac565b5b8152505092506108fb565b80806108f390614705565b915050610779565b50600a60009054906101000a900460ff1615610a5257816020015173ffffffffffffffffffffffffffffffffffffffff163373ffffffffffffffffffffffffffffffffffffffff1614610983576040517f08c379a000000000000000000000000000000000000000000000000000000000815260040161097a906142f3565b60405180910390fd5b60006001811115610997576109966147ac565b5b8760018111156109aa576109a96147ac565b5b1415610a1257610a0d33600160009054906101000a900473ffffffffffffffffffffffffffffffffffffffff16610a066003546109f88760600151886080015161366a90919063ffffffff16565b61368090919063ffffffff16565b6000611235565b610a51565b600180811115610a2557610a246147ac565b5b876001811115610a3857610a376147ac565b5b1415610a5057610a4f338684606001516000611235565b5b5b5b60008190505b600184610a659190614633565b811015610bf95784600182610a7a9190614552565b81548110610a8b57610a8a61480a565b5b9060005260206000209060060201858281548110610aac57610aab61480a565b5b9060005260206000209060060201600082015481600001556001820160009054906101000a900473ffffffffffffffffffffffffffffffffffffffff168160010160006101000a81548173ffffffffffffffffffffffffffffffffffffffff021916908373ffffffffffffffffffffffffffffffffffffffff1602179055506002820160009054906101000a900473ffffffffffffffffffffffffffffffffffffffff168160020160006101000a81548173ffffffffffffffffffffffffffffffffffffffff021916908373ffffffffffffffffffffffffffffffffffffffff16021790555060038201548160030155600482015481600401556005820160009054906101000a900460ff168160050160006101000a81548160ff02191690836001811115610bde57610bdd6147ac565b5b02179055509050508080610bf190614705565b915050610a58565b5083600184610c089190614633565b81548110610c1957610c1861480a565b5b90600052602060002090600602016000808201600090556001820160006101000a81549073ffffffffffffffffffffffffffffffffffffffff02191690556002820160006101000a81549073ffffffffffffffffffffffffffffffffffffffff0219169055600382016000905560048201600090556005820160006101000a81549060ff0219169055505083805480610cb557610cb46147db565b5b60019003818190600052602060002090600602016000808201600090556001820160006101000a81549073ffffffffffffffffffffffffffffffffffffffff02191690556002820160006101000a81549073ffffffffffffffffffffffffffffffffffffffff0219169055600382016000905560048201600090556005820160006101000a81549060ff02191690555050905583600560008773ffffffffffffffffffffffffffffffffffffffff1673ffffffffffffffffffffffffffffffffffffffff1681526020019081526020016000206000896001811115610d9d57610d9c6147ac565b5b8152602001908152602001600020908054610db9929190613880565b507fca5fbf354151ee18d2ff58712c9ed7be34397aa5983abfaf40e2d8485867d9668260000151338785606001518660800151604051610dfd9594939291906143e9565b60405180910390a150505050505050565b610e17836105ae565b610e56576040517f08c379a0000000000000000000000000000000000000000000000000000000008152600401610e4d90614293565b60405180910390fd5b600160009054906101000a900473ffffffffffffffffffffffffffffffffffffffff1673ffffffffffffffffffffffffffffffffffffffff168373ffffffffffffffffffffffffffffffffffffffff161415610ee7576040517f08c379a0000000000000000000000000000000000000000000000000000000008152600401610ede90614373565b60405180910390fd5b81610ef23385611490565b610efc8533613530565b610f069190614633565b1015610f47576040517f08c379a0000000000000000000000000000000000000000000000000000000008152600401610f3e90614393565b60405180910390fd5b610f543384846001611235565b600560008473ffffffffffffffffffffffffffffffffffffffff1673ffffffffffffffffffffffffffffffffffffffff1681526020019081526020016000206000600180811115610fa857610fa76147ac565b5b81526020019081526020016000206040518060c0016040528060095481526020013373ffffffffffffffffffffffffffffffffffffffff1681526020018573ffffffffffffffffffffffffffffffffffffffff1681526020018481526020018381526020016001808111156110205761101f6147ac565b5b81525090806001815401808255809150506001900390600052602060002090600602016000909190919091506000820151816000015560208201518160010160006101000a81548173ffffffffffffffffffffffffffffffffffffffff021916908373ffffffffffffffffffffffffffffffffffffffff16021790555060408201518160020160006101000a81548173ffffffffffffffffffffffffffffffffffffffff021916908373ffffffffffffffffffffffffffffffffffffffff160217905550606082015181600301556080820151816004015560a08201518160050160006101000a81548160ff02191690836001811115611123576111226147ac565b5b021790555050507f95f7e844715189eed0317d8f771c63ce13ec6364f48022f3db86baf8ce584b956009543385858560016040516111669695949392919061443c565b60405180910390a1611184600160095461369690919063ffffffff16565b600981905550505050565b600860205281600052604060002081815481106111ab57600080fd5b9060005260206000209060060201600091509150508060000154908060010160009054906101000a900473ffffffffffffffffffffffffffffffffffffffff16908060020160009054906101000a900473ffffffffffffffffffffffffffffffffffffffff16908060030154908060040154908060050160009054906101000a900460ff16905086565b801561134f576112ca82600760008773ffffffffffffffffffffffffffffffffffffffff1673ffffffffffffffffffffffffffffffffffffffff16815260200190815260200160002060008673ffffffffffffffffffffffffffffffffffffffff1673ffffffffffffffffffffffffffffffffffffffff1681526020019081526020016000205461369690919063ffffffff16565b600760008673ffffffffffffffffffffffffffffffffffffffff1673ffffffffffffffffffffffffffffffffffffffff16815260200190815260200160002060008573ffffffffffffffffffffffffffffffffffffffff1673ffffffffffffffffffffffffffffffffffffffff16815260200190815260200160002081905550611465565b80611464576113e382600760008773ffffffffffffffffffffffffffffffffffffffff1673ffffffffffffffffffffffffffffffffffffffff16815260200190815260200160002060008673ffffffffffffffffffffffffffffffffffffffff1673ffffffffffffffffffffffffffffffffffffffff168152602001908152602001600020546136ac90919063ffffffff16565b600760008673ffffffffffffffffffffffffffffffffffffffff1673ffffffffffffffffffffffffffffffffffffffff16815260200190815260200160002060008573ffffffffffffffffffffffffffffffffffffffff1673ffffffffffffffffffffffffffffffffffffffff168152602001908152602001600020819055505b5b50505050565b6007602052816000526040600020602052806000526040600020600091509150505481565b6000600760008473ffffffffffffffffffffffffffffffffffffffff1673ffffffffffffffffffffffffffffffffffffffff16815260200190815260200160002060008373ffffffffffffffffffffffffffffffffffffffff1673ffffffffffffffffffffffffffffffffffffffff16815260200190815260200160002054905092915050565b6000611522846105ae565b611561576040517f08c379a000000000000000000000000000000000000000000000000000000000815260040161155890614293565b60405180910390fd5b6000831015801561157457506009548311155b61157d57600080fd5b60006001811115611591576115906147ac565b5b8260018111156115a4576115a36147ac565b5b1415611bbf576000600560008673ffffffffffffffffffffffffffffffffffffffff1673ffffffffffffffffffffffffffffffffffffffff1681526020019081526020016000206000808152602001908152602001600020805480602002602001604051908101604052809291908181526020016000905b8282101561175357838290600052602060002090600602016040518060c0016040529081600082015481526020016001820160009054906101000a900473ffffffffffffffffffffffffffffffffffffffff1673ffffffffffffffffffffffffffffffffffffffff1673ffffffffffffffffffffffffffffffffffffffff1681526020016002820160009054906101000a900473ffffffffffffffffffffffffffffffffffffffff1673ffffffffffffffffffffffffffffffffffffffff1673ffffffffffffffffffffffffffffffffffffffff16815260200160038201548152602001600482015481526020016005820160009054906101000a900460ff16600181111561172e5761172d6147ac565b5b60018111156117405761173f6147ac565b5b815250508152602001906001019061161c565b50505050905060006117658286612dc7565b90506000600560008873ffffffffffffffffffffffffffffffffffffffff1673ffffffffffffffffffffffffffffffffffffffff168152602001908152602001600020600060018152602001908152602001600020805480602002602001604051908101604052809291908181526020016000905b8282101561191157838290600052602060002090600602016040518060c0016040529081600082015481526020016001820160009054906101000a900473ffffffffffffffffffffffffffffffffffffffff1673ffffffffffffffffffffffffffffffffffffffff1673ffffffffffffffffffffffffffffffffffffffff1681526020016002820160009054906101000a900473ffffffffffffffffffffffffffffffffffffffff1673ffffffffffffffffffffffffffffffffffffffff1673ffffffffffffffffffffffffffffffffffffffff16815260200160038201548152602001600482015481526020016005820160009054906101000a900460ff1660018111156118ec576118eb6147ac565b5b60018111156118fe576118fd6147ac565b5b81525050815260200190600101906117da565b50505050905060005b8151811015611bb657826080015182828151811061193b5761193a61480a565b5b60200260200101516080015111611b915760008282815181106119615761196061480a565b5b60200260200101519050806060015184606001511115611987578060600151955061199f565b806060015184606001511161199e57836060015195505b5b6119ca6003546119bc83608001518961366a90919063ffffffff16565b61368090919063ffffffff16565b6119fa600160009054906101000a900473ffffffffffffffffffffffffffffffffffffffff168660200151613530565b1015611a3b576040517f08c379a0000000000000000000000000000000000000000000000000000000008152600401611a3290614233565b60405180910390fd5b85611a4a8a8360200151613530565b1015611a8b576040517f08c379a0000000000000000000000000000000000000000000000000000000008152600401611a8290614313565b60405180910390fd5b611a9d6000898b8985608001516128a4565b611ab3600182600001518b8985608001516128a4565b611ac4898560200151886001612e6d565b611b21600160009054906101000a900473ffffffffffffffffffffffffffffffffffffffff168560200151611b1a600354611b0c8b876080015161366a90919063ffffffff16565b61368090919063ffffffff16565b6000612e6d565b611b32898260200151886000612e6d565b611b8f600160009054906101000a900473ffffffffffffffffffffffffffffffffffffffff168260200151611b88600354611b7a8b876080015161366a90919063ffffffff16565b61368090919063ffffffff16565b6001612e6d565b505b600083606001511415611ba357611bb6565b8080611bae90614705565b91505061191a565b505050506121fd565b600180811115611bd257611bd16147ac565b5b826001811115611be557611be46147ac565b5b14156121fc576000600560008673ffffffffffffffffffffffffffffffffffffffff1673ffffffffffffffffffffffffffffffffffffffff168152602001908152602001600020600060018152602001908152602001600020805480602002602001604051908101604052809291908181526020016000905b82821015611d9557838290600052602060002090600602016040518060c0016040529081600082015481526020016001820160009054906101000a900473ffffffffffffffffffffffffffffffffffffffff1673ffffffffffffffffffffffffffffffffffffffff1673ffffffffffffffffffffffffffffffffffffffff1681526020016002820160009054906101000a900473ffffffffffffffffffffffffffffffffffffffff1673ffffffffffffffffffffffffffffffffffffffff1673ffffffffffffffffffffffffffffffffffffffff16815260200160038201548152602001600482015481526020016005820160009054906101000a900460ff166001811115611d7057611d6f6147ac565b5b6001811115611d8257611d816147ac565b5b8152505081526020019060010190611c5e565b5050505090506000611da78286612dc7565b90506000600560008873ffffffffffffffffffffffffffffffffffffffff1673ffffffffffffffffffffffffffffffffffffffff1681526020019081526020016000206000808152602001908152602001600020805480602002602001604051908101604052809291908181526020016000905b82821015611f5257838290600052602060002090600602016040518060c0016040529081600082015481526020016001820160009054906101000a900473ffffffffffffffffffffffffffffffffffffffff1673ffffffffffffffffffffffffffffffffffffffff1673ffffffffffffffffffffffffffffffffffffffff1681526020016002820160009054906101000a900473ffffffffffffffffffffffffffffffffffffffff1673ffffffffffffffffffffffffffffffffffffffff1673ffffffffffffffffffffffffffffffffffffffff16815260200160038201548152602001600482015481526020016005820160009054906101000a900460ff166001811115611f2d57611f2c6147ac565b5b6001811115611f3f57611f3e6147ac565b5b8152505081526020019060010190611e1b565b50505050905060005b81518110156121f7578260800151828281518110611f7c57611f7b61480a565b5b602002602001015160800151106121d2576000828281518110611fa257611fa161480a565b5b60200260200101519050806060015184606001511115611fc85780606001519550611fe0565b8060600151846060015111611fdf57836060015195505b5b85611fef8a8660200151613530565b1015612030576040517f08c379a000000000000000000000000000000000000000000000000000000000815260040161202790614313565b60405180910390fd5b61205b60035461204d83608001518961366a90919063ffffffff16565b61368090919063ffffffff16565b61208b600160009054906101000a900473ffffffffffffffffffffffffffffffffffffffff168360200151613530565b10156120cc576040517f08c379a00000000000000000000000000000000000000000000000000000000081526004016120c390614233565b60405180910390fd5b6120de6001898b8985608001516128a4565b6120f4600082600001518b8985608001516128a4565b612105898560200151886000612e6d565b612162600160009054906101000a900473ffffffffffffffffffffffffffffffffffffffff16856020015161215b60035461214d8b876080015161366a90919063ffffffff16565b61368090919063ffffffff16565b6001612e6d565b612173898260200151886001612e6d565b6121d0600160009054906101000a900473ffffffffffffffffffffffffffffffffffffffff1682602001516121c96003546121bb8b876080015161366a90919063ffffffff16565b61368090919063ffffffff16565b6000612e6d565b505b6000836060015114156121e4576121f7565b80806121ef90614705565b915050611f5b565b505050505b5b50505050565b61220b6136c2565b6122156000613740565b565b612220836105ae565b61225f576040517f08c379a000000000000000000000000000000000000000000000000000000000815260040161225690614293565b60405180910390fd5b600160009054906101000a900473ffffffffffffffffffffffffffffffffffffffff1673ffffffffffffffffffffffffffffffffffffffff168373ffffffffffffffffffffffffffffffffffffffff1614156122f0576040517f08c379a00000000000000000000000000000000000000000000000000000000081526004016122e7906142d3565b60405180910390fd5b600061231960035461230b848661366a90919063ffffffff16565b61368090919063ffffffff16565b90508061234833600160009054906101000a900473ffffffffffffffffffffffffffffffffffffffff16611490565b612374600160009054906101000a900473ffffffffffffffffffffffffffffffffffffffff1633613530565b61237e9190614633565b10156123bf576040517f08c379a00000000000000000000000000000000000000000000000000000000081526004016123b690614333565b60405180910390fd5b6123ee33600160009054906101000a900473ffffffffffffffffffffffffffffffffffffffff16836001611235565b600560008573ffffffffffffffffffffffffffffffffffffffff1673ffffffffffffffffffffffffffffffffffffffff1681526020019081526020016000206000806001811115612442576124416147ac565b5b81526020019081526020016000206040518060c0016040528060095481526020013373ffffffffffffffffffffffffffffffffffffffff1681526020018673ffffffffffffffffffffffffffffffffffffffff168152602001858152602001848152602001600060018111156124bb576124ba6147ac565b5b81525090806001815401808255809150506001900390600052602060002090600602016000909190919091506000820151816000015560208201518160010160006101000a81548173ffffffffffffffffffffffffffffffffffffffff021916908373ffffffffffffffffffffffffffffffffffffffff16021790555060408201518160020160006101000a81548173ffffffffffffffffffffffffffffffffffffffff021916908373ffffffffffffffffffffffffffffffffffffffff160217905550606082015181600301556080820151816004015560a08201518160050160006101000a81548160ff021916908360018111156125be576125bd6147ac565b5b021790555050507f95f7e844715189eed0317d8f771c63ce13ec6364f48022f3db86baf8ce584b956009543386868660006040516126019695949392919061443c565b60405180910390a161261f600160095461369690919063ffffffff16565b60098190555050505050565b600260009054906101000a900473ffffffffffffffffffffffffffffffffffffffff1681565b6000600860008373ffffffffffffffffffffffffffffffffffffffff1673ffffffffffffffffffffffffffffffffffffffff168152602001908152602001600020805490509050919050565b600080600080600080600560008a73ffffffffffffffffffffffffffffffffffffffff1673ffffffffffffffffffffffffffffffffffffffff16815260200190815260200160002060008860018111156126fa576126f96147ac565b5b8152602001908152602001600020888154811061271a5761271961480a565b5b90600052602060002090600602016040518060c0016040529081600082015481526020016001820160009054906101000a900473ffffffffffffffffffffffffffffffffffffffff1673ffffffffffffffffffffffffffffffffffffffff1673ffffffffffffffffffffffffffffffffffffffff1681526020016002820160009054906101000a900473ffffffffffffffffffffffffffffffffffffffff1673ffffffffffffffffffffffffffffffffffffffff1673ffffffffffffffffffffffffffffffffffffffff16815260200160038201548152602001600482015481526020016005820160009054906101000a900460ff166001811115612822576128216147ac565b5b6001811115612834576128336147ac565b5b81525050905080600001518160600151826020015183608001518460a001516001811115612865576128646147ac565b5b9550955095509550955050939792965093509350565b60008060009054906101000a900473ffffffffffffffffffffffffffffffffffffffff16905090565b600084101580156128b757506009548411155b6128c057600080fd5b6000600560008573ffffffffffffffffffffffffffffffffffffffff1673ffffffffffffffffffffffffffffffffffffffff1681526020019081526020016000206000876001811115612916576129156147ac565b5b8152602001908152602001600020805480602002602001604051908101604052809291908181526020016000905b82821015612a7b57838290600052602060002090600602016040518060c0016040529081600082015481526020016001820160009054906101000a900473ffffffffffffffffffffffffffffffffffffffff1673ffffffffffffffffffffffffffffffffffffffff1673ffffffffffffffffffffffffffffffffffffffff1681526020016002820160009054906101000a900473ffffffffffffffffffffffffffffffffffffffff1673ffffffffffffffffffffffffffffffffffffffff1673ffffffffffffffffffffffffffffffffffffffff16815260200160038201548152602001600482015481526020016005820160009054906101000a900460ff166001811115612a5657612a556147ac565b5b6001811115612a6857612a676147ac565b5b8152505081526020019060010190612944565b505050509050612a8961380c565b612a938287612dc7565b90508381606001511015612aa657600080fd5b612abd8482606001516136ac90919063ffffffff16565b81606001818152505060006001811115612ada57612ad96147ac565b5b876001811115612aed57612aec6147ac565b5b1415612b5557612b508160200151600160009054906101000a900473ffffffffffffffffffffffffffffffffffffffff16612b49600354612b3b89876080015161366a90919063ffffffff16565b61368090919063ffffffff16565b6000611235565b612b94565b600180811115612b6857612b676147ac565b5b876001811115612b7b57612b7a6147ac565b5b1415612b9357612b92816020015186866000611235565b5b5b7f6b2a78965102b6dcf63436e21fb398d05a11120cdd8b64e83291405e3387cdf2868260200151878787604051612bcf9594939291906143e9565b60405180910390a1600081606001511415612d795760086000826020015173ffffffffffffffffffffffffffffffffffffffff1673ffffffffffffffffffffffffffffffffffffffff1681526020019081526020016000208190806001815401808255809150506001900390600052602060002090600602016000909190919091506000820151816000015560208201518160010160006101000a81548173ffffffffffffffffffffffffffffffffffffffff021916908373ffffffffffffffffffffffffffffffffffffffff16021790555060408201518160020160006101000a81548173ffffffffffffffffffffffffffffffffffffffff021916908373ffffffffffffffffffffffffffffffffffffffff160217905550606082015181600301556080820151816004015560a08201518160050160006101000a81548160ff02191690836001811115612d2857612d276147ac565b5b021790555050506000600a60006101000a81548160ff021916908315150217905550612d5d8782600001518360400151610660565b6001600a60006101000a81548160ff0219169083151502179055505b50505050505050565b60095481565b60048181548110612d9857600080fd5b906000526020600020016000915054906101000a900473ffffffffffffffffffffffffffffffffffffffff1681565b612dcf61380c565b612dd761380c565b60005b8451811015612e3e5783858281518110612df757612df661480a565b5b6020026020010151600001511415612e2b57848181518110612e1c57612e1b61480a565b5b60200260200101519150612e3e565b8080612e3690614705565b915050612dda565b508091505092915050565b7f000000000000000000000000000000000000000000000000000000000000000081565b8015612f8757612f0282600660008773ffffffffffffffffffffffffffffffffffffffff1673ffffffffffffffffffffffffffffffffffffffff16815260200190815260200160002060008673ffffffffffffffffffffffffffffffffffffffff1673ffffffffffffffffffffffffffffffffffffffff1681526020019081526020016000205461369690919063ffffffff16565b600660008673ffffffffffffffffffffffffffffffffffffffff1673ffffffffffffffffffffffffffffffffffffffff16815260200190815260200160002060008573ffffffffffffffffffffffffffffffffffffffff1673ffffffffffffffffffffffffffffffffffffffff1681526020019081526020016000208190555061309d565b8061309c5761301b82600660008773ffffffffffffffffffffffffffffffffffffffff1673ffffffffffffffffffffffffffffffffffffffff16815260200190815260200160002060008673ffffffffffffffffffffffffffffffffffffffff1673ffffffffffffffffffffffffffffffffffffffff168152602001908152602001600020546136ac90919063ffffffff16565b600660008673ffffffffffffffffffffffffffffffffffffffff1673ffffffffffffffffffffffffffffffffffffffff16815260200190815260200160002060008573ffffffffffffffffffffffffffffffffffffffff1673ffffffffffffffffffffffffffffffffffffffff168152602001908152602001600020819055505b5b50505050565b6006602052816000526040600020602052806000526040600020600091509150505481565b6130d06136c2565b6000600480548060200260200160405190810160405280929190818152602001828054801561315457602002820191906000526020600020905b8160009054906101000a900473ffffffffffffffffffffffffffffffffffffffff1673ffffffffffffffffffffffffffffffffffffffff168152602001906001019080831161310a575b505050505090506000805b82518110156131d2578373ffffffffffffffffffffffffffffffffffffffff168382815181106131925761319161480a565b5b602002602001015173ffffffffffffffffffffffffffffffffffffffff1614156131bf57600191506131d2565b80806131ca90614705565b91505061315f565b50600015158115151461321a576040517f08c379a0000000000000000000000000000000000000000000000000000000008152600401613211906142b3565b60405180910390fd5b6004839080600181540180825580915050600190039060005260206000200160009091909190916101000a81548173ffffffffffffffffffffffffffffffffffffffff021916908373ffffffffffffffffffffffffffffffffffffffff160217905550505050565b600080600080600080600860008973ffffffffffffffffffffffffffffffffffffffff1673ffffffffffffffffffffffffffffffffffffffff16815260200190815260200160002087815481106132dc576132db61480a565b5b90600052602060002090600602016040518060c0016040529081600082015481526020016001820160009054906101000a900473ffffffffffffffffffffffffffffffffffffffff1673ffffffffffffffffffffffffffffffffffffffff1673ffffffffffffffffffffffffffffffffffffffff1681526020016002820160009054906101000a900473ffffffffffffffffffffffffffffffffffffffff1673ffffffffffffffffffffffffffffffffffffffff1673ffffffffffffffffffffffffffffffffffffffff16815260200160038201548152602001600482015481526020016005820160009054906101000a900460ff1660018111156133e4576133e36147ac565b5b60018111156133f6576133f56147ac565b5b81525050905080600001518160600151826020015183608001518460a001516001811115613427576134266147ac565b5b95509550955095509550509295509295909350565b6000600560008373ffffffffffffffffffffffffffffffffffffffff1673ffffffffffffffffffffffffffffffffffffffff1681526020019081526020016000206000846001811115613492576134916147ac565b5b815260200190815260200160002080549050905092915050565b6134b46136c2565b600073ffffffffffffffffffffffffffffffffffffffff168173ffffffffffffffffffffffffffffffffffffffff161415613524576040517f08c379a000000000000000000000000000000000000000000000000000000000815260040161351b90614273565b60405180910390fd5b61352d81613740565b50565b6000600660008473ffffffffffffffffffffffffffffffffffffffff1673ffffffffffffffffffffffffffffffffffffffff16815260200190815260200160002060008373ffffffffffffffffffffffffffffffffffffffff1673ffffffffffffffffffffffffffffffffffffffff16815260200190815260200160002054905092915050565b600560205282600052604060002060205281600052604060002081815481106135df57600080fd5b906000526020600020906006020160009250925050508060000154908060010160009054906101000a900473ffffffffffffffffffffffffffffffffffffffff16908060020160009054906101000a900473ffffffffffffffffffffffffffffffffffffffff16908060030154908060040154908060050160009054906101000a900460ff16905086565b6000818361367891906145d9565b905092915050565b6000818361368e91906145a8565b905092915050565b600081836136a49190614552565b905092915050565b600081836136ba9190614633565b905092915050565b6136ca613804565b73ffffffffffffffffffffffffffffffffffffffff166136e861287b565b73ffffffffffffffffffffffffffffffffffffffff161461373e576040517f08c379a000000000000000000000000000000000000000000000000000000000815260040161373590614353565b60405180910390fd5b565b60008060009054906101000a900473ffffffffffffffffffffffffffffffffffffffff169050816000806101000a81548173ffffffffffffffffffffffffffffffffffffffff021916908373ffffffffffffffffffffffffffffffffffffffff1602179055508173ffffffffffffffffffffffffffffffffffffffff168173ffffffffffffffffffffffffffffffffffffffff167f8be0079c531659141344cd1fd0a4f28419497f9722a3daafe3b4186f6b6457e060405160405180910390a35050565b600033905090565b6040518060c0016040528060008152602001600073ffffffffffffffffffffffffffffffffffffffff168152602001600073ffffffffffffffffffffffffffffffffffffffff16815260200160008152602001600081526020016000600181111561387a576138796147ac565b5b81525090565b8280548282559060005260206000209060060281019282156139f05760005260206000209160060282015b828111156139ef578282600082015481600001556001820160009054906101000a900473ffffffffffffffffffffffffffffffffffffffff168160010160006101000a81548173ffffffffffffffffffffffffffffffffffffffff021916908373ffffffffffffffffffffffffffffffffffffffff1602179055506002820160009054906101000a900473ffffffffffffffffffffffffffffffffffffffff168160020160006101000a81548173ffffffffffffffffffffffffffffffffffffffff021916908373ffffffffffffffffffffffffffffffffffffffff16021790555060038201548160030155600482015481600401556005820160009054906101000a900460ff168160050160006101000a81548160ff021916908360018111156139d9576139d86147ac565b5b02179055505050916006019190600601906138ab565b5b5090506139fd9190613a01565b5090565b5b80821115613a8e576000808201600090556001820160006101000a81549073ffffffffffffffffffffffffffffffffffffffff02191690556002820160006101000a81549073ffffffffffffffffffffffffffffffffffffffff0219169055600382016000905560048201600090556005820160006101000a81549060ff021916905550600601613a02565b5090565b6000613aa5613aa084614515565b6144f0565b905080838252602082019050828560c0860282011115613ac857613ac7614872565b5b60005b85811015613af85781613ade8882613b6f565b845260208401935060c08301925050600181019050613acb565b5050509392505050565b600081359050613b1181614ade565b92915050565b600082601f830112613b2c57613b2b614868565b5b8135613b3c848260208601613a92565b91505092915050565b600081359050613b5481614af5565b92915050565b600081359050613b6981614b0c565b92915050565b600060c08284031215613b8557613b8461486d565b5b613b8f60c06144f0565b90506000613b9f84828501613c0f565b6000830152506020613bb384828501613b02565b6020830152506040613bc784828501613b02565b6040830152506060613bdb84828501613c0f565b6060830152506080613bef84828501613c0f565b60808301525060a0613c0384828501613b5a565b60a08301525092915050565b600081359050613c1e81614b1c565b92915050565b600060208284031215613c3a57613c3961487c565b5b6000613c4884828501613b02565b91505092915050565b60008060408385031215613c6857613c6761487c565b5b6000613c7685828601613b02565b9250506020613c8785828601613b02565b9150509250929050565b60008060008060808587031215613cab57613caa61487c565b5b6000613cb987828801613b02565b9450506020613cca87828801613b02565b9350506040613cdb87828801613c0f565b9250506060613cec87828801613b45565b91505092959194509250565b60008060408385031215613d0f57613d0e61487c565b5b6000613d1d85828601613b02565b9250506020613d2e85828601613c0f565b9150509250929050565b600080600060608486031215613d5157613d5061487c565b5b6000613d5f86828701613b02565b9350506020613d7086828701613c0f565b9250506040613d8186828701613b5a565b9150509250925092565b600080600060608486031215613da457613da361487c565b5b6000613db286828701613b02565b9350506020613dc386828701613c0f565b9250506040613dd486828701613c0f565b9150509250925092565b60008060408385031215613df557613df461487c565b5b600083013567ffffffffffffffff811115613e1357613e12614877565b5b613e1f85828601613b17565b9250506020613e3085828601613c0f565b9150509250929050565b60008060408385031215613e5157613e5061487c565b5b6000613e5f85828601613b5a565b9250506020613e7085828601613b02565b9150509250929050565b600080600060608486031215613e9357613e9261487c565b5b6000613ea186828701613b5a565b9350506020613eb286828701613c0f565b9250506040613ec386828701613b02565b9150509250925092565b600080600080600060a08688031215613ee957613ee861487c565b5b6000613ef788828901613b5a565b9550506020613f0888828901613c0f565b9450506040613f1988828901613b02565b9350506060613f2a88828901613c0f565b9250506080613f3b88828901613c0f565b9150509295509295909350565b600060208284031215613f5e57613f5d61487c565b5b6000613f6c84828501613c0f565b91505092915050565b613f7e81614667565b82525050565b613f8d81614667565b82525050565b613f9c81614679565b82525050565b613fab816146c2565b82525050565b613fba816146c2565b82525050565b6000613fcd601f83614541565b9150613fd882614892565b602082019050919050565b6000613ff0601083614541565b9150613ffb826148bb565b602082019050919050565b6000614013602683614541565b915061401e826148e4565b604082019050919050565b6000614036601883614541565b915061404182614933565b602082019050919050565b6000614059601e83614541565b91506140648261495c565b602082019050919050565b600061407c601783614541565b915061408782614985565b602082019050919050565b600061409f600f83614541565b91506140aa826149ae565b602082019050919050565b60006140c2602183614541565b91506140cd826149d7565b604082019050919050565b60006140e5601183614541565b91506140f082614a26565b602082019050919050565b6000614108602083614541565b915061411382614a4f565b602082019050919050565b600061412b601383614541565b915061413682614a78565b602082019050919050565b600061414e601383614541565b915061415982614aa1565b602082019050919050565b60c08201600082015161417a60008501826141df565b50602082015161418d6020850182613f75565b5060408201516141a06040850182613f75565b5060608201516141b360608501826141df565b5060808201516141c660808501826141df565b5060a08201516141d960a0850182613fa2565b50505050565b6141e8816146b8565b82525050565b6141f7816146b8565b82525050565b60006020820190506142126000830184613f84565b92915050565b600060208201905061422d6000830184613f93565b92915050565b6000602082019050818103600083015261424c81613fc0565b9050919050565b6000602082019050818103600083015261426c81613fe3565b9050919050565b6000602082019050818103600083015261428c81614006565b9050919050565b600060208201905081810360008301526142ac81614029565b9050919050565b600060208201905081810360008301526142cc8161404c565b9050919050565b600060208201905081810360008301526142ec8161406f565b9050919050565b6000602082019050818103600083015261430c81614092565b9050919050565b6000602082019050818103600083015261432c816140b5565b9050919050565b6000602082019050818103600083015261434c816140d8565b9050919050565b6000602082019050818103600083015261436c816140fb565b9050919050565b6000602082019050818103600083015261438c8161411e565b9050919050565b600060208201905081810360008301526143ac81614141565b9050919050565b600060c0820190506143c86000830184614164565b92915050565b60006020820190506143e360008301846141ee565b92915050565b600060a0820190506143fe60008301886141ee565b61440b6020830187613f84565b6144186040830186613f84565b61442560608301856141ee565b61443260808301846141ee565b9695505050505050565b600060c08201905061445160008301896141ee565b61445e6020830188613f84565b61446b6040830187613f84565b61447860608301866141ee565b61448560808301856141ee565b61449260a0830184613fb1565b979650505050505050565b600060a0820190506144b260008301886141ee565b6144bf60208301876141ee565b6144cc6040830186613f84565b6144d960608301856141ee565b6144e660808301846141ee565b9695505050505050565b60006144fa61450b565b905061450682826146d4565b919050565b6000604051905090565b600067ffffffffffffffff8211156145305761452f614839565b5b602082029050602081019050919050565b600082825260208201905092915050565b600061455d826146b8565b9150614568836146b8565b9250827fffffffffffffffffffffffffffffffffffffffffffffffffffffffffffffffff0382111561459d5761459c61474e565b5b828201905092915050565b60006145b3826146b8565b91506145be836146b8565b9250826145ce576145cd61477d565b5b828204905092915050565b60006145e4826146b8565b91506145ef836146b8565b9250817fffffffffffffffffffffffffffffffffffffffffffffffffffffffffffffffff04831182151516156146285761462761474e565b5b828202905092915050565b600061463e826146b8565b9150614649836146b8565b92508282101561465c5761465b61474e565b5b828203905092915050565b600061467282614698565b9050919050565b60008115159050919050565b600081905061469382614aca565b919050565b600073ffffffffffffffffffffffffffffffffffffffff82169050919050565b6000819050919050565b60006146cd82614685565b9050919050565b6146dd82614881565b810181811067ffffffffffffffff821117156146fc576146fb614839565b5b80604052505050565b6000614710826146b8565b91507fffffffffffffffffffffffffffffffffffffffffffffffffffffffffffffffff8214156147435761474261474e565b5b600182019050919050565b7f4e487b7100000000000000000000000000000000000000000000000000000000600052601160045260246000fd5b7f4e487b7100000000000000000000000000000000000000000000000000000000600052601260045260246000fd5b7f4e487b7100000000000000000000000000000000000000000000000000000000600052602160045260246000fd5b7f4e487b7100000000000000000000000000000000000000000000000000000000600052603160045260246000fd5b7f4e487b7100000000000000000000000000000000000000000000000000000000600052603260045260246000fd5b7f4e487b7100000000000000000000000000000000000000000000000000000000600052604160045260246000fd5b600080fd5b600080fd5b600080fd5b600080fd5b600080fd5b6000601f19601f8301169050919050565b7f496e73756666696369656e7420627579657220555344432042616c616e636500600082015250565b7f496e76616c6964204f7264657220494400000000000000000000000000000000600082015250565b7f4f776e61626c653a206e6577206f776e657220697320746865207a65726f206160008201527f6464726573730000000000000000000000000000000000000000000000000000602082015250565b7f546f6b656e20756e617661696c61626c6520696e204445580000000000000000600082015250565b7f546f6b656e20616c7265616479207665726966696564206f6e20444558210000600082015250565b7f556e61626c6520746f2070757263686173652055534443000000000000000000600082015250565b7f4e6f74204f72646572204f776e65720000000000000000000000000000000000600082015250565b7f496e73756666696369656e742073656c6c657220546f6b656e2042616c616e6360008201527f6500000000000000000000000000000000000000000000000000000000000000602082015250565b7f496e73756666696369656e742055534443000000000000000000000000000000600082015250565b7f4f776e61626c653a2063616c6c6572206973206e6f7420746865206f776e6572600082015250565b7f556e61626c6520746f2073656c6c205553444300000000000000000000000000600082015250565b7f496e73756666696369656e7420746f6b656e7300000000000000000000000000600082015250565b60028110614adb57614ada6147ac565b5b50565b614ae781614667565b8114614af257600080fd5b50565b614afe81614679565b8114614b0957600080fd5b50565b60028110614b1957600080fd5b50565b614b25816146b8565b8114614b3057600080fd5b5056fea2646970667358221220cb047bb959c643f2004029b291856bf652533b689d39ffc52ef9ff364eac05b764736f6c63430008070033",
  "devdoc": {
    "kind": "dev",
    "methods": {
      "owner()": {
        "details": "Returns the address of the current owner."
      },
      "renounceOwnership()": {
        "details": "Leaves the contract without owner. It will not be possible to call `onlyOwner` functions anymore. Can only be called by the current owner. NOTE: Renouncing ownership will leave the contract without an owner, thereby removing any functionality that is only available to the owner."
      },
      "transferOwnership(address)": {
        "details": "Transfers ownership of the contract to a new account (`newOwner`). Can only be called by the current owner."
      }
    },
    "version": 1
  },
  "userdoc": {
    "events": {
      "Cancel(uint256,address,address,uint256,uint256)": {
        "notice": "Event when an order is cancelled"
      },
      "Order(uint256,address,address,uint256,uint256,uint8)": {
        "notice": "Event when an order is placed on an exchange"
      }
    },
    "kind": "user",
    "methods": {},
    "version": 1
  },
  "storageLayout": {
    "storage": [
      {
        "astId": 53,
        "contract": "contracts/Exchange.sol:Exchange",
        "label": "_owner",
        "offset": 0,
        "slot": "0",
        "type": "t_address"
      },
      {
        "astId": 1199,
        "contract": "contracts/Exchange.sol:Exchange",
        "label": "usdc",
        "offset": 0,
        "slot": "1",
        "type": "t_address"
      },
      {
        "astId": 1205,
        "contract": "contracts/Exchange.sol:Exchange",
        "label": "ethToken",
        "offset": 0,
        "slot": "2",
        "type": "t_address"
      },
      {
        "astId": 1210,
        "contract": "contracts/Exchange.sol:Exchange",
        "label": "decimals",
        "offset": 0,
        "slot": "3",
        "type": "t_uint256"
      },
      {
        "astId": 1213,
        "contract": "contracts/Exchange.sol:Exchange",
        "label": "tokenList",
        "offset": 0,
        "slot": "4",
        "type": "t_array(t_address)dyn_storage"
      },
      {
        "astId": 1221,
        "contract": "contracts/Exchange.sol:Exchange",
        "label": "s_orderBook",
        "offset": 0,
        "slot": "5",
        "type": "t_mapping(t_address,t_mapping(t_uint256,t_array(t_struct(_Order)1259_storage)dyn_storage))"
      },
      {
        "astId": 1227,
        "contract": "contracts/Exchange.sol:Exchange",
        "label": "s_tokens",
        "offset": 0,
        "slot": "6",
        "type": "t_mapping(t_address,t_mapping(t_address,t_uint256))"
      },
      {
        "astId": 1233,
        "contract": "contracts/Exchange.sol:Exchange",
        "label": "lockedFunds",
        "offset": 0,
        "slot": "7",
        "type": "t_mapping(t_address,t_mapping(t_address,t_uint256))"
      },
      {
        "astId": 1239,
        "contract": "contracts/Exchange.sol:Exchange",
        "label": "s_filledOrders",
        "offset": 0,
        "slot": "8",
        "type": "t_mapping(t_address,t_array(t_struct(_Order)1259_storage)dyn_storage)"
      },
      {
        "astId": 1242,
        "contract": "contracts/Exchange.sol:Exchange",
        "label": "s_orderId",
        "offset": 0,
        "slot": "9",
        "type": "t_uint256"
      },
      {
        "astId": 1245,
        "contract": "contracts/Exchange.sol:Exchange",
        "label": "s_isManual",
        "offset": 0,
        "slot": "10",
        "type": "t_bool"
      }
    ],
    "types": {
      "t_address": {
        "encoding": "inplace",
        "label": "address",
        "numberOfBytes": "20"
      },
      "t_array(t_address)dyn_storage": {
        "base": "t_address",
        "encoding": "dynamic_array",
        "label": "address[]",
        "numberOfBytes": "32"
      },
      "t_array(t_struct(_Order)1259_storage)dyn_storage": {
        "base": "t_struct(_Order)1259_storage",
        "encoding": "dynamic_array",
        "label": "struct Exchange._Order[]",
        "numberOfBytes": "32"
      },
      "t_bool": {
        "encoding": "inplace",
        "label": "bool",
        "numberOfBytes": "1"
      },
      "t_enum(Side)1262": {
        "encoding": "inplace",
        "label": "enum Exchange.Side",
        "numberOfBytes": "1"
      },
      "t_mapping(t_address,t_array(t_struct(_Order)1259_storage)dyn_storage)": {
        "encoding": "mapping",
        "key": "t_address",
        "label": "mapping(address => struct Exchange._Order[])",
        "numberOfBytes": "32",
        "value": "t_array(t_struct(_Order)1259_storage)dyn_storage"
      },
      "t_mapping(t_address,t_mapping(t_address,t_uint256))": {
        "encoding": "mapping",
        "key": "t_address",
        "label": "mapping(address => mapping(address => uint256))",
        "numberOfBytes": "32",
        "value": "t_mapping(t_address,t_uint256)"
      },
      "t_mapping(t_address,t_mapping(t_uint256,t_array(t_struct(_Order)1259_storage)dyn_storage))": {
        "encoding": "mapping",
        "key": "t_address",
        "label": "mapping(address => mapping(uint256 => struct Exchange._Order[]))",
        "numberOfBytes": "32",
        "value": "t_mapping(t_uint256,t_array(t_struct(_Order)1259_storage)dyn_storage)"
      },
      "t_mapping(t_address,t_uint256)": {
        "encoding": "mapping",
        "key": "t_address",
        "label": "mapping(address => uint256)",
        "numberOfBytes": "32",
        "value": "t_uint256"
      },
      "t_mapping(t_uint256,t_array(t_struct(_Order)1259_storage)dyn_storage)": {
        "encoding": "mapping",
        "key": "t_uint256",
        "label": "mapping(uint256 => struct Exchange._Order[])",
        "numberOfBytes": "32",
        "value": "t_array(t_struct(_Order)1259_storage)dyn_storage"
      },
      "t_struct(_Order)1259_storage": {
        "encoding": "inplace",
        "label": "struct Exchange._Order",
        "members": [
          {
            "astId": 1247,
            "contract": "contracts/Exchange.sol:Exchange",
            "label": "id",
            "offset": 0,
            "slot": "0",
            "type": "t_uint256"
          },
          {
            "astId": 1249,
            "contract": "contracts/Exchange.sol:Exchange",
            "label": "user",
            "offset": 0,
            "slot": "1",
            "type": "t_address"
          },
          {
            "astId": 1251,
            "contract": "contracts/Exchange.sol:Exchange",
            "label": "token",
            "offset": 0,
            "slot": "2",
            "type": "t_address"
          },
          {
            "astId": 1253,
            "contract": "contracts/Exchange.sol:Exchange",
            "label": "amount",
            "offset": 0,
            "slot": "3",
            "type": "t_uint256"
          },
          {
            "astId": 1255,
            "contract": "contracts/Exchange.sol:Exchange",
            "label": "price",
            "offset": 0,
            "slot": "4",
            "type": "t_uint256"
          },
          {
            "astId": 1258,
            "contract": "contracts/Exchange.sol:Exchange",
            "label": "side",
            "offset": 0,
            "slot": "5",
            "type": "t_enum(Side)1262"
          }
        ],
        "numberOfBytes": "192"
      },
      "t_uint256": {
        "encoding": "inplace",
        "label": "uint256",
        "numberOfBytes": "32"
      }
    }
  }
}