{
  "address": "0x5FeaeBfB4439F3516c74939A9D04e95AFE82C4ae",
  "abi": [
    {
      "inputs": [
        {
          "internalType": "address",
          "name": "_ExchangeAdd",
          "type": "address"
        }
      ],
      "stateMutability": "nonpayable",
      "type": "constructor"
    },
    {
      "anonymous": false,
      "inputs": [
        {
          "indexed": false,
          "internalType": "address",
          "name": "token",
          "type": "address"
        },
        {
          "indexed": false,
          "internalType": "address",
          "name": "user",
          "type": "address"
        },
        {
          "indexed": false,
          "internalType": "uint256",
          "name": "amount",
          "type": "uint256"
        },
        {
          "indexed": false,
          "internalType": "uint256",
          "name": "balance",
          "type": "uint256"
        }
      ],
      "name": "Deposit",
      "type": "event"
    },
    {
      "anonymous": false,
      "inputs": [
        {
          "indexed": true,
          "internalType": "address",
          "name": "previousOwner",
          "type": "address"
        },
        {
          "indexed": true,
          "internalType": "address",
          "name": "newOwner",
          "type": "address"
        }
      ],
      "name": "OwnershipTransferred",
      "type": "event"
    },
    {
      "anonymous": false,
      "inputs": [
        {
          "indexed": false,
          "internalType": "address",
          "name": "token",
          "type": "address"
        },
        {
          "indexed": false,
          "internalType": "address",
          "name": "user",
          "type": "address"
        },
        {
          "indexed": false,
          "internalType": "uint256",
          "name": "amount",
          "type": "uint256"
        },
        {
          "indexed": false,
          "internalType": "uint256",
          "name": "balance",
          "type": "uint256"
        }
      ],
      "name": "Withdraw",
      "type": "event"
    },
    {
      "inputs": [],
      "name": "Owner",
      "outputs": [
        {
          "internalType": "address",
          "name": "",
          "type": "address"
        }
      ],
      "stateMutability": "view",
      "type": "function"
    },
    {
      "inputs": [],
      "name": "depositETH",
      "outputs": [],
      "stateMutability": "payable",
      "type": "function"
    },
    {
      "inputs": [
        {
          "internalType": "address",
          "name": "_token",
          "type": "address"
        },
        {
          "internalType": "uint256",
          "name": "_amount",
          "type": "uint256"
        }
      ],
      "name": "depositToken",
      "outputs": [],
      "stateMutability": "nonpayable",
      "type": "function"
    },
    {
      "inputs": [],
      "name": "ethToken",
      "outputs": [
        {
          "internalType": "address",
          "name": "",
          "type": "address"
        }
      ],
      "stateMutability": "view",
      "type": "function"
    },
    {
      "inputs": [],
      "name": "owner",
      "outputs": [
        {
          "internalType": "address",
          "name": "",
          "type": "address"
        }
      ],
      "stateMutability": "view",
      "type": "function"
    },
    {
      "inputs": [],
      "name": "renounceOwnership",
      "outputs": [],
      "stateMutability": "nonpayable",
      "type": "function"
    },
    {
      "inputs": [
        {
          "internalType": "address",
          "name": "newOwner",
          "type": "address"
        }
      ],
      "name": "transferOwnership",
      "outputs": [],
      "stateMutability": "nonpayable",
      "type": "function"
    },
    {
      "inputs": [
        {
          "internalType": "uint256",
          "name": "_amount",
          "type": "uint256"
        }
      ],
      "name": "withdrawETH",
      "outputs": [],
      "stateMutability": "nonpayable",
      "type": "function"
    },
    {
      "inputs": [
        {
          "internalType": "address",
          "name": "_token",
          "type": "address"
        },
        {
          "internalType": "uint256",
          "name": "_amount",
          "type": "uint256"
        }
      ],
      "name": "withdrawToken",
      "outputs": [],
      "stateMutability": "nonpayable",
      "type": "function"
    }
  ],
  "transactionHash": "0x5a462e687c35acab3759ef29c162e4e39ff0859b0937e82c5d0e2b37c26cef88",
  "args": [
    "0xB0f05d25e41FbC2b52013099ED9616f1206Ae21B"
  ],
  "numDeployments": 1,
  "solcInputHash": "30535f268c630507efd0d6ad3941b7af",
  "bytecode": "0x60a06040526000600160006101000a81548173ffffffffffffffffffffffffffffffffffffffff021916908373ffffffffffffffffffffffffffffffffffffffff1602179055503480156200005357600080fd5b5060405162001ebc38038062001ebc8339818101604052810190620000799190620001fb565b620000996200008d6200011860201b60201c565b6200012060201b60201c565b80600260006101000a81548173ffffffffffffffffffffffffffffffffffffffff021916908373ffffffffffffffffffffffffffffffffffffffff1602179055503373ffffffffffffffffffffffffffffffffffffffff1660808173ffffffffffffffffffffffffffffffffffffffff1660601b815250505062000280565b600033905090565b60008060009054906101000a900473ffffffffffffffffffffffffffffffffffffffff169050816000806101000a81548173ffffffffffffffffffffffffffffffffffffffff021916908373ffffffffffffffffffffffffffffffffffffffff1602179055508173ffffffffffffffffffffffffffffffffffffffff168173ffffffffffffffffffffffffffffffffffffffff167f8be0079c531659141344cd1fd0a4f28419497f9722a3daafe3b4186f6b6457e060405160405180910390a35050565b600081519050620001f58162000266565b92915050565b60006020828403121562000214576200021362000261565b5b60006200022484828501620001e4565b91505092915050565b60006200023a8262000241565b9050919050565b600073ffffffffffffffffffffffffffffffffffffffff82169050919050565b600080fd5b62000271816200022d565b81146200027d57600080fd5b50565b60805160601c611c1d6200029f6000396000610be10152611c1d6000f3fe6080604052600436106100865760003560e01c80639e281a98116100595780639e281a9814610121578063b4a99a4e1461014a578063f14210a614610175578063f2fde38b1461019e578063f6326fb3146101c757610086565b8063338b5dea1461008b578063715018a6146100b45780637bf1a627146100cb5780638da5cb5b146100f6575b600080fd5b34801561009757600080fd5b506100b260048036038101906100ad9190611539565b6101d1565b005b3480156100c057600080fd5b506100c9610592565b005b3480156100d757600080fd5b506100e06105a6565b6040516100ed919061175a565b60405180910390f35b34801561010257600080fd5b5061010b6105cc565b604051610118919061175a565b60405180910390f35b34801561012d57600080fd5b5061014860048036038101906101439190611539565b6105f5565b005b34801561015657600080fd5b5061015f610bdf565b60405161016c919061175a565b60405180910390f35b34801561018157600080fd5b5061019c600480360381019061019791906115a6565b610c03565b005b3480156101aa57600080fd5b506101c560048036038101906101c0919061150c565b611105565b005b6101cf611189565b005b600160009054906101000a900473ffffffffffffffffffffffffffffffffffffffff1673ffffffffffffffffffffffffffffffffffffffff168273ffffffffffffffffffffffffffffffffffffffff16141561022c57600080fd5b600260009054906101000a900473ffffffffffffffffffffffffffffffffffffffff1673ffffffffffffffffffffffffffffffffffffffff16631027b219836040518263ffffffff1660e01b8152600401610287919061175a565b60206040518083038186803b15801561029f57600080fd5b505afa1580156102b3573d6000803e3d6000fd5b505050506040513d601f19601f820116820180604052508101906102d79190611579565b610316576040517f08c379a000000000000000000000000000000000000000000000000000000000815260040161030d90611908565b60405180910390fd5b81600360006101000a81548173ffffffffffffffffffffffffffffffffffffffff021916908373ffffffffffffffffffffffffffffffffffffffff160217905550600360009054906101000a900473ffffffffffffffffffffffffffffffffffffffff1673ffffffffffffffffffffffffffffffffffffffff166323b872dd3330846040518463ffffffff1660e01b81526004016103b69392919061179e565b602060405180830381600087803b1580156103d057600080fd5b505af11580156103e4573d6000803e3d6000fd5b505050506040513d601f19601f820116820180604052508101906104089190611579565b61041157600080fd5b600260009054906101000a900473ffffffffffffffffffffffffffffffffffffffff1673ffffffffffffffffffffffffffffffffffffffff1663c5ab460283338460016040518563ffffffff1660e01b815260040161047394939291906117d5565b600060405180830381600087803b15801561048d57600080fd5b505af11580156104a1573d6000803e3d6000fd5b505050507fdcbc1c05240f31ff3ad067ef1ee35ce4997762752e3a095284754544f4c709d7823383600260009054906101000a900473ffffffffffffffffffffffffffffffffffffffff1673ffffffffffffffffffffffffffffffffffffffff1663f7888aec87336040518363ffffffff1660e01b8152600401610526929190611775565b60206040518083038186803b15801561053e57600080fd5b505afa158015610552573d6000803e3d6000fd5b505050506040513d601f19601f8201168201806040525081019061057691906115d3565b604051610586949392919061181a565b60405180910390a15050565b61059a61136e565b6105a460006113ec565b565b600160009054906101000a900473ffffffffffffffffffffffffffffffffffffffff1681565b60008060009054906101000a900473ffffffffffffffffffffffffffffffffffffffff16905090565b600160009054906101000a900473ffffffffffffffffffffffffffffffffffffffff1673ffffffffffffffffffffffffffffffffffffffff168273ffffffffffffffffffffffffffffffffffffffff16141561065057600080fd5b600260009054906101000a900473ffffffffffffffffffffffffffffffffffffffff1673ffffffffffffffffffffffffffffffffffffffff16631027b219836040518263ffffffff1660e01b81526004016106ab919061175a565b60206040518083038186803b1580156106c357600080fd5b505afa1580156106d7573d6000803e3d6000fd5b505050506040513d601f19601f820116820180604052508101906106fb9190611579565b61073a576040517f08c379a000000000000000000000000000000000000000000000000000000000815260040161073190611908565b60405180910390fd5b80600260009054906101000a900473ffffffffffffffffffffffffffffffffffffffff1673ffffffffffffffffffffffffffffffffffffffff16634fc121db33856040518363ffffffff1660e01b8152600401610798929190611775565b60206040518083038186803b1580156107b057600080fd5b505afa1580156107c4573d6000803e3d6000fd5b505050506040513d601f19601f820116820180604052508101906107e891906115d3565b600260009054906101000a900473ffffffffffffffffffffffffffffffffffffffff1673ffffffffffffffffffffffffffffffffffffffff1663f7888aec85336040518363ffffffff1660e01b8152600401610845929190611775565b60206040518083038186803b15801561085d57600080fd5b505afa158015610871573d6000803e3d6000fd5b505050506040513d601f19601f8201168201806040525081019061089591906115d3565b61089f9190611984565b10156108e0576040517f08c379a00000000000000000000000000000000000000000000000000000000081526004016108d790611948565b60405180910390fd5b600060149054906101000a900460ff1615610930576040517f08c379a000000000000000000000000000000000000000000000000000000000815260040161092790611888565b60405180910390fd5b6001600060146101000a81548160ff021916908315150217905550600260009054906101000a900473ffffffffffffffffffffffffffffffffffffffff1673ffffffffffffffffffffffffffffffffffffffff1663c5ab460283338460006040518563ffffffff1660e01b81526004016109ad94939291906117d5565b600060405180830381600087803b1580156109c757600080fd5b505af11580156109db573d6000803e3d6000fd5b5050505081600360006101000a81548173ffffffffffffffffffffffffffffffffffffffff021916908373ffffffffffffffffffffffffffffffffffffffff160217905550600360009054906101000a900473ffffffffffffffffffffffffffffffffffffffff1673ffffffffffffffffffffffffffffffffffffffff1663a9059cbb33836040518363ffffffff1660e01b8152600401610a7d92919061185f565b602060405180830381600087803b158015610a9757600080fd5b505af1158015610aab573d6000803e3d6000fd5b505050506040513d601f19601f82011682018060405250810190610acf9190611579565b610ad857600080fd5b60008060146101000a81548160ff0219169083151502179055507ff341246adaac6f497bc2a656f546ab9e182111d630394f0c57c710a59a2cb567823383600260009054906101000a900473ffffffffffffffffffffffffffffffffffffffff1673ffffffffffffffffffffffffffffffffffffffff1663f7888aec87336040518363ffffffff1660e01b8152600401610b73929190611775565b60206040518083038186803b158015610b8b57600080fd5b505afa158015610b9f573d6000803e3d6000fd5b505050506040513d601f19601f82011682018060405250810190610bc391906115d3565b604051610bd3949392919061181a565b60405180910390a15050565b7f000000000000000000000000000000000000000000000000000000000000000081565b80600260009054906101000a900473ffffffffffffffffffffffffffffffffffffffff1673ffffffffffffffffffffffffffffffffffffffff16634fc121db33600160009054906101000a900473ffffffffffffffffffffffffffffffffffffffff166040518363ffffffff1660e01b8152600401610c83929190611775565b60206040518083038186803b158015610c9b57600080fd5b505afa158015610caf573d6000803e3d6000fd5b505050506040513d601f19601f82011682018060405250810190610cd391906115d3565b600260009054906101000a900473ffffffffffffffffffffffffffffffffffffffff1673ffffffffffffffffffffffffffffffffffffffff1663f7888aec600160009054906101000a900473ffffffffffffffffffffffffffffffffffffffff16336040518363ffffffff1660e01b8152600401610d52929190611775565b60206040518083038186803b158015610d6a57600080fd5b505afa158015610d7e573d6000803e3d6000fd5b505050506040513d601f19601f82011682018060405250810190610da291906115d3565b610dac9190611984565b1015610ded576040517f08c379a0000000000000000000000000000000000000000000000000000000008152600401610de4906118e8565b60405180910390fd5b600060149054906101000a900460ff1615610e3d576040517f08c379a0000000000000000000000000000000000000000000000000000000008152600401610e3490611888565b60405180910390fd5b6001600060146101000a81548160ff021916908315150217905550600260009054906101000a900473ffffffffffffffffffffffffffffffffffffffff1673ffffffffffffffffffffffffffffffffffffffff1663c5ab4602600160009054906101000a900473ffffffffffffffffffffffffffffffffffffffff16338460006040518563ffffffff1660e01b8152600401610edc94939291906117d5565b600060405180830381600087803b158015610ef657600080fd5b505af1158015610f0a573d6000803e3d6000fd5b5050505060008060146101000a81548160ff02191690831515021790555060003373ffffffffffffffffffffffffffffffffffffffff1682604051610f4e90611745565b60006040518083038185875af1925050503d8060008114610f8b576040519150601f19603f3d011682016040523d82523d6000602084013e610f90565b606091505b5050905080610fd4576040517f08c379a0000000000000000000000000000000000000000000000000000000008152600401610fcb906118c8565b60405180910390fd5b7ff341246adaac6f497bc2a656f546ab9e182111d630394f0c57c710a59a2cb567600160009054906101000a900473ffffffffffffffffffffffffffffffffffffffff163384600260009054906101000a900473ffffffffffffffffffffffffffffffffffffffff1673ffffffffffffffffffffffffffffffffffffffff1663f7888aec600160009054906101000a900473ffffffffffffffffffffffffffffffffffffffff16336040518363ffffffff1660e01b8152600401611099929190611775565b60206040518083038186803b1580156110b157600080fd5b505afa1580156110c5573d6000803e3d6000fd5b505050506040513d601f19601f820116820180604052508101906110e991906115d3565b6040516110f9949392919061181a565b60405180910390a15050565b61110d61136e565b600073ffffffffffffffffffffffffffffffffffffffff168173ffffffffffffffffffffffffffffffffffffffff16141561117d576040517f08c379a0000000000000000000000000000000000000000000000000000000008152600401611174906118a8565b60405180910390fd5b611186816113ec565b50565b600260009054906101000a900473ffffffffffffffffffffffffffffffffffffffff1673ffffffffffffffffffffffffffffffffffffffff1663c5ab4602600160009054906101000a900473ffffffffffffffffffffffffffffffffffffffff16333460016040518563ffffffff1660e01b815260040161120d94939291906117d5565b600060405180830381600087803b15801561122757600080fd5b505af115801561123b573d6000803e3d6000fd5b505050507fdcbc1c05240f31ff3ad067ef1ee35ce4997762752e3a095284754544f4c709d7600160009054906101000a900473ffffffffffffffffffffffffffffffffffffffff163334600260009054906101000a900473ffffffffffffffffffffffffffffffffffffffff1673ffffffffffffffffffffffffffffffffffffffff1663f7888aec600160009054906101000a900473ffffffffffffffffffffffffffffffffffffffff16336040518363ffffffff1660e01b8152600401611304929190611775565b60206040518083038186803b15801561131c57600080fd5b505afa158015611330573d6000803e3d6000fd5b505050506040513d601f19601f8201168201806040525081019061135491906115d3565b604051611364949392919061181a565b60405180910390a1565b6113766114b0565b73ffffffffffffffffffffffffffffffffffffffff166113946105cc565b73ffffffffffffffffffffffffffffffffffffffff16146113ea576040517f08c379a00000000000000000000000000000000000000000000000000000000081526004016113e190611928565b60405180910390fd5b565b60008060009054906101000a900473ffffffffffffffffffffffffffffffffffffffff169050816000806101000a81548173ffffffffffffffffffffffffffffffffffffffff021916908373ffffffffffffffffffffffffffffffffffffffff1602179055508173ffffffffffffffffffffffffffffffffffffffff168173ffffffffffffffffffffffffffffffffffffffff167f8be0079c531659141344cd1fd0a4f28419497f9722a3daafe3b4186f6b6457e060405160405180910390a35050565b600033905090565b6000813590506114c781611ba2565b92915050565b6000815190506114dc81611bb9565b92915050565b6000813590506114f181611bd0565b92915050565b60008151905061150681611bd0565b92915050565b60006020828403121561152257611521611a2f565b5b6000611530848285016114b8565b91505092915050565b600080604083850312156115505761154f611a2f565b5b600061155e858286016114b8565b925050602061156f858286016114e2565b9150509250929050565b60006020828403121561158f5761158e611a2f565b5b600061159d848285016114cd565b91505092915050565b6000602082840312156115bc576115bb611a2f565b5b60006115ca848285016114e2565b91505092915050565b6000602082840312156115e9576115e8611a2f565b5b60006115f7848285016114f7565b91505092915050565b611609816119b8565b82525050565b611618816119ca565b82525050565b600061162b601883611973565b915061163682611a34565b602082019050919050565b600061164e602683611973565b915061165982611a5d565b604082019050919050565b6000611671601583611973565b915061167c82611aac565b602082019050919050565b6000611694602483611973565b915061169f82611ad5565b604082019050919050565b60006116b7601e83611973565b91506116c282611b24565b602082019050919050565b60006116da602083611973565b91506116e582611b4d565b602082019050919050565b60006116fd601f83611973565b915061170882611b76565b602082019050919050565b6000611720600083611968565b915061172b82611b9f565b600082019050919050565b61173f816119f6565b82525050565b600061175082611713565b9150819050919050565b600060208201905061176f6000830184611600565b92915050565b600060408201905061178a6000830185611600565b6117976020830184611600565b9392505050565b60006060820190506117b36000830186611600565b6117c06020830185611600565b6117cd6040830184611736565b949350505050565b60006080820190506117ea6000830187611600565b6117f76020830186611600565b6118046040830185611736565b611811606083018461160f565b95945050505050565b600060808201905061182f6000830187611600565b61183c6020830186611600565b6118496040830185611736565b6118566060830184611736565b95945050505050565b60006040820190506118746000830185611600565b6118816020830184611736565b9392505050565b600060208201905081810360008301526118a18161161e565b9050919050565b600060208201905081810360008301526118c181611641565b9050919050565b600060208201905081810360008301526118e181611664565b9050919050565b6000602082019050818103600083015261190181611687565b9050919050565b60006020820190508181036000830152611921816116aa565b9050919050565b60006020820190508181036000830152611941816116cd565b9050919050565b60006020820190508181036000830152611961816116f0565b9050919050565b600081905092915050565b600082825260208201905092915050565b600061198f826119f6565b915061199a836119f6565b9250828210156119ad576119ac611a00565b5b828203905092915050565b60006119c3826119d6565b9050919050565b60008115159050919050565b600073ffffffffffffffffffffffffffffffffffffffff82169050919050565b6000819050919050565b7f4e487b7100000000000000000000000000000000000000000000000000000000600052601160045260246000fd5b600080fd5b7f5265656e7472616e742063616c6c206465746563746564210000000000000000600082015250565b7f4f776e61626c653a206e6577206f776e657220697320746865207a65726f206160008201527f6464726573730000000000000000000000000000000000000000000000000000602082015250565b7f6661696c656420746f2073656e6420616d6f756e740000000000000000000000600082015250565b7f496e73756666696369656e742062616c616e63652045544820746f207769746860008201527f6472617700000000000000000000000000000000000000000000000000000000602082015250565b7f546f6b656e206e6f74207665726966696564206f6e2045786368616e67650000600082015250565b7f4f776e61626c653a2063616c6c6572206973206e6f7420746865206f776e6572600082015250565b7f496e73756666696369656e7420546f6b656e7320746f20776974686472617700600082015250565b50565b611bab816119b8565b8114611bb657600080fd5b50565b611bc2816119ca565b8114611bcd57600080fd5b50565b611bd9816119f6565b8114611be457600080fd5b5056fea2646970667358221220c6ec101ce0d5479a47a4b61918a09c3859c9fc33835608690963c671b23c533064736f6c63430008070033",
  "devdoc": {
    "kind": "dev",
    "methods": {
      "owner()": {
        "details": "Returns the address of the current owner."
      },
      "renounceOwnership()": {
        "details": "Leaves the contract without owner. It will not be possible to call `onlyOwner` functions anymore. Can only be called by the current owner. NOTE: Renouncing ownership will leave the contract without an owner, thereby removing any functionality that is only available to the owner."
      },
      "transferOwnership(address)": {
        "details": "Transfers ownership of the contract to a new account (`newOwner`). Can only be called by the current owner."
      }
    },
    "version": 1
  },
  "userdoc": {
    "events": {
      "Withdraw(address,address,uint256,uint256)": {
        "notice": "Event when amount withdrawn exchange"
      }
    },
    "kind": "user",
    "methods": {},
    "version": 1
  },
  "storageLayout": {
    "storage": [
      {
        "astId": 53,
        "contract": "contracts/Wallet.sol:Wallet",
        "label": "_owner",
        "offset": 0,
        "slot": "0",
        "type": "t_address"
      },
      {
        "astId": 2737,
        "contract": "contracts/Wallet.sol:Wallet",
        "label": "locked",
        "offset": 20,
        "slot": "0",
        "type": "t_bool"
      },
      {
        "astId": 2743,
        "contract": "contracts/Wallet.sol:Wallet",
        "label": "ethToken",
        "offset": 0,
        "slot": "1",
        "type": "t_address"
      },
      {
        "astId": 2746,
        "contract": "contracts/Wallet.sol:Wallet",
        "label": "tokens",
        "offset": 0,
        "slot": "2",
        "type": "t_contract(Exchange)2720"
      },
      {
        "astId": 2749,
        "contract": "contracts/Wallet.sol:Wallet",
        "label": "token",
        "offset": 0,
        "slot": "3",
        "type": "t_contract(IERC20)236"
      }
    ],
    "types": {
      "t_address": {
        "encoding": "inplace",
        "label": "address",
        "numberOfBytes": "20"
      },
      "t_bool": {
        "encoding": "inplace",
        "label": "bool",
        "numberOfBytes": "1"
      },
      "t_contract(Exchange)2720": {
        "encoding": "inplace",
        "label": "contract Exchange",
        "numberOfBytes": "20"
      },
      "t_contract(IERC20)236": {
        "encoding": "inplace",
        "label": "contract IERC20",
        "numberOfBytes": "20"
      }
    }
  }
}