{
  "address": "0x29ecDC0583f496Ad80e627a17EC6C3bF2398170A",
  "abi": [
    {
      "inputs": [],
      "stateMutability": "nonpayable",
      "type": "constructor"
    },
    {
      "anonymous": false,
      "inputs": [
        {
          "indexed": false,
          "internalType": "uint256",
          "name": "id",
          "type": "uint256"
        },
        {
          "indexed": false,
          "internalType": "address",
          "name": "user",
          "type": "address"
        },
        {
          "indexed": false,
          "internalType": "address",
          "name": "token",
          "type": "address"
        },
        {
          "indexed": false,
          "internalType": "uint256",
          "name": "amount",
          "type": "uint256"
        },
        {
          "indexed": false,
          "internalType": "uint256",
          "name": "price",
          "type": "uint256"
        }
      ],
      "name": "Cancel",
      "type": "event"
    },
    {
      "anonymous": false,
      "inputs": [
        {
          "indexed": false,
          "internalType": "address",
          "name": "token",
          "type": "address"
        },
        {
          "indexed": false,
          "internalType": "address",
          "name": "user",
          "type": "address"
        },
        {
          "indexed": false,
          "internalType": "uint256",
          "name": "amount",
          "type": "uint256"
        },
        {
          "indexed": false,
          "internalType": "uint256",
          "name": "balance",
          "type": "uint256"
        }
      ],
      "name": "Deposit",
      "type": "event"
    },
    {
      "anonymous": false,
      "inputs": [
        {
          "indexed": false,
          "internalType": "uint256",
          "name": "id",
          "type": "uint256"
        },
        {
          "indexed": false,
          "internalType": "address",
          "name": "user",
          "type": "address"
        },
        {
          "indexed": false,
          "internalType": "address",
          "name": "token",
          "type": "address"
        },
        {
          "indexed": false,
          "internalType": "uint256",
          "name": "amount",
          "type": "uint256"
        },
        {
          "indexed": false,
          "internalType": "uint256",
          "name": "price",
          "type": "uint256"
        }
      ],
      "name": "Fill",
      "type": "event"
    },
    {
      "anonymous": false,
      "inputs": [
        {
          "indexed": false,
          "internalType": "uint256",
          "name": "id",
          "type": "uint256"
        },
        {
          "indexed": false,
          "internalType": "address",
          "name": "user",
          "type": "address"
        },
        {
          "indexed": false,
          "internalType": "address",
          "name": "token",
          "type": "address"
        },
        {
          "indexed": false,
          "internalType": "uint256",
          "name": "amount",
          "type": "uint256"
        },
        {
          "indexed": false,
          "internalType": "uint256",
          "name": "price",
          "type": "uint256"
        },
        {
          "indexed": false,
          "internalType": "enum Exchange.Side",
          "name": "side",
          "type": "uint8"
        }
      ],
      "name": "Order",
      "type": "event"
    },
    {
      "anonymous": false,
      "inputs": [
        {
          "indexed": true,
          "internalType": "address",
          "name": "previousOwner",
          "type": "address"
        },
        {
          "indexed": true,
          "internalType": "address",
          "name": "newOwner",
          "type": "address"
        }
      ],
      "name": "OwnershipTransferred",
      "type": "event"
    },
    {
      "anonymous": false,
      "inputs": [
        {
          "indexed": false,
          "internalType": "address",
          "name": "token",
          "type": "address"
        },
        {
          "indexed": false,
          "internalType": "address",
          "name": "user",
          "type": "address"
        },
        {
          "indexed": false,
          "internalType": "uint256",
          "name": "amount",
          "type": "uint256"
        },
        {
          "indexed": false,
          "internalType": "uint256",
          "name": "balance",
          "type": "uint256"
        }
      ],
      "name": "Withdraw",
      "type": "event"
    },
    {
      "inputs": [
        {
          "internalType": "address",
          "name": "_token",
          "type": "address"
        },
        {
          "internalType": "address",
          "name": "_user",
          "type": "address"
        }
      ],
      "name": "balanceOf",
      "outputs": [
        {
          "internalType": "uint256",
          "name": "",
          "type": "uint256"
        }
      ],
      "stateMutability": "view",
      "type": "function"
    },
    {
      "inputs": [
        {
          "internalType": "enum Exchange.Side",
          "name": "side",
          "type": "uint8"
        },
        {
          "internalType": "uint256",
          "name": "_id",
          "type": "uint256"
        },
        {
          "internalType": "address",
          "name": "_token",
          "type": "address"
        }
      ],
      "name": "cancelOrder",
      "outputs": [],
      "stateMutability": "nonpayable",
      "type": "function"
    },
    {
      "inputs": [
        {
          "internalType": "address",
          "name": "_token",
          "type": "address"
        },
        {
          "internalType": "uint256",
          "name": "_amount",
          "type": "uint256"
        },
        {
          "internalType": "uint256",
          "name": "_price",
          "type": "uint256"
        }
      ],
      "name": "createLimitBuyOrder",
      "outputs": [
        {
          "components": [
            {
              "internalType": "uint256",
              "name": "id",
              "type": "uint256"
            },
            {
              "internalType": "address",
              "name": "user",
              "type": "address"
            },
            {
              "internalType": "address",
              "name": "token",
              "type": "address"
            },
            {
              "internalType": "uint256",
              "name": "amount",
              "type": "uint256"
            },
            {
              "internalType": "uint256",
              "name": "price",
              "type": "uint256"
            },
            {
              "internalType": "enum Exchange.Side",
              "name": "side",
              "type": "uint8"
            }
          ],
          "internalType": "struct Exchange._Order",
          "name": "",
          "type": "tuple"
        }
      ],
      "stateMutability": "nonpayable",
      "type": "function"
    },
    {
      "inputs": [
        {
          "internalType": "address",
          "name": "_token",
          "type": "address"
        },
        {
          "internalType": "uint256",
          "name": "_amount",
          "type": "uint256"
        },
        {
          "internalType": "uint256",
          "name": "_price",
          "type": "uint256"
        }
      ],
      "name": "createLimitSellOrder",
      "outputs": [
        {
          "components": [
            {
              "internalType": "uint256",
              "name": "id",
              "type": "uint256"
            },
            {
              "internalType": "address",
              "name": "user",
              "type": "address"
            },
            {
              "internalType": "address",
              "name": "token",
              "type": "address"
            },
            {
              "internalType": "uint256",
              "name": "amount",
              "type": "uint256"
            },
            {
              "internalType": "uint256",
              "name": "price",
              "type": "uint256"
            },
            {
              "internalType": "enum Exchange.Side",
              "name": "side",
              "type": "uint8"
            }
          ],
          "internalType": "struct Exchange._Order",
          "name": "",
          "type": "tuple"
        }
      ],
      "stateMutability": "nonpayable",
      "type": "function"
    },
    {
      "inputs": [],
      "name": "depositETH",
      "outputs": [],
      "stateMutability": "payable",
      "type": "function"
    },
    {
      "inputs": [
        {
          "internalType": "address",
          "name": "_token",
          "type": "address"
        },
        {
          "internalType": "uint256",
          "name": "_amount",
          "type": "uint256"
        }
      ],
      "name": "depositToken",
      "outputs": [],
      "stateMutability": "nonpayable",
      "type": "function"
    },
    {
      "inputs": [
        {
          "internalType": "uint256",
          "name": "_id",
          "type": "uint256"
        },
        {
          "internalType": "address",
          "name": "_token",
          "type": "address"
        },
        {
          "internalType": "uint256",
          "name": "_amount",
          "type": "uint256"
        },
        {
          "internalType": "uint256",
          "name": "_price",
          "type": "uint256"
        }
      ],
      "name": "fillBuyOrder",
      "outputs": [],
      "stateMutability": "nonpayable",
      "type": "function"
    },
    {
      "inputs": [
        {
          "internalType": "uint256",
          "name": "_id",
          "type": "uint256"
        },
        {
          "internalType": "address",
          "name": "_token",
          "type": "address"
        },
        {
          "internalType": "uint256",
          "name": "_amount",
          "type": "uint256"
        },
        {
          "internalType": "uint256",
          "name": "_price",
          "type": "uint256"
        }
      ],
      "name": "fillSellOrder",
      "outputs": [],
      "stateMutability": "nonpayable",
      "type": "function"
    },
    {
      "inputs": [
        {
          "components": [
            {
              "internalType": "uint256",
              "name": "id",
              "type": "uint256"
            },
            {
              "internalType": "address",
              "name": "user",
              "type": "address"
            },
            {
              "internalType": "address",
              "name": "token",
              "type": "address"
            },
            {
              "internalType": "uint256",
              "name": "amount",
              "type": "uint256"
            },
            {
              "internalType": "uint256",
              "name": "price",
              "type": "uint256"
            },
            {
              "internalType": "enum Exchange.Side",
              "name": "side",
              "type": "uint8"
            }
          ],
          "internalType": "struct Exchange._Order[]",
          "name": "_order",
          "type": "tuple[]"
        },
        {
          "internalType": "uint256",
          "name": "_id",
          "type": "uint256"
        }
      ],
      "name": "getOrderFromArray",
      "outputs": [
        {
          "components": [
            {
              "internalType": "uint256",
              "name": "id",
              "type": "uint256"
            },
            {
              "internalType": "address",
              "name": "user",
              "type": "address"
            },
            {
              "internalType": "address",
              "name": "token",
              "type": "address"
            },
            {
              "internalType": "uint256",
              "name": "amount",
              "type": "uint256"
            },
            {
              "internalType": "uint256",
              "name": "price",
              "type": "uint256"
            },
            {
              "internalType": "enum Exchange.Side",
              "name": "side",
              "type": "uint8"
            }
          ],
          "internalType": "struct Exchange._Order",
          "name": "",
          "type": "tuple"
        }
      ],
      "stateMutability": "pure",
      "type": "function"
    },
    {
      "inputs": [
        {
          "internalType": "address",
          "name": "",
          "type": "address"
        },
        {
          "internalType": "uint256",
          "name": "",
          "type": "uint256"
        },
        {
          "internalType": "uint256",
          "name": "",
          "type": "uint256"
        }
      ],
      "name": "orderBook",
      "outputs": [
        {
          "internalType": "uint256",
          "name": "id",
          "type": "uint256"
        },
        {
          "internalType": "address",
          "name": "user",
          "type": "address"
        },
        {
          "internalType": "address",
          "name": "token",
          "type": "address"
        },
        {
          "internalType": "uint256",
          "name": "amount",
          "type": "uint256"
        },
        {
          "internalType": "uint256",
          "name": "price",
          "type": "uint256"
        },
        {
          "internalType": "enum Exchange.Side",
          "name": "side",
          "type": "uint8"
        }
      ],
      "stateMutability": "view",
      "type": "function"
    },
    {
      "inputs": [],
      "name": "owner",
      "outputs": [
        {
          "internalType": "address",
          "name": "",
          "type": "address"
        }
      ],
      "stateMutability": "view",
      "type": "function"
    },
    {
      "inputs": [],
      "name": "renounceOwnership",
      "outputs": [],
      "stateMutability": "nonpayable",
      "type": "function"
    },
    {
      "inputs": [
        {
          "internalType": "uint256",
          "name": "",
          "type": "uint256"
        }
      ],
      "name": "tokenList",
      "outputs": [
        {
          "internalType": "address",
          "name": "",
          "type": "address"
        }
      ],
      "stateMutability": "view",
      "type": "function"
    },
    {
      "inputs": [
        {
          "internalType": "address",
          "name": "",
          "type": "address"
        },
        {
          "internalType": "address",
          "name": "",
          "type": "address"
        }
      ],
      "name": "tokens",
      "outputs": [
        {
          "internalType": "uint256",
          "name": "",
          "type": "uint256"
        }
      ],
      "stateMutability": "view",
      "type": "function"
    },
    {
      "inputs": [
        {
          "internalType": "address",
          "name": "newOwner",
          "type": "address"
        }
      ],
      "name": "transferOwnership",
      "outputs": [],
      "stateMutability": "nonpayable",
      "type": "function"
    },
    {
      "inputs": [
        {
          "internalType": "uint256",
          "name": "_amount",
          "type": "uint256"
        }
      ],
      "name": "withdrawETH",
      "outputs": [],
      "stateMutability": "nonpayable",
      "type": "function"
    },
    {
      "inputs": [
        {
          "internalType": "address",
          "name": "_token",
          "type": "address"
        },
        {
          "internalType": "uint256",
          "name": "_amount",
          "type": "uint256"
        }
      ],
      "name": "withdrawToken",
      "outputs": [],
      "stateMutability": "nonpayable",
      "type": "function"
    }
  ],
  "transactionHash": "0x8f1423fa48207e38e950dda4841bd73b3f9526d4799bf0f0f71d96334d3136dc",
  "args": [],
  "numDeployments": 2,
  "solcInputHash": "b35da9d6cdc2692846b80ec9259b4b72",
  "bytecode": "0x6080604052670de0b6b3a76400006002556000600560006101000a81548173ffffffffffffffffffffffffffffffffffffffff021916908373ffffffffffffffffffffffffffffffffffffffff1602179055507307865c6e87b9f70255377e024ace6630c1eaa37f600660006101000a81548173ffffffffffffffffffffffffffffffffffffffff021916908373ffffffffffffffffffffffffffffffffffffffff1602179055506000600955348015620000b957600080fd5b50620000da620000ce6200012160201b60201c565b6200012960201b60201c565b33600160006101000a81548173ffffffffffffffffffffffffffffffffffffffff021916908373ffffffffffffffffffffffffffffffffffffffff160217905550620001ed565b600033905090565b60008060009054906101000a900473ffffffffffffffffffffffffffffffffffffffff169050816000806101000a81548173ffffffffffffffffffffffffffffffffffffffff021916908373ffffffffffffffffffffffffffffffffffffffff1602179055508173ffffffffffffffffffffffffffffffffffffffff168173ffffffffffffffffffffffffffffffffffffffff167f8be0079c531659141344cd1fd0a4f28419497f9722a3daafe3b4186f6b6457e060405160405180910390a35050565b613d9380620001fd6000396000f3fe6080604052600436106100fe5760003560e01c80638e9fbea411610095578063f14210a611610064578063f14210a614610343578063f253c7111461036c578063f2fde38b146103ae578063f6326fb3146103d7578063f7888aec146103e1576100fe565b80638e9fbea4146102775780639e281a98146102a05780639ead7222146102c9578063a694ccf114610306576100fe565b806367ee84c1116100d157806367ee84c1146101cf578063715018a6146101f857806375c1cea21461020f5780638da5cb5b1461024c576100fe565b80631347d60e146101035780632061da581461012c578063338b5dea14610169578063508493bc14610192575b600080fd5b34801561010f57600080fd5b5061012a60048036038101906101259190613369565b61041e565b005b34801561013857600080fd5b50610153600480360381019061014e919061328d565b610a81565b6040516101609190613778565b60405180910390f35b34801561017557600080fd5b50610190600480360381019061018b919061324d565b610ea4565b005b34801561019e57600080fd5b506101b960048036038101906101b4919061320d565b611206565b6040516101c69190613793565b60405180910390f35b3480156101db57600080fd5b506101f660048036038101906101f191906133e9565b61122b565b005b34801561020457600080fd5b5061020d61165c565b005b34801561021b57600080fd5b506102366004803603810190610231919061328d565b611670565b6040516102439190613778565b60405180910390f35b34801561025857600080fd5b50610261611ac8565b60405161026e919061362f565b60405180910390f35b34801561028357600080fd5b5061029e600480360381019061029991906133e9565b611af1565b005b3480156102ac57600080fd5b506102c760048036038101906102c2919061324d565b611f22565b005b3480156102d557600080fd5b506102f060048036038101906102eb91906133bc565b612304565b6040516102fd919061362f565b60405180910390f35b34801561031257600080fd5b5061032d600480360381019061032891906132e0565b612343565b60405161033a9190613778565b60405180910390f35b34801561034f57600080fd5b5061036a600480360381019061036591906133bc565b6123c5565b005b34801561037857600080fd5b50610393600480360381019061038e919061328d565b61282c565b6040516103a596959493929190613801565b60405180910390f35b3480156103ba57600080fd5b506103d560048036038101906103d091906131e0565b6128df565b005b6103df612963565b005b3480156103ed57600080fd5b506104086004803603810190610403919061320d565b612bb5565b6040516104159190613793565b60405180910390f35b6000821015801561043157506009548211155b610470576040517f08c379a000000000000000000000000000000000000000000000000000000000815260040161046790613758565b60405180910390fd5b6000600760008373ffffffffffffffffffffffffffffffffffffffff1673ffffffffffffffffffffffffffffffffffffffff16815260200190815260200160002060008560018111156104c6576104c5613ac9565b5b815260200190815260200160002090506104de612dc8565b600080600090505b838054905081101561066c578584828154811061050657610505613b27565b5b90600052602060002090600602016000015414156106595780915083818154811061053457610533613b27565b5b90600052602060002090600602016040518060c0016040529081600082015481526020016001820160009054906101000a900473ffffffffffffffffffffffffffffffffffffffff1673ffffffffffffffffffffffffffffffffffffffff1673ffffffffffffffffffffffffffffffffffffffff1681526020016002820160009054906101000a900473ffffffffffffffffffffffffffffffffffffffff1673ffffffffffffffffffffffffffffffffffffffff1673ffffffffffffffffffffffffffffffffffffffff16815260200160038201548152602001600482015481526020016005820160009054906101000a900460ff16600181111561063c5761063b613ac9565b5b600181111561064e5761064d613ac9565b5b81525050925061066c565b808061066490613a51565b9150506104e6565b5060008190505b60018480549050610684919061397f565b811015610818578360018261069991906138cf565b815481106106aa576106a9613b27565b5b90600052602060002090600602018482815481106106cb576106ca613b27565b5b9060005260206000209060060201600082015481600001556001820160009054906101000a900473ffffffffffffffffffffffffffffffffffffffff168160010160006101000a81548173ffffffffffffffffffffffffffffffffffffffff021916908373ffffffffffffffffffffffffffffffffffffffff1602179055506002820160009054906101000a900473ffffffffffffffffffffffffffffffffffffffff168160020160006101000a81548173ffffffffffffffffffffffffffffffffffffffff021916908373ffffffffffffffffffffffffffffffffffffffff16021790555060038201548160030155600482015481600401556005820160009054906101000a900460ff168160050160006101000a81548160ff021916908360018111156107fd576107fc613ac9565b5b0217905550905050808061081090613a51565b915050610673565b50826001848054905061082b919061397f565b8154811061083c5761083b613b27565b5b90600052602060002090600602016000808201600090556001820160006101000a81549073ffffffffffffffffffffffffffffffffffffffff02191690556002820160006101000a81549073ffffffffffffffffffffffffffffffffffffffff0219169055600382016000905560048201600090556005820160006101000a81549060ff02191690555050828054806108d8576108d7613af8565b5b60019003818190600052602060002090600602016000808201600090556001820160006101000a81549073ffffffffffffffffffffffffffffffffffffffff02191690556002820160006101000a81549073ffffffffffffffffffffffffffffffffffffffff0219169055600382016000905560048201600090556005820160006101000a81549060ff0219169055505090556000600254836060015161097f9190613925565b90506000836080015190503373ffffffffffffffffffffffffffffffffffffffff16846020015173ffffffffffffffffffffffffffffffffffffffff16146109c657600080fd5b84600760008873ffffffffffffffffffffffffffffffffffffffff1673ffffffffffffffffffffffffffffffffffffffff16815260200190815260200160002060008a6001811115610a1b57610a1a613ac9565b5b8152602001908152602001600020908054610a37929190612e3c565b507fca5fbf354151ee18d2ff58712c9ed7be34397aa5983abfaf40e2d8485867d9668733888585604051610a6f9594939291906137ae565b60405180910390a15050505050505050565b610a89612dc8565b60025483610a979190613925565b925082600360008673ffffffffffffffffffffffffffffffffffffffff1673ffffffffffffffffffffffffffffffffffffffff16815260200190815260200160002060003373ffffffffffffffffffffffffffffffffffffffff1673ffffffffffffffffffffffffffffffffffffffff168152602001908152602001600020541015610b2257600080fd5b6000600760008673ffffffffffffffffffffffffffffffffffffffff1673ffffffffffffffffffffffffffffffffffffffff1681526020019081526020016000206000600180811115610b7857610b77613ac9565b5b81526020019081526020016000209050806040518060c0016040528060095481526020013373ffffffffffffffffffffffffffffffffffffffff1681526020018773ffffffffffffffffffffffffffffffffffffffff168152602001868152602001858152602001600180811115610bf357610bf2613ac9565b5b81525090806001815401808255809150506001900390600052602060002090600602016000909190919091506000820151816000015560208201518160010160006101000a81548173ffffffffffffffffffffffffffffffffffffffff021916908373ffffffffffffffffffffffffffffffffffffffff16021790555060408201518160020160006101000a81548173ffffffffffffffffffffffffffffffffffffffff021916908373ffffffffffffffffffffffffffffffffffffffff160217905550606082015181600301556080820151816004015560a08201518160050160006101000a81548160ff02191690836001811115610cf657610cf5613ac9565b5b021790555050507f95f7e844715189eed0317d8f771c63ce13ec6364f48022f3db86baf8ce584b95600954338787876001604051610d3996959493929190613801565b60405180910390a160096000815480929190610d5490613a51565b91905055508060018280549050610d6b919061397f565b81548110610d7c57610d7b613b27565b5b90600052602060002090600602016040518060c0016040529081600082015481526020016001820160009054906101000a900473ffffffffffffffffffffffffffffffffffffffff1673ffffffffffffffffffffffffffffffffffffffff1673ffffffffffffffffffffffffffffffffffffffff1681526020016002820160009054906101000a900473ffffffffffffffffffffffffffffffffffffffff1673ffffffffffffffffffffffffffffffffffffffff1673ffffffffffffffffffffffffffffffffffffffff16815260200160038201548152602001600482015481526020016005820160009054906101000a900460ff166001811115610e8457610e83613ac9565b5b6001811115610e9657610e95613ac9565b5b815250509150509392505050565b620f424081610eb39190613925565b9050600560009054906101000a900473ffffffffffffffffffffffffffffffffffffffff1673ffffffffffffffffffffffffffffffffffffffff168273ffffffffffffffffffffffffffffffffffffffff161415610f1057600080fd5b60008290508073ffffffffffffffffffffffffffffffffffffffff1663095ea7b330846040518363ffffffff1660e01b8152600401610f5092919061368f565b602060405180830381600087803b158015610f6a57600080fd5b505af1158015610f7e573d6000803e3d6000fd5b505050506040513d601f19601f82011682018060405250810190610fa2919061333c565b508073ffffffffffffffffffffffffffffffffffffffff1663a9059cbb30846040518363ffffffff1660e01b8152600401610fde92919061368f565b602060405180830381600087803b158015610ff857600080fd5b505af115801561100c573d6000803e3d6000fd5b505050506040513d601f19601f82011682018060405250810190611030919061333c565b61103957600080fd5b6110c882600360008673ffffffffffffffffffffffffffffffffffffffff1673ffffffffffffffffffffffffffffffffffffffff16815260200190815260200160002060003373ffffffffffffffffffffffffffffffffffffffff1673ffffffffffffffffffffffffffffffffffffffff16815260200190815260200160002054612c3c90919063ffffffff16565b600360008573ffffffffffffffffffffffffffffffffffffffff1673ffffffffffffffffffffffffffffffffffffffff16815260200190815260200160002060003373ffffffffffffffffffffffffffffffffffffffff1673ffffffffffffffffffffffffffffffffffffffff168152602001908152602001600020819055507fdcbc1c05240f31ff3ad067ef1ee35ce4997762752e3a095284754544f4c709d7833384600360008873ffffffffffffffffffffffffffffffffffffffff1673ffffffffffffffffffffffffffffffffffffffff16815260200190815260200160002060003373ffffffffffffffffffffffffffffffffffffffff1673ffffffffffffffffffffffffffffffffffffffff168152602001908152602001600020546040516111f9949392919061364a565b60405180910390a1505050565b6003602052816000526040600020602052806000526040600020600091509150505481565b6000841015801561123e57506009548411155b61124757600080fd5b600254826112559190613925565b91506000600760008573ffffffffffffffffffffffffffffffffffffffff1673ffffffffffffffffffffffffffffffffffffffff1681526020019081526020016000206000808152602001908152602001600020805480602002602001604051908101604052809291908181526020016000905b8282101561140057838290600052602060002090600602016040518060c0016040529081600082015481526020016001820160009054906101000a900473ffffffffffffffffffffffffffffffffffffffff1673ffffffffffffffffffffffffffffffffffffffff1673ffffffffffffffffffffffffffffffffffffffff1681526020016002820160009054906101000a900473ffffffffffffffffffffffffffffffffffffffff1673ffffffffffffffffffffffffffffffffffffffff1673ffffffffffffffffffffffffffffffffffffffff16815260200160038201548152602001600482015481526020016005820160009054906101000a900460ff1660018111156113db576113da613ac9565b5b60018111156113ed576113ec613ac9565b5b81525050815260200190600101906112c9565b50505050905061140e612dc8565b6114188287612343565b90503373ffffffffffffffffffffffffffffffffffffffff16816020015173ffffffffffffffffffffffffffffffffffffffff161461145657600080fd5b838160600151101561146757600080fd5b61147e848260600151612c5290919063ffffffff16565b8160600181815250507f6b2a78965102b6dcf63436e21fb398d05a11120cdd8b64e83291405e3387cdf286338787876040516114be9594939291906137ae565b60405180910390a16000816060015114156116545760086040518060400160405280600060018111156114f4576114f3613ac9565b5b815260200183815250908060018154018082558091505060019003906000526020600020906007020160009091909190915060008201518160000160006101000a81548160ff0219169083600181111561155157611550613ac9565b5b02179055506020820151816001016000820151816000015560208201518160010160006101000a81548173ffffffffffffffffffffffffffffffffffffffff021916908373ffffffffffffffffffffffffffffffffffffffff16021790555060408201518160020160006101000a81548173ffffffffffffffffffffffffffffffffffffffff021916908373ffffffffffffffffffffffffffffffffffffffff160217905550606082015181600301556080820151816004015560a08201518160050160006101000a81548160ff0219169083600181111561163657611635613ac9565b5b02179055505050505061165360008260000151836040015161041e565b5b505050505050565b611664612c68565b61166e6000612ce6565b565b611678612dc8565b600254836116869190613925565b925061169b8284612daa90919063ffffffff16565b60036000600660009054906101000a900473ffffffffffffffffffffffffffffffffffffffff1673ffffffffffffffffffffffffffffffffffffffff1673ffffffffffffffffffffffffffffffffffffffff16815260200190815260200160002060003373ffffffffffffffffffffffffffffffffffffffff1673ffffffffffffffffffffffffffffffffffffffff16815260200190815260200160002054101561174557600080fd5b6000600760008673ffffffffffffffffffffffffffffffffffffffff1673ffffffffffffffffffffffffffffffffffffffff168152602001908152602001600020600080600181111561179b5761179a613ac9565b5b81526020019081526020016000209050806040518060c0016040528060095481526020013373ffffffffffffffffffffffffffffffffffffffff1681526020018773ffffffffffffffffffffffffffffffffffffffff1681526020018681526020018581526020016000600181111561181757611816613ac9565b5b81525090806001815401808255809150506001900390600052602060002090600602016000909190919091506000820151816000015560208201518160010160006101000a81548173ffffffffffffffffffffffffffffffffffffffff021916908373ffffffffffffffffffffffffffffffffffffffff16021790555060408201518160020160006101000a81548173ffffffffffffffffffffffffffffffffffffffff021916908373ffffffffffffffffffffffffffffffffffffffff160217905550606082015181600301556080820151816004015560a08201518160050160006101000a81548160ff0219169083600181111561191a57611919613ac9565b5b021790555050507f95f7e844715189eed0317d8f771c63ce13ec6364f48022f3db86baf8ce584b9560095433878787600060405161195d96959493929190613801565b60405180910390a16009600081548092919061197890613a51565b9190505550806001828054905061198f919061397f565b815481106119a05761199f613b27565b5b90600052602060002090600602016040518060c0016040529081600082015481526020016001820160009054906101000a900473ffffffffffffffffffffffffffffffffffffffff1673ffffffffffffffffffffffffffffffffffffffff1673ffffffffffffffffffffffffffffffffffffffff1681526020016002820160009054906101000a900473ffffffffffffffffffffffffffffffffffffffff1673ffffffffffffffffffffffffffffffffffffffff1673ffffffffffffffffffffffffffffffffffffffff16815260200160038201548152602001600482015481526020016005820160009054906101000a900460ff166001811115611aa857611aa7613ac9565b5b6001811115611aba57611ab9613ac9565b5b815250509150509392505050565b60008060009054906101000a900473ffffffffffffffffffffffffffffffffffffffff16905090565b60008410158015611b0457506009548411155b611b0d57600080fd5b60025482611b1b9190613925565b91506000600760008573ffffffffffffffffffffffffffffffffffffffff1673ffffffffffffffffffffffffffffffffffffffff168152602001908152602001600020600060018152602001908152602001600020805480602002602001604051908101604052809291908181526020016000905b82821015611cc757838290600052602060002090600602016040518060c0016040529081600082015481526020016001820160009054906101000a900473ffffffffffffffffffffffffffffffffffffffff1673ffffffffffffffffffffffffffffffffffffffff1673ffffffffffffffffffffffffffffffffffffffff1681526020016002820160009054906101000a900473ffffffffffffffffffffffffffffffffffffffff1673ffffffffffffffffffffffffffffffffffffffff1673ffffffffffffffffffffffffffffffffffffffff16815260200160038201548152602001600482015481526020016005820160009054906101000a900460ff166001811115611ca257611ca1613ac9565b5b6001811115611cb457611cb3613ac9565b5b8152505081526020019060010190611b90565b505050509050611cd5612dc8565b611cdf8287612343565b90503373ffffffffffffffffffffffffffffffffffffffff16816020015173ffffffffffffffffffffffffffffffffffffffff1614611d1d57600080fd5b8381606001511015611d2e57600080fd5b611d45848260600151612c5290919063ffffffff16565b8160600181815250507f6b2a78965102b6dcf63436e21fb398d05a11120cdd8b64e83291405e3387cdf28633878787604051611d859594939291906137ae565b60405180910390a1600081606001511415611f1a5760086040518060400160405280600180811115611dba57611db9613ac9565b5b815260200183815250908060018154018082558091505060019003906000526020600020906007020160009091909190915060008201518160000160006101000a81548160ff02191690836001811115611e1757611e16613ac9565b5b02179055506020820151816001016000820151816000015560208201518160010160006101000a81548173ffffffffffffffffffffffffffffffffffffffff021916908373ffffffffffffffffffffffffffffffffffffffff16021790555060408201518160020160006101000a81548173ffffffffffffffffffffffffffffffffffffffff021916908373ffffffffffffffffffffffffffffffffffffffff160217905550606082015181600301556080820151816004015560a08201518160050160006101000a81548160ff02191690836001811115611efc57611efb613ac9565b5b021790555050505050611f1960018260000151836040015161041e565b5b505050505050565b60025481611f309190613925565b9050600560009054906101000a900473ffffffffffffffffffffffffffffffffffffffff1673ffffffffffffffffffffffffffffffffffffffff168273ffffffffffffffffffffffffffffffffffffffff161415611f8d57600080fd5b80600360008473ffffffffffffffffffffffffffffffffffffffff1673ffffffffffffffffffffffffffffffffffffffff16815260200190815260200160002060003373ffffffffffffffffffffffffffffffffffffffff1673ffffffffffffffffffffffffffffffffffffffff16815260200190815260200160002054101561201657600080fd5b600a60009054906101000a900460ff1615612066576040517f08c379a000000000000000000000000000000000000000000000000000000000815260040161205d906136b8565b60405180910390fd5b6001600a60006101000a81548160ff02191690831515021790555061211081600360008573ffffffffffffffffffffffffffffffffffffffff1673ffffffffffffffffffffffffffffffffffffffff16815260200190815260200160002060003373ffffffffffffffffffffffffffffffffffffffff1673ffffffffffffffffffffffffffffffffffffffff16815260200190815260200160002054612c5290919063ffffffff16565b600360008473ffffffffffffffffffffffffffffffffffffffff1673ffffffffffffffffffffffffffffffffffffffff16815260200190815260200160002060003373ffffffffffffffffffffffffffffffffffffffff1673ffffffffffffffffffffffffffffffffffffffff1681526020019081526020016000208190555060008290508073ffffffffffffffffffffffffffffffffffffffff1663a9059cbb33846040518363ffffffff1660e01b81526004016121d092919061368f565b602060405180830381600087803b1580156121ea57600080fd5b505af11580156121fe573d6000803e3d6000fd5b505050506040513d601f19601f82011682018060405250810190612222919061333c565b61222b57600080fd5b6000600a60006101000a81548160ff0219169083151502179055507ff341246adaac6f497bc2a656f546ab9e182111d630394f0c57c710a59a2cb567833384600360008873ffffffffffffffffffffffffffffffffffffffff1673ffffffffffffffffffffffffffffffffffffffff16815260200190815260200160002060003373ffffffffffffffffffffffffffffffffffffffff1673ffffffffffffffffffffffffffffffffffffffff168152602001908152602001600020546040516122f7949392919061364a565b60405180910390a1505050565b6004818154811061231457600080fd5b906000526020600020016000915054906101000a900473ffffffffffffffffffffffffffffffffffffffff1681565b61234b612dc8565b612353612dc8565b60005b84518110156123ba578385828151811061237357612372613b27565b5b60200260200101516000015114156123a75784818151811061239857612397613b27565b5b602002602001015191506123ba565b80806123b290613a51565b915050612356565b508091505092915050565b8060036000600560009054906101000a900473ffffffffffffffffffffffffffffffffffffffff1673ffffffffffffffffffffffffffffffffffffffff1673ffffffffffffffffffffffffffffffffffffffff16815260200190815260200160002060003373ffffffffffffffffffffffffffffffffffffffff1673ffffffffffffffffffffffffffffffffffffffff1681526020019081526020016000205410156124a6576040517f08c379a000000000000000000000000000000000000000000000000000000000815260040161249d90613718565b60405180910390fd5b600a60009054906101000a900460ff16156124f6576040517f08c379a00000000000000000000000000000000000000000000000000000000081526004016124ed906136b8565b60405180910390fd5b6001600a60006101000a81548160ff0219169083151502179055506125c28160036000600560009054906101000a900473ffffffffffffffffffffffffffffffffffffffff1673ffffffffffffffffffffffffffffffffffffffff1673ffffffffffffffffffffffffffffffffffffffff16815260200190815260200160002060003373ffffffffffffffffffffffffffffffffffffffff1673ffffffffffffffffffffffffffffffffffffffff16815260200190815260200160002054612c5290919063ffffffff16565b60036000600560009054906101000a900473ffffffffffffffffffffffffffffffffffffffff1673ffffffffffffffffffffffffffffffffffffffff1673ffffffffffffffffffffffffffffffffffffffff16815260200190815260200160002060003373ffffffffffffffffffffffffffffffffffffffff1673ffffffffffffffffffffffffffffffffffffffff168152602001908152602001600020819055506000600a60006101000a81548160ff02191690831515021790555060003373ffffffffffffffffffffffffffffffffffffffff16826040516126a59061361a565b60006040518083038185875af1925050503d80600081146126e2576040519150601f19603f3d011682016040523d82523d6000602084013e6126e7565b606091505b505090508061272b576040517f08c379a0000000000000000000000000000000000000000000000000000000008152600401612722906136f8565b60405180910390fd5b7ff341246adaac6f497bc2a656f546ab9e182111d630394f0c57c710a59a2cb567600560009054906101000a900473ffffffffffffffffffffffffffffffffffffffff16338460036000600560009054906101000a900473ffffffffffffffffffffffffffffffffffffffff1673ffffffffffffffffffffffffffffffffffffffff1673ffffffffffffffffffffffffffffffffffffffff16815260200190815260200160002060003373ffffffffffffffffffffffffffffffffffffffff1673ffffffffffffffffffffffffffffffffffffffff16815260200190815260200160002054604051612820949392919061364a565b60405180910390a15050565b6007602052826000526040600020602052816000526040600020818154811061285457600080fd5b906000526020600020906006020160009250925050508060000154908060010160009054906101000a900473ffffffffffffffffffffffffffffffffffffffff16908060020160009054906101000a900473ffffffffffffffffffffffffffffffffffffffff16908060030154908060040154908060050160009054906101000a900460ff16905086565b6128e7612c68565b600073ffffffffffffffffffffffffffffffffffffffff168173ffffffffffffffffffffffffffffffffffffffff161415612957576040517f08c379a000000000000000000000000000000000000000000000000000000000815260040161294e906136d8565b60405180910390fd5b61296081612ce6565b50565b612a143460036000600560009054906101000a900473ffffffffffffffffffffffffffffffffffffffff1673ffffffffffffffffffffffffffffffffffffffff1673ffffffffffffffffffffffffffffffffffffffff16815260200190815260200160002060003373ffffffffffffffffffffffffffffffffffffffff1673ffffffffffffffffffffffffffffffffffffffff16815260200190815260200160002054612c3c90919063ffffffff16565b60036000600560009054906101000a900473ffffffffffffffffffffffffffffffffffffffff1673ffffffffffffffffffffffffffffffffffffffff1673ffffffffffffffffffffffffffffffffffffffff16815260200190815260200160002060003373ffffffffffffffffffffffffffffffffffffffff1673ffffffffffffffffffffffffffffffffffffffff168152602001908152602001600020819055507fdcbc1c05240f31ff3ad067ef1ee35ce4997762752e3a095284754544f4c709d7600560009054906101000a900473ffffffffffffffffffffffffffffffffffffffff16333460036000600560009054906101000a900473ffffffffffffffffffffffffffffffffffffffff1673ffffffffffffffffffffffffffffffffffffffff1673ffffffffffffffffffffffffffffffffffffffff16815260200190815260200160002060003373ffffffffffffffffffffffffffffffffffffffff1673ffffffffffffffffffffffffffffffffffffffff16815260200190815260200160002054604051612bab949392919061364a565b60405180910390a1565b6000600360008473ffffffffffffffffffffffffffffffffffffffff1673ffffffffffffffffffffffffffffffffffffffff16815260200190815260200160002060008373ffffffffffffffffffffffffffffffffffffffff1673ffffffffffffffffffffffffffffffffffffffff16815260200190815260200160002054905092915050565b60008183612c4a91906138cf565b905092915050565b60008183612c60919061397f565b905092915050565b612c70612dc0565b73ffffffffffffffffffffffffffffffffffffffff16612c8e611ac8565b73ffffffffffffffffffffffffffffffffffffffff1614612ce4576040517f08c379a0000000000000000000000000000000000000000000000000000000008152600401612cdb90613738565b60405180910390fd5b565b60008060009054906101000a900473ffffffffffffffffffffffffffffffffffffffff169050816000806101000a81548173ffffffffffffffffffffffffffffffffffffffff021916908373ffffffffffffffffffffffffffffffffffffffff1602179055508173ffffffffffffffffffffffffffffffffffffffff168173ffffffffffffffffffffffffffffffffffffffff167f8be0079c531659141344cd1fd0a4f28419497f9722a3daafe3b4186f6b6457e060405160405180910390a35050565b60008183612db89190613925565b905092915050565b600033905090565b6040518060c0016040528060008152602001600073ffffffffffffffffffffffffffffffffffffffff168152602001600073ffffffffffffffffffffffffffffffffffffffff168152602001600081526020016000815260200160006001811115612e3657612e35613ac9565b5b81525090565b828054828255906000526020600020906006028101928215612fac5760005260206000209160060282015b82811115612fab578282600082015481600001556001820160009054906101000a900473ffffffffffffffffffffffffffffffffffffffff168160010160006101000a81548173ffffffffffffffffffffffffffffffffffffffff021916908373ffffffffffffffffffffffffffffffffffffffff1602179055506002820160009054906101000a900473ffffffffffffffffffffffffffffffffffffffff168160020160006101000a81548173ffffffffffffffffffffffffffffffffffffffff021916908373ffffffffffffffffffffffffffffffffffffffff16021790555060038201548160030155600482015481600401556005820160009054906101000a900460ff168160050160006101000a81548160ff02191690836001811115612f9557612f94613ac9565b5b0217905550505091600601919060060190612e67565b5b509050612fb99190612fbd565b5090565b5b8082111561304a576000808201600090556001820160006101000a81549073ffffffffffffffffffffffffffffffffffffffff02191690556002820160006101000a81549073ffffffffffffffffffffffffffffffffffffffff0219169055600382016000905560048201600090556005820160006101000a81549060ff021916905550600601612fbe565b5090565b600061306161305c84613887565b613862565b905080838252602082019050828560c086028201111561308457613083613b8f565b5b60005b858110156130b4578161309a888261312b565b845260208401935060c08301925050600181019050613087565b5050509392505050565b6000813590506130cd81613d08565b92915050565b600082601f8301126130e8576130e7613b85565b5b81356130f884826020860161304e565b91505092915050565b60008151905061311081613d1f565b92915050565b60008135905061312581613d36565b92915050565b600060c0828403121561314157613140613b8a565b5b61314b60c0613862565b9050600061315b848285016131cb565b600083015250602061316f848285016130be565b6020830152506040613183848285016130be565b6040830152506060613197848285016131cb565b60608301525060806131ab848285016131cb565b60808301525060a06131bf84828501613116565b60a08301525092915050565b6000813590506131da81613d46565b92915050565b6000602082840312156131f6576131f5613b99565b5b6000613204848285016130be565b91505092915050565b6000806040838503121561322457613223613b99565b5b6000613232858286016130be565b9250506020613243858286016130be565b9150509250929050565b6000806040838503121561326457613263613b99565b5b6000613272858286016130be565b9250506020613283858286016131cb565b9150509250929050565b6000806000606084860312156132a6576132a5613b99565b5b60006132b4868287016130be565b93505060206132c5868287016131cb565b92505060406132d6868287016131cb565b9150509250925092565b600080604083850312156132f7576132f6613b99565b5b600083013567ffffffffffffffff81111561331557613314613b94565b5b613321858286016130d3565b9250506020613332858286016131cb565b9150509250929050565b60006020828403121561335257613351613b99565b5b600061336084828501613101565b91505092915050565b60008060006060848603121561338257613381613b99565b5b600061339086828701613116565b93505060206133a1868287016131cb565b92505060406133b2868287016130be565b9150509250925092565b6000602082840312156133d2576133d1613b99565b5b60006133e0848285016131cb565b91505092915050565b6000806000806080858703121561340357613402613b99565b5b6000613411878288016131cb565b9450506020613422878288016130be565b9350506040613433878288016131cb565b9250506060613444878288016131cb565b91505092959194509250565b613459816139b3565b82525050565b613468816139b3565b82525050565b61347781613a0e565b82525050565b61348681613a0e565b82525050565b60006134996018836138be565b91506134a482613baf565b602082019050919050565b60006134bc6026836138be565b91506134c782613bd8565b604082019050919050565b60006134df6015836138be565b91506134ea82613c27565b602082019050919050565b60006135026024836138be565b915061350d82613c50565b604082019050919050565b60006135256020836138be565b915061353082613c9f565b602082019050919050565b6000613548601a836138be565b915061355382613cc8565b602082019050919050565b600061356b6000836138b3565b915061357682613cf1565b600082019050919050565b60c08201600082015161359760008501826135fc565b5060208201516135aa6020850182613450565b5060408201516135bd6040850182613450565b5060608201516135d060608501826135fc565b5060808201516135e360808501826135fc565b5060a08201516135f660a085018261346e565b50505050565b61360581613a04565b82525050565b61361481613a04565b82525050565b60006136258261355e565b9150819050919050565b6000602082019050613644600083018461345f565b92915050565b600060808201905061365f600083018761345f565b61366c602083018661345f565b613679604083018561360b565b613686606083018461360b565b95945050505050565b60006040820190506136a4600083018561345f565b6136b1602083018461360b565b9392505050565b600060208201905081810360008301526136d18161348c565b9050919050565b600060208201905081810360008301526136f1816134af565b9050919050565b60006020820190508181036000830152613711816134d2565b9050919050565b60006020820190508181036000830152613731816134f5565b9050919050565b6000602082019050818103600083015261375181613518565b9050919050565b600060208201905081810360008301526137718161353b565b9050919050565b600060c08201905061378d6000830184613581565b92915050565b60006020820190506137a8600083018461360b565b92915050565b600060a0820190506137c3600083018861360b565b6137d0602083018761345f565b6137dd604083018661345f565b6137ea606083018561360b565b6137f7608083018461360b565b9695505050505050565b600060c082019050613816600083018961360b565b613823602083018861345f565b613830604083018761345f565b61383d606083018661360b565b61384a608083018561360b565b61385760a083018461347d565b979650505050505050565b600061386c61387d565b90506138788282613a20565b919050565b6000604051905090565b600067ffffffffffffffff8211156138a2576138a1613b56565b5b602082029050602081019050919050565b600081905092915050565b600082825260208201905092915050565b60006138da82613a04565b91506138e583613a04565b9250827fffffffffffffffffffffffffffffffffffffffffffffffffffffffffffffffff0382111561391a57613919613a9a565b5b828201905092915050565b600061393082613a04565b915061393b83613a04565b9250817fffffffffffffffffffffffffffffffffffffffffffffffffffffffffffffffff048311821515161561397457613973613a9a565b5b828202905092915050565b600061398a82613a04565b915061399583613a04565b9250828210156139a8576139a7613a9a565b5b828203905092915050565b60006139be826139e4565b9050919050565b60008115159050919050565b60008190506139df82613cf4565b919050565b600073ffffffffffffffffffffffffffffffffffffffff82169050919050565b6000819050919050565b6000613a19826139d1565b9050919050565b613a2982613b9e565b810181811067ffffffffffffffff82111715613a4857613a47613b56565b5b80604052505050565b6000613a5c82613a04565b91507fffffffffffffffffffffffffffffffffffffffffffffffffffffffffffffffff821415613a8f57613a8e613a9a565b5b600182019050919050565b7f4e487b7100000000000000000000000000000000000000000000000000000000600052601160045260246000fd5b7f4e487b7100000000000000000000000000000000000000000000000000000000600052602160045260246000fd5b7f4e487b7100000000000000000000000000000000000000000000000000000000600052603160045260246000fd5b7f4e487b7100000000000000000000000000000000000000000000000000000000600052603260045260246000fd5b7f4e487b7100000000000000000000000000000000000000000000000000000000600052604160045260246000fd5b600080fd5b600080fd5b600080fd5b600080fd5b600080fd5b6000601f19601f8301169050919050565b7f5265656e7472616e742063616c6c206465746563746564210000000000000000600082015250565b7f4f776e61626c653a206e6577206f776e657220697320746865207a65726f206160008201527f6464726573730000000000000000000000000000000000000000000000000000602082015250565b7f6661696c656420746f2073656e6420616d6f756e740000000000000000000000600082015250565b7f496e73756666696369656e742062616c616e63652045544820746f207769746860008201527f6472617700000000000000000000000000000000000000000000000000000000602082015250565b7f4f776e61626c653a2063616c6c6572206973206e6f7420746865206f776e6572600082015250565b7f496e76616c6964204f7264657220494420746f2063616e63656c000000000000600082015250565b50565b60028110613d0557613d04613ac9565b5b50565b613d11816139b3565b8114613d1c57600080fd5b50565b613d28816139c5565b8114613d3357600080fd5b50565b60028110613d4357600080fd5b50565b613d4f81613a04565b8114613d5a57600080fd5b5056fea26469706673582212205d98bed8dbf426bd8994c96bf27d746c5524a86048bce4e810aff0eff15cf4b464736f6c63430008070033",
  "devdoc": {
    "kind": "dev",
    "methods": {
      "owner()": {
        "details": "Returns the address of the current owner."
      },
      "renounceOwnership()": {
        "details": "Leaves the contract without owner. It will not be possible to call `onlyOwner` functions anymore. Can only be called by the current owner. NOTE: Renouncing ownership will leave the contract without an owner, thereby removing any functionality that is only available to the owner."
      },
      "transferOwnership(address)": {
        "details": "Transfers ownership of the contract to a new account (`newOwner`). Can only be called by the current owner."
      }
    },
    "version": 1
  },
  "userdoc": {
    "events": {
      "Cancel(uint256,address,address,uint256,uint256)": {
        "notice": "Event when an order is cancelled"
      },
      "Order(uint256,address,address,uint256,uint256,uint8)": {
        "notice": "Event when an order is placed on an exchange"
      },
      "Withdraw(address,address,uint256,uint256)": {
        "notice": "Event when amount withdrawn exchange"
      }
    },
    "kind": "user",
    "methods": {},
    "version": 1
  },
  "storageLayout": {
    "storage": [
      {
        "astId": 53,
        "contract": "contracts/Exchange.sol:Exchange",
        "label": "_owner",
        "offset": 0,
        "slot": "0",
        "type": "t_address"
      },
      {
        "astId": 1196,
        "contract": "contracts/Exchange.sol:Exchange",
        "label": "Owner",
        "offset": 0,
        "slot": "1",
        "type": "t_address"
      },
      {
        "astId": 1201,
        "contract": "contracts/Exchange.sol:Exchange",
        "label": "decimals",
        "offset": 0,
        "slot": "2",
        "type": "t_uint256"
      },
      {
        "astId": 1207,
        "contract": "contracts/Exchange.sol:Exchange",
        "label": "tokens",
        "offset": 0,
        "slot": "3",
        "type": "t_mapping(t_address,t_mapping(t_address,t_uint256))"
      },
      {
        "astId": 1210,
        "contract": "contracts/Exchange.sol:Exchange",
        "label": "tokenList",
        "offset": 0,
        "slot": "4",
        "type": "t_array(t_address)dyn_storage"
      },
      {
        "astId": 1216,
        "contract": "contracts/Exchange.sol:Exchange",
        "label": "ethToken",
        "offset": 0,
        "slot": "5",
        "type": "t_address"
      },
      {
        "astId": 1219,
        "contract": "contracts/Exchange.sol:Exchange",
        "label": "usdc",
        "offset": 0,
        "slot": "6",
        "type": "t_address"
      },
      {
        "astId": 1227,
        "contract": "contracts/Exchange.sol:Exchange",
        "label": "orderBook",
        "offset": 0,
        "slot": "7",
        "type": "t_mapping(t_address,t_mapping(t_uint256,t_array(t_struct(_Order)1250_storage)dyn_storage))"
      },
      {
        "astId": 1231,
        "contract": "contracts/Exchange.sol:Exchange",
        "label": "filledOrders",
        "offset": 0,
        "slot": "8",
        "type": "t_array(t_struct(_filledOrder)1257_storage)dyn_storage"
      },
      {
        "astId": 1234,
        "contract": "contracts/Exchange.sol:Exchange",
        "label": "orderId",
        "offset": 0,
        "slot": "9",
        "type": "t_uint256"
      },
      {
        "astId": 1236,
        "contract": "contracts/Exchange.sol:Exchange",
        "label": "locked",
        "offset": 0,
        "slot": "10",
        "type": "t_bool"
      }
    ],
    "types": {
      "t_address": {
        "encoding": "inplace",
        "label": "address",
        "numberOfBytes": "20"
      },
      "t_array(t_address)dyn_storage": {
        "base": "t_address",
        "encoding": "dynamic_array",
        "label": "address[]",
        "numberOfBytes": "32"
      },
      "t_array(t_struct(_Order)1250_storage)dyn_storage": {
        "base": "t_struct(_Order)1250_storage",
        "encoding": "dynamic_array",
        "label": "struct Exchange._Order[]",
        "numberOfBytes": "32"
      },
      "t_array(t_struct(_filledOrder)1257_storage)dyn_storage": {
        "base": "t_struct(_filledOrder)1257_storage",
        "encoding": "dynamic_array",
        "label": "struct Exchange._filledOrder[]",
        "numberOfBytes": "32"
      },
      "t_bool": {
        "encoding": "inplace",
        "label": "bool",
        "numberOfBytes": "1"
      },
      "t_enum(Side)1260": {
        "encoding": "inplace",
        "label": "enum Exchange.Side",
        "numberOfBytes": "1"
      },
      "t_mapping(t_address,t_mapping(t_address,t_uint256))": {
        "encoding": "mapping",
        "key": "t_address",
        "label": "mapping(address => mapping(address => uint256))",
        "numberOfBytes": "32",
        "value": "t_mapping(t_address,t_uint256)"
      },
      "t_mapping(t_address,t_mapping(t_uint256,t_array(t_struct(_Order)1250_storage)dyn_storage))": {
        "encoding": "mapping",
        "key": "t_address",
        "label": "mapping(address => mapping(uint256 => struct Exchange._Order[]))",
        "numberOfBytes": "32",
        "value": "t_mapping(t_uint256,t_array(t_struct(_Order)1250_storage)dyn_storage)"
      },
      "t_mapping(t_address,t_uint256)": {
        "encoding": "mapping",
        "key": "t_address",
        "label": "mapping(address => uint256)",
        "numberOfBytes": "32",
        "value": "t_uint256"
      },
      "t_mapping(t_uint256,t_array(t_struct(_Order)1250_storage)dyn_storage)": {
        "encoding": "mapping",
        "key": "t_uint256",
        "label": "mapping(uint256 => struct Exchange._Order[])",
        "numberOfBytes": "32",
        "value": "t_array(t_struct(_Order)1250_storage)dyn_storage"
      },
      "t_struct(_Order)1250_storage": {
        "encoding": "inplace",
        "label": "struct Exchange._Order",
        "members": [
          {
            "astId": 1238,
            "contract": "contracts/Exchange.sol:Exchange",
            "label": "id",
            "offset": 0,
            "slot": "0",
            "type": "t_uint256"
          },
          {
            "astId": 1240,
            "contract": "contracts/Exchange.sol:Exchange",
            "label": "user",
            "offset": 0,
            "slot": "1",
            "type": "t_address"
          },
          {
            "astId": 1242,
            "contract": "contracts/Exchange.sol:Exchange",
            "label": "token",
            "offset": 0,
            "slot": "2",
            "type": "t_address"
          },
          {
            "astId": 1244,
            "contract": "contracts/Exchange.sol:Exchange",
            "label": "amount",
            "offset": 0,
            "slot": "3",
            "type": "t_uint256"
          },
          {
            "astId": 1246,
            "contract": "contracts/Exchange.sol:Exchange",
            "label": "price",
            "offset": 0,
            "slot": "4",
            "type": "t_uint256"
          },
          {
            "astId": 1249,
            "contract": "contracts/Exchange.sol:Exchange",
            "label": "side",
            "offset": 0,
            "slot": "5",
            "type": "t_enum(Side)1260"
          }
        ],
        "numberOfBytes": "192"
      },
      "t_struct(_filledOrder)1257_storage": {
        "encoding": "inplace",
        "label": "struct Exchange._filledOrder",
        "members": [
          {
            "astId": 1253,
            "contract": "contracts/Exchange.sol:Exchange",
            "label": "side",
            "offset": 0,
            "slot": "0",
            "type": "t_enum(Side)1260"
          },
          {
            "astId": 1256,
            "contract": "contracts/Exchange.sol:Exchange",
            "label": "order",
            "offset": 0,
            "slot": "1",
            "type": "t_struct(_Order)1250_storage"
          }
        ],
        "numberOfBytes": "224"
      },
      "t_uint256": {
        "encoding": "inplace",
        "label": "uint256",
        "numberOfBytes": "32"
      }
    }
  }
}